:020000040800F2
:1000000008120020590200084B1800084318000885
:10001000471800083B180008AD1A0008000000004F
:10002000000000000000000000000000531800085D
:100030003F180008000000004F180008571800087B
:1000400073020008730200087302000873020008BC
:1000500073020008730200087302000873020008AC
:10006000730200087302000873020008730200089C
:10007000730200087302000873020008730200088C
:1000800079190008730200080000000073020008DC
:10009000730200087302000873020008730200086C
:1000A000730200087302000873020008411A000876
:1000B0007302000800000000730200080000000046
:1000C00073020008000000007302000873020008B9
:1000D00073020008730200087302000800000000A9
:1000E0000000000000000000730200080000000093
:1000F0000000000000000000000000000000000000
:1001000073020008000000000000000073020008F5
:1001100000F002F800F090F80AA090E8000C824489
:100120008344AAF10107DA4501D100F085F8AFF266
:10013000090EBAE80F0013F0010F18BFFB1A43F0C5
:1001400001031847DC310000FC310000103A24BFE5
:1001500078C878C1FAD8520724BF30C830C144BF2C
:1001600004680C607047000000230024002500266E
:10017000103A28BF78C1FBD8520728BF30C148BF0A
:100180000B6070476E2900F04381702900F08D826A
:10019000662903F05780652903F05480672903F02E
:1001A00051806129AFF3008003681B0A28BF41F02A
:1001B0008001692900F0F080642900F0ED80752944
:1001C00000F0EA806F2900F01A82782900F0598245
:1001D000E92900F0B581E42900F0B281F52900F0A9
:1001E000AF81EF2900F01782F82900F058820368E8
:1001F000DB0928BF41F08001632900F0DC85732909
:1002000000F0E185E32900F0EC85F32900F0F185A9
:10021000002070471FB500F03DFE040000200021C3
:1002200002F0FAFF401C60600020002102F0DEFFB7
:10023000E0601FBD10B510BD00F0FFFD1146FFF7D7
:10024000E9FF01F0BBFE00F0DBFE03B4FFF7F2FFB5
:1002500003BC00F023FF000009488047094800471D
:10026000FEE7FEE7FEE7FEE7FEE7FEE7FEE7FEE766
:10027000FEE7FEE704480549054A064B70470000C3
:100280005918000811010008080A0020081200206F
:10029000080E0020080E00207CB51D4616460C00F6
:1002A000009001D02044401E074B7B442A466946FB
:1002B0000190304600F0C5F805461CB100206946A3
:1002C00000F0D2F828467CBDC50100007047704799
:1002D000704770B5044685690068C10601D53026AF
:1002E00000E02026C00707D070BDD4E901213046C8
:1002F0009047206A401C20626D1EF6D570BD70B517
:10030000044685690078C00707D170BDD4E9012192
:1003100020209047206A401C20626D1EF6D570BDDB
:1003200009684A0501D540B27047C905FCD500B23D
:10033000704709684A0501D5C0B27047C905FCD5A8
:1003400080B2704770B50C460546012A05D0287862
:10035000800600D5EA69002302E0012305E05B1C6A
:10036000934202D2E05C0028F9D1A869E618C01ACD
:10037000A861286A184428622846FFF7AAFF04E00B
:10038000D5E9012114F8010B9047B442F8D328466F
:10039000FFF7B5FF70BD00002DE9F04106460024CF
:1003A00010687529314616A510D0FFF7B9FF00284F
:1003B00002DA404213A507E031688A0701D512A589
:1003C00002E0490704D511A5012401E0FFF7B1FFC0
:1003D00000210A2206F1240709E0B0FBF2FCB0FB81
:1003E000F2F302FB1C00303078541846491C0028F8
:1003F000F3D123462A463046BDE8F04100F069BA01
:10040000000000002D0000002B0000002000000074
:1004100011680268006A530501D508700AE0D30527
:1004200001D5088006E0130603D5C217C1E9000212
:1004300000E008600120704701694A1C02610878E9
:10044000704700B58FB0CDE9013100210591054914
:100450007944CDE903101146684600F031F90FB038
:1004600000BD0000E5FFFFFF0A6802F8010B0A600B
:100470007047D1E900239A4202D2531C0B601070DE
:10048000704700002DE9FF5F15468A460446DFF8F5
:10049000AC80F8440027D8E900103E46CDE90010B2
:1004A00010E03AF816106A4602A800F0A6FC411CBB
:1004B00007D02178890603D5E269391891420DD811
:1004C0000744761C2078800602D5E069B84205DD35
:1004D000AE42E6DB3AF816000028E2D1A069C01B64
:1004E000A0612046FFF7F5FED8E90010CDE9001025
:1004F000002017E03AF818106A4602A800F07DFCC8
:10050000B0F1FF3F81460BD000250DF1080B05E04F
:10051000D4E901211BF8050090476D1C4D45F7D328
:1005200008F10100B0428046E4DB206A38442062D2
:100530002046FFF7E4FEBDE8FF9F0000B22D00005B
:100540002DE9F0418046D21D22F007020025D2E9B4
:100550000002F52915A614D0011E72F1000106DA79
:100560000023D0EB030063EB020211A608E0D8F8E9
:1005700000108B0701D50FA602E0490701D50EA692
:1005800001251146002408F1240704E000F05CF97D
:1005900030323A55641C50EA0102F7D12B463246FC
:1005A00021464046BDE8F04100F093B9000000004C
:1005B0002D0000002B0000002000000030B40021BE
:1005C00000F1240408E002F00705D208303542EAC1
:1005D0004372DB086554491C52EA0305F3D10468F1
:1005E000002310A2250707D5A40600D421B1C469B1
:1005F00001230DA2641EC46130BC00F06AB910B5BD
:10060000044621461068FFF794FE02462046BDE8E6
:1006100010400023D2E7D21D22F00701D1E90023C8
:10062000CCE700000000000030000000F0B40D46F0
:100630000188090502D5214C7C4402E01F4C7C4412
:100640000E34002100F1240608E002F00F07120921
:10065000E75D42EA03721B097754491C52EA03071B
:10066000F3D102780023120704D5702D06D009B10A
:10067000022311342246F0BC00F02BB901231034C0
:10068000F8E770B504460D4621461068FFF751FEA5
:10069000024629462046BDE870400023C6E7D21D29
:1006A00022F00703D3E90023C0E70368126843F090
:1006B000200303600823C3610023B7E7142C000064
:1006C0002DE9F05F894604464FF0000ADFF874B167
:1006D000FB44C0F820A02046E1688847002874D079
:1006E000252806D0D4E901219047206A401C2062C9
:1006F000F1E700265F462046E16888472028054646
:1007000007DB312D05D2781910F8200C08B106430B
:10071000F1E7B00701D526F00406C4F81CA00027B5
:10072000C4F818A02A2D09D0284601F0D5F938B30D
:1007300004EB8708303DC8F8185019E059F8041B3D
:10074000204604EB87029161E1688847012F054646
:1007500018D1E069002820DA26F020061DE0D8F83C
:10076000180000EB800005EB40003038C8F8180096
:100770002046E1688847054601F0AEF90028EED131
:10078000012F0AD02E2D08D12046E16888477F1C12
:100790000546022F46F02006C4DBA069002803DAD4
:1007A000404246F00106A061F00701D026F0100695
:1007B0006C2D0BD0682D09D04C2D39D06A2D35D039
:1007C000742D35D07A2D33D016E038E0E1682F460D
:1007D00020468847B842054609D16C2F26D04FF4F1
:1007E0008060E168064320468847054604E06C2F98
:1007F0001AD04FF4807006430DB3A5F141001928BB
:1008000002D8203546F400664A462946204626602E
:100810004E46FFF7B7FC80B101280BD0F61D26F03D
:10082000070000F1080956E74020E4E78020D8E7F8
:100830000020D6E706F104094DE7284652E7206A72
:10084000BDE8F09FA42B000030B5B0F10A024FEADA
:10085000900E71F100034EEA817EB0EB0E0061EB69
:1008600091014FEA101E4EEA017E10EB0E0041EBA3
:1008700011114FEA102E4EEA016E10EB0E0041EB03
:1008800011214FEA104E4EEA014E10EB0E0041EBE3
:100890001141401841F100014FEAD00040EA417097
:1008A0004FEAD10110EB80054FEA810444EA9074CD
:1008B00044EB01046D1944EB0404521BA3414FF0B7
:1008C000000348BF0A3200D530BD401C41F1000191
:1008D00030BD2DE9F0470D4699469246044600F199
:1008E00024080168880604D5E06921F01001216020
:1008F00000E00120A84201DD471B00E00027A169BC
:100900007A1902EB0900081AA0612078C00602D407
:100910002046FFF7DEFC002608E0D4E901211AF8A2
:1009200006009047206A401C761C20624E45F4DB8E
:100930002078C0060AD52046FFF7CBFC06E0D4E9B4
:10094000012130209047206A401C2062381EA7F108
:100950000107F4DC07E0D4E9012118F8050090470D
:10096000206A401C2062281EA5F10105F3DC204608
:10097000FFF7C5FC2078000602D50220BDE8F0870D
:100980000120FBE770472DE9FF4F0C461E464FF054
:10099000FF378BB0D2E90001DDF860800A908A460B
:1009A000C1F30A5505B93D46002108464FF0000045
:1009B000BAF1000F00F4400005DA00EB80004FF4BC
:1009C000400101EA50004FEA9059B9F1010F00DDF2
:1009D000B9460A9850EA4A000ED044F61050A5F2E3
:1009E000FF3545432F14B8F1000F1ED07542291E64
:1009F0001EDDC9F100021CE0B8F1010F4FF000004C
:100A000001D0302103E0F24305E02154401CB04204
:100A1000FBDB30460022002121540B99C1F80880ED
:100A2000C1E900200FB0BDE8F08FBD1B6D1CDEE7F3
:100A30004A4600DA694206A800F070FA06AB93E86D
:100A4000070003AB83E8070050460A9900F02DFB2E
:100A50008DE80700A0F500501F3800900398002D86
:100A60000ADD42F21F014A460844002303A903900D
:100A7000684600F096FD09E0A0F500504A461F3890
:100A8000002303A90390684600F0A0FD8DE807004D
:100A90000004000C03D04FF0FF30410800E0104686
:100AA000B8F1000F03D00022009215461EE0751E1B
:100AB00005D4FFF7C9FE303262556D1EF9D5B34635
:100AC0000122084302D000227F1C04E02078302855
:100AD00001D100227F1E002A099784D01DE0112D2C
:100AE00007DAFFF7B1FE303262556D1C50EA0102A1
:100AF000F5D1084302D00098C8B10EE00021681E6D
:100B000005E0235C625C63542254401E491C814210
:100B1000F7DBAB46A81B401E0990002004F80B0031
:100B20000B98099AC0F80880C0E9002B7AE71126D3
:100B30004FF0000857E72DE9F04F88460446D21DD4
:100B400022F0070191B0D1E90001CDE90A0100F0DE
:100B5000AFFF02460B98C00F01D02D2007E02068A0
:100B6000810701D52B2002E0202101EAC000032AE1
:100B7000099001D0072A05DB03464146204600F0D4
:100B80008DF90BE12078800601D5E06900E00620B0
:100B9000B8F1650F814606D0B8F1660F18D0B8F1EC
:100BA000670F70D131E00020B9F1110F009001DB27
:100BB000112301E009F101030AAA01A90CA8FFF71A
:100BC000E2FEDDE90C70002609F10105834647E0ED
:100BD00001204B4600904FF000470AAA01A90CA83B
:100BE000FFF7D1FEDDE90DB00C995D46002610B986
:100BF00009F101000D18B9EB050003D4C0F1FF366F
:100C000009F10105A5EB09002BE0B9F1010F01DAAB
:100C10004FF001090020B9F1110F0090484601DDA5
:100C2000112300E003460AAA01A90CA8FFF7ABFEB6
:100C3000DDE90C704D4600268346207800070AD473
:100C4000AB4500DA5D4601A8012D04DD411911F81C
:100C5000011C302907D04F4502DA17F1040F04DADE
:100C6000012082460FE06D1EEEE7002F02DCED1B37
:100C70003E4403E0781CA84200DD7D1CB81B00F157
:100C8000010A4FF000472078000703D4AA4501DB92
:100C90004FF0FF3A0021B7F1004F0DF143088DF8F6
:100CA000431024D002202B23002F01DA7F422D2372
:100CB0000A21021EA0F1010000DC5FB197FBF1FCEC
:100CC00097FBF1F201FB1C7C17460CF1300C08F885
:100CD00001CDEEE7A8F1010003702188090501D5D7
:100CE000452100E06521A0F1010800F8011C0998E8
:100CF0000FA9A1EB0807FF1D00B10120411901EB6D
:100D0000EA70A1693844081A401EA0612078C00624
:100D100002D42046FFF7DDFA099828B1D4E9012171
:100D20009047206A401C20622078C00622D52046C9
:100D3000FFF7CFFA1EE0002E04DBB34502DD01A869
:100D4000805D00E03020D4E901219047206A401CFA
:100D50002062761CAAF101005FEA000A0AD100F0C5
:100D600099F8C0680168405CD4E901219047206A85
:100D7000401C2062281EA5F10105DCDC07E0D4E957
:100D8000012118F8010B9047206A401C2062381E90
:100D9000A7F10107F3DC2046FFF7B1FA032011B0F9
:100DA00041E610B5436913B1AFF3008001E0FFF7EE
:100DB000C9FA012010BD127800F124010A70002246
:100DC0004A700122EDE711684FF0FF32E9E710B5F4
:100DD000436913B1AFF3008001E0FFF753FB01203B
:100DE00010BD128800F1240182840022C2840122F5
:100DF000EDE711684FF0FF32E9E770B516460C4693
:100E0000054600F03FF8036893F80101012806D079
:100E1000FF2C0FD8185D68B101202C7070BDD3F87D
:100E200007013246214603F2071303442846BDE872
:100E3000704018474FF0FF3070BD754600F0EAF87B
:100E4000AE4605006946534620F00700854618B0B7
:100E500020B5FFF70FFABDE820404FF000064FF035
:100E600000074FF000084FF0000B21F00701AC46DF
:100E7000ACE8C009ACE8C009ACE8C009ACE8C009FE
:100E80008D46704710B500F005F8001D10BD00BF7D
:100E90008923000000487047C40900202DE9F04173
:100EA0001F46044603260168072A01F4006004DB9C
:100EB00008B116A505E016A503E008B115A500E0E8
:100EC00015A521F010002060A069C01EA0610FB11F
:100ED000401EA0612046FFF7FCF94FB1D4E9012183
:100EE00038469047206A401C2062C01C206206E001
:100EF000206AFAE7D4E9012115F8010B9047761E24
:100F0000F8D22046FFF7FBF9BDE8F0814E414E00D4
:100F10006E616E00494E4600696E66002DE9F0472D
:100F2000814616468AB0354878440DC88DE80D00D4
:100F300032487844801C03AC0DC884E80D0041F6AB
:100F40009B300844372190FBF1F290FBF1F5A5F1BD
:100F5000800501FB12041B3C02D56442012000E025
:100F60000020DFF898A080460027FA44AAF1BE0AC4
:100F70000EE0E0070AD03246684607EB470101233E
:100F80000AEB810100F022FB8DE8070064107F1C52
:100F9000002CEED1194F7F44AE3F19E0E80715D081
:100FA00007EB04100DF1180A90E80E008AE80E0015
:100FB000C068F04201D1981908903246012306A971
:100FC00003A800F003FB03AB83E807006D10641C6B
:100FD000002DE3D14FF0010332466946B8F1000F0E
:100FE00003A802D000F0DDFA01E000F0EFFAC9E951
:100FF0000001C9F808200AB0BDE8F087DC23000032
:1010000010B50446AFF300802046BDE81040FFF75E
:101010001CB9000000487047A40900204FF0013CB3
:1010200050F8042B51F8043B9A4221D1A2EB0C0357
:10103000934313EACC1317D150F8042B51F8043B17
:101040009A4215D1A2EB0C03934313EACC130BD1B4
:1010500050F8042B51F8043B9A4209D1A2EB0C033F
:10106000934313EACC13DBD04FF00000704700BF6E
:10107000D01A01BAB1FA81F101F0180122FA01F097
:10108000CB40C1F12001DBB2C0B2C01A2CFA01F38F
:10109000D11A914311EAC311E6D1704701491820D2
:1010A000ABBEFEE72600020070475FEA400C08BFB7
:1010B00091F0000F4FEA8C234FEAC12243EA5151CD
:1010C0004FEA1C5018BF00F5F0404FEA300018BF3F
:1010D00041F000415FEA6C5C00F02980BCF1FF3F09
:1010E00008BF40F080407047130C06BF12044FF059
:1010F000100C4FF0000C130E04BF12020CF1080C80
:10110000130F04BF12010CF1040C930F04BF9200E3
:101110000CF1020CD30F04BF52000CF1010C11466C
:101120004FF00002A0F11F00A0EB0C00704711F07F
:10113000004F08BF704731F000413FF4D5AF0B0CB2
:1011400006BF09044FF0100C4FF0000C0B0E04BF4B
:1011500009020CF1080C0B0F04BF09010CF1040C7F
:101160008B0F04BF89000CF1020CCB0F04BF4900A8
:101170000CF1010CCCF12003A0EB0C0022FA03F3DC
:1011800002FA0CF241EA030100F10100704720F07D
:101190007F4C80EA030023F07F47ACEB070303F5A5
:1011A0007C5300F0004003F1FF032DE980494FEA32
:1011B000154B09B44FEA144325EA0B4E24EA0348C1
:1011C0000FF2042606EB132749083E785FEA320245
:1011D00003FB0667C7F5000707FB06F64FEA54371F
:1011E0004FEAD64606F1020607FB066CCCF1005C1E
:1011F0004FEA1C472CEA074C07FB06F40CFB06F5EC
:1012000004EB15464FEA961634BF00204FF000401D
:101210004FEAD13706FB07FC4FEA1C4C0CFB0BF7DF
:10122000D21B03FB0CF761EB07010CFB0EF7B0EBD5
:10123000074072EB17420CFB08F734BFA2EB0742E2
:10124000B2EB074261EB17414FEA0C444FEA9107BA
:1012500006FB07FC4FEA1C4C0CFB0BF7B0EBC7403E
:1012600072EB573203FB0CF734BFA2EBC742B2EB71
:10127000C74261EB57310CFB0EF7B0EBC70072EBC6
:1012800057720CFB08F734BFA2EBC702B2EBC702E0
:1012900061EB5771039F4FEA816141EA921104EBC0
:1012A000CC044FEAD1374FEA826206FB07FC42EAE0
:1012B00090124FEA80604FEA1C4C0CFB0BF7D21BDC
:1012C00003FB0CF761EB07010CFB0EF7B0EB0740DB
:1012D00072EB17420CFB08F734BFA2EB0742B2EBEC
:1012E000074261EB17414FEA8C554FEA910704EB37
:1012F0009C2406FB07FC4FEA1C4C0CFB0BF7B0EBE5
:10130000C74072EB573203FB0CF734BFA2EBC74266
:10131000B2EBC74261EB57310CFB0EF7B0EBC700E5
:1013200072EB57720CFB08F734BFA2EBC702B2EBAB
:10133000C70261EB577115EB4C254FEA816141EA19
:1013400092114FEA82624FEAD13742EA901206FBCD
:1013500007FC44F100044FEA80604FEA1C4C0CFB90
:101360000BF7D21B03FB0CF761EB07010CFB0EF72D
:10137000B0EB074072EB17420CFB08F734BFA2EB4F
:101380000742B2EB074261EB174115EB1C154FEA20
:10139000813141EA92414FEA823242EA90424FEA79
:1013A00080304FEA0C7644F1000448EA03434EEAE9
:1013B0000B484FF0000EB2EB080C71EB030724BF93
:1013C000624639464EEB0E0E4FF0000B00185241AC
:1013D00049414BEB0B0BB2EB080C71EB03077BF1B4
:1013E000000B24BF624639464EEB0E0E4FF0000B49
:1013F0000018524149414BEB0B0BB2EB080C71EB5F
:1014000003077BF1000B24BF624639464EEB0E0EFC
:1014100051EA020718BF46F0010616EB0E7655F1A9
:10142000000254F1000103D5BDE88901BDE8008840
:10143000BDE88901BDE80048B619524141EB010100
:10144000A3F10103704780807F7E7D7C7B7A797871
:10145000777676757473727171706F6E6E6D6C6C79
:101460006B6A6A696868676666656464636362611B
:101470006160605F5F5E5E5D5D5C5C5B5B5A5A599C
:101480005958585757565655555554545353525208
:101490005251515050504F4F4F4E4E4D4D4D4C4C60
:1014A0004C4B4B4B4A4A4A494949484848474747A9
:1014B00047464646454545444444444343434342E6
:1014C000424242414141002B9C4630D477002BD010
:1014D0001CB54FEA370703B44FF010004FF010016E
:1014E000BAF1000F06D0BCF1000FDCBF40F00800DD
:1014F00040F008014FF000000FBCBDE810400BF1B8
:10150000010BBBF1010F08BF5FEA170722BF12F101
:10151000010211F101014FF0004143F1000300F01D
:10152000004043EA00007047F9D35708D0E746EA85
:10153000064613F1400F4FEA16461FDD13F1200F48
:10154000DFBF16430A46002120335B42BED0C3F101
:10155000200746EA064602FA07F74FEA164646EA29
:101560000706C3F1200722FA03F201FA07F721FA6E
:1015700003F14FF0000342EA0702A7E746EA02063A
:1015800046EA06464FEA164646EA0106BCBF46EA68
:101590000646360C4FF000034FF000024FF00001FA
:1015A00094E72DE9804C9A46934670B491E8380050
:1015B00007C831EA400C48BF34EA430C03D5FFF7B3
:1015C000E6FDFFF780FFF0BCBDE8008C2DE9804C04
:1015D0009A46934670B491E8380007C810F0804FDF
:1015E00008BF13F0804F03D100F005F8FFF76BFF41
:1015F000F0BCBDE8008C20F07F4780EA030023F0B8
:101600007F4C07EB0C03A3F57C5300F00040A3F1E3
:10161000FE0392F0000F00F0B38095F0000F00F091
:1016200077802DE901494FEA11404FEA144621EA3B
:10163000004800FB06FC24EA064708FB06F607FB09
:1016400008F800FB07F718EB06484CEB164C4FEA7E
:10165000124B18EB07484FEA15464CEB174022EAAD
:101660000B4E0BFB06FC25EA06470EFB06F607FBB6
:101670000EFE0BFB07F71EEB064E4CEB164C4FF025
:1016800000061EEB074E4CEB174B18EB0B0840F116
:10169000000018EB0E0B58EB000840F100008F1A09
:1016A0004FF000013CBFC943661B14BFB5EB040CEF
:1016B00000213CBFC943F61B4FEA17444EEA8E0E89
:1016C00027EA04454FEA1C4704FB07622CEA074C53
:1016D00005FB07F70CFB05F604FB0CFC16EB0746B5
:1016E00042EB174216EB0C4642EB1C421BEB060684
:1016F00058EB0202414146EA9E0601D5BDE8018948
:10170000B619524141EB0101A3F10103BDE8018982
:101710004FEA14454FEA114724EA054621EA074CEF
:1017200005FB07F406FB07F70CFB06F105FB0CFCB9
:1017300011EB074144EB17444FEA124711EB0C4100
:1017400044EB1C4422EA074C05FB07F206FB07F7B3
:101750000CFB06F605FB0CFC16EB074642EB1742AA
:1017600016EB0C4642EB1C456A1854F1000148BFC9
:101770007047B619524141EB0101A3F101037047D3
:1017800095F0000F37D04FEA11424FEA144721EA93
:10179000024624EA074C02FB07F106FB07F70CFBA5
:1017A00006F402FB0CFC14EB074441EB17414FEA33
:1017B000154714EB0C4441EB1C4125EA074C02FB96
:1017C00007F506FB07F70CFB06F602FB0CFC16EB15
:1017D000074645EB174516EB0C4645EB1C42121924
:1017E00051F1000148BF7047B619524141EB010168
:1017F000A3F1010370474FEA14454FEA114724EA69
:10180000054621EA074C05FB07F106FB07F70CFB31
:1018100006F24FF0000605FB0CFC12EB074241EB11
:10182000174112EB0C4251EB1C4148BF7047921814
:1018300041EB0101A3F10103704700BFFEE700BFC8
:10184000FEE700BFFEE700BFFEE700BFFEE700BF08
:10185000FEE700BFFEE770471CB54348006840F054
:1018600001004149086000BF3F48006800F00200E5
:101870000028F9D03C48406800F00C00082838D116
:1018800000BF0020019002E00198401C01900198E7
:101890005028F9D3344840680090009820F0F000B8
:1018A0000090009840F0800000902F490098486018
:1018B0000020019002E00198401C019001985028FE
:1018C000F9D3294840680090009820F0F00000907B
:1018D000009840F090000090234900984860002054
:1018E000019002E00198401C019001985028F9D322
:1018F00000BF1D48406820F003001B494860642079
:1019000000F0F1F8184800681849084016490860C6
:101910000846406816490840134948600846406830
:1019200014490840104948600846406820F44000C7
:1019300048600846C06A20F00F00C8620846006B85
:1019400040F243118843084908630846406B20F081
:10195000010048630020886001F09AF800214FF0F0
:10196000006000F05FFD1CBD00100240FFFFF2FEB2
:101970000C00FF08FFFFC0F710B50121174801F068
:1019800022F950B30121154801F01AF9134801F06A
:101990000DF9134800F06FFEF8B100201149A1F8CD
:1019A0004C0406E00F48B0F84C04401C0D49A1F867
:1019B0004C040C48B0F84C0440F24C41884209D227
:1019C0000848B0F84C04074A8118054800F02EFE7C
:1019D0000028E7D1034801F06FFB10BD0004004070
:1019E000E8040020980000201FB540F2017000F0CC
:1019F0009FFF124801F06CF82F20ADF80000002086
:101A0000ADF80200ADF8040040F2E730029000208B
:101A1000ADF806008DF80C006946084801F0DCF8C6
:101A2000064801F037F90121044801F02FF901229D
:101A30000021102000F096FC1FBD000000040040B3
:101A400010B51649164801F056FAD0B1144801F005
:101A5000CBF9C4B22146134800F0CAFD00F002FAE7
:101A600003280DD1104801F0A1F801210E4801F022
:101A7000A7F800210C4801F029F80B4801F09BF869
:101A800000BF40F20371064801F0F4F920B140F2C2
:101A90000371034801F0DCF910BD000005000507E3
:101AA00000380140E80400200004004000BFFEE7C9
:101AB000490050EAC12018BF04204A0D18BF40F069
:101AC000010040F2FF72B2EB515F08BF40F002002C
:101AD000012808BF0520704730380A2801D20120AC
:101AE00070470020704708B50021009102E000997E
:101AF000491C009100EB8001009AB2EB410FF6D334
:101B000008BD000000B54AF2FC71024800F078F808
:101B100000BD00000050000830B503464FF0FF3113
:101B20001D46002211E0A85C4140002409E001F0BC
:101B3000010018B1074880EA510100E04908601C23
:101B4000C4B2082CF3DB501C82B20C2AEBDBC84376
:101B500030BD00002083B8ED10B50121064801F02A
:101B600091F8054801F022F80521044801F0A9F98F
:101B7000024801F063F910BD000400400038014044
:101B80000FB408B503A8009080210648009B029A74
:101B9000FEF782FB00200090024800F005F801B03B
:101BA0005DF814FB0800002010B5044603E014F8AB
:101BB000010B01F0C9F820780028F8D110BD30B52C
:101BC00002460B460020002117E0555C80EA052004
:101BD00000240EE000F400452DB141F2210585EA14
:101BE0004005A8B203E04FF6FF7505EA4000651C0A
:101BF000ECB2082CEEDB4D1CA9B29942E5DB30BDFE
:101C000030B503460C464FF0FF31002210E0985CDF
:101C10004140002509E001F0010018B1064880EAC2
:101C2000510100E04908681CC5B2082DF3DB521CC5
:101C3000A242ECD3C84330BD2083B8ED4FF0E02082
:101C4000006920F004004FF0E021086109480068B5
:101C50000949B0FBF1F0094908700846007800EB2B
:101C60004001C1EBC0104FF6FF7101EAC00004490A
:101C7000088070470000002000127A000400002055
:101C80000600002030B504460C4800886FF07F4104
:101C9000B1FBF0F507E04FF47A7105FB01F000F0BD
:101CA0000FF8601B84B2AC42F5D82CB14FF47A71B6
:101CB00004FB01F000F004F830BD00000600002035
:101CC0000146114A12784A434FF0E0235A6100223C
:101CD0009A611A46126942F001021A6100BF4FF080
:101CE000E022106900F001021AB100F48032002AEB
:101CF000F5D04FF0E022126922F001024FF0E0230C
:101D00001A6100229A6170470400002070B50446F1
:101D10000D464FF4702000F049F806468EB90A4887
:101D2000006940F001000849086125804FF47020E7
:101D300000F03CF806460448006920F00100024922
:101D40000861304670BD0000002002400348006971
:101D500040F0800001490861704700000020024007
:101D600070B504464FF4702000F020F80546C5B960
:101D70000D48006940F002000B49086108464461C3
:101D8000006940F04000086100BF00BF4FF47020C0
:101D900000F00CF805460448006920F002000249F2
:101DA0000861284670BD00000020024070B505465D
:101DB000012400BF00F00CF804466D1E012C01D177
:101DC000002DF7D1012C00D10424204670BD000065
:101DD00000200A49C96801F0010109B101200CE0A5
:101DE0000649C96801F0100109B1032005E0034963
:101DF000C96801F0040101B10220704700200240CF
:101E00000548006900F0800020B10448024948609C
:101E100003484860704700000020024023016745E6
:101E2000AB89EFCD70B504460D464FF47020FFF737
:101E3000BDFF06468EB90A48006940F00100084916
:101E4000086125604FF47020FFF7B0FF0646044894
:101E5000006920F0010002490861304670BD0000B1
:101E600000200240014800787047000088000020F0
:101E7000F0B503461C6A5D6A00200DE0012686402D
:101E800016403EB187000F26BE40B443860001FADB
:101E900006F63443461CB0B20828EFD3082011E000
:101EA0000126864016405EB1A0F10806B7000F2655
:101EB000BE40B543A0F10806B60001FA06F6354368
:101EC000461CB0B21028EBD31C625D62F0BDF0B5C9
:101ED00004460D4616462168E268002019E00127F5
:101EE00087401F409FB14FEA400C032707FA0CF7C9
:101EF000B943470005FA07F739434FEA400C032777
:101F000007FA0CF7BA43470006FA07F73A43471CAB
:101F1000B8B21028E3D32160E260F0BDF0B50C4602
:101F20001546012C03D146681E43466002E0466810
:101F30009E434660826800210DE001268E401E40CF
:101F40003EB14F000326BE40B2434E0005FA06F6EE
:101F500032434E1CB1B21029EFD38260F0BD0000B5
:101F60002DE9F04104462668300D0005B0F1005F10
:101F700002D00020BDE8F08100F00AFD05460D48C2
:101F8000854201D0681C40B901F006F808B900206C
:101F9000F0E70848C01E01F029F86768FFF7DCFD8C
:101FA00072B60548046000BF86F3088800BFB847D2
:101FB0000120DFE70455AA5508ED00E04FF00508C1
:101FC00000270025FFF73AFE4FF4A06000F020FA4A
:101FD00001F058F84FF4E13000F062FE00F02EFA04
:101FE00000F0D6FC0646701C18B9514800F0FEFF00
:101FF0004F4E4F484042304420B101280BD00328B7
:1020000019D10FE04FF00108012000F0D9FC49A0E0
:10201000FFF7B6FD1BE0032000F0D2FC54A0FFF751
:10202000AFFD14E04FF00208012000F0C9FC5AA0F7
:10203000FFF7A6FD0BE03E4800F0D8FF4FF0010887
:10204000012000F0BDFC62A0FFF79AFD00BF00BFB9
:102050006CE0FFF707FF0446012C06D0022C21D0CC
:10206000032C3AD0042C5FD154E0634800F003FB0A
:1020700058B1614800F0F7FA60A0FFF781FD032036
:1020800000F09EFC002500274FE04FF47A70FFF728
:10209000F9FD781C87B2474502DB022000F090FC76
:1020A000002542E05EA0FFF76BFD3220FFF7EAFD5E
:1020B0005F48FFF755FF78B95EA0FFF761FD4FF469
:1020C000FA60FFF7DFFD1A48401C00F08FFF032085
:1020D00000F076FC0027002527E045B9144800F001
:1020E00085FF5EA0FFF74CFD63A0FFF749FD00F000
:1020F000C4FF4FF4FA70FFF7C5FD681C85B2C82D08
:1021000007DB65A0FFF73CFD022000F059FC00252D
:1021100000270AE068A0FFF733FD4FF47A70FFF75D
:10212000B1FD00F0B9FC00E000BF00BF91E7000086
:102130000155AA554E6F726D616C20626F6F743AD3
:10214000206A756D7020746F2041505020696E2098
:1021500031732C20707265737320616E79206B650A
:102160007920746F207570646174652E0D0A00000B
:10217000557064617465207265717565737465640A
:102180002C20656E74657220757064617465206DB5
:102190006F64652E0D0A0000466972737420626FC9
:1021A0006F74206166746572207570646174653A3D
:1021B0002077696C6C207665726966792041505091
:1021C00020696E746567726974792E0D0A000000CB
:1021D000496E76616C696420626F6F7420666C6111
:1021E000672C20726573657420746F206E6F726D3A
:1021F000616C2E0D0A000000E80400204B65792078
:10220000707265737365642C20656E7465722075D9
:102210007064617465206D6F64652E0D0A000000A6
:102220007374617274206170702E2E2E0D0A00007E
:1022300000500008737461727420617070206661D0
:10224000696C65642C20656E7465722075706461BC
:102250007465206D6F64652E0D0A00003D3D3D20C4
:10226000456E74657220555044415445206D6F642D
:1022700065203D3D3D0D0A0057616974696E672018
:10228000666F7220596D6F64656D2066696C652E8E
:102290002E2E0D0A000000005570646174652074D4
:1022A000696D656F75742C206261636B20746F209B
:1022B0004150502E0D0A00007570646174652073E2
:1022C0007563636573732C2073797374656D207205
:1022D00065626F6F742E2E2E0D0A000070B50646D3
:1022E0000C462A2C00D92A2406EB84200C4988426B
:1022F00001D9002070BDFFF783FD00250AE006EB41
:102300008520FFF72DFD18B1FFF720FD0020F1E734
:10231000681CC5B2A542F2DBFFF718FD0120E9E712
:1023200000F800082DE9F04106460D461746FFF774
:1023300067FD00240FE0295D601C285C41EA00284D
:1023400030194146FFF7E2FC20B1FFF7FFFC002007
:10235000BDE8F081A41CBC42EDD3FFF7F7FC0120DF
:10236000F6E700002DE9F04103460D46164600242D
:102370000027A0462448006800F4E060B0F5A06F94
:1023800015D006DCB0F5407F18D0B0F5806F19D1BC
:1023900010E0B0F5C06F06D0B0F5E06F12D10027A5
:1023A0004FF0040815E001274FF0030811E0022761
:1023B000B8460EE003274FF001080AE004274FF06B
:1023C000000806E04FF4A06000F022F80227B846AB
:1023D00000BF00BFC7F1040005FA00F4C8F1040112
:1023E0000F20C8403040044324010848C45403F07F
:1023F0001F01012088405911890001F1E021C1F835
:102400000001BDE8F08100000CED00E000E400E018
:1024100002490143024A1160704700000000FA05BA
:102420000CED00E0034A0A400243034B1A60BFF37D
:102430004F8F704780FFFF1F08ED00E010B515A01B
:10244000FFF79EFB1EA0FFF79BFB28A0FFF798FB62
:102450004FF4804251032FA0FFF792FB4FF48052BC
:10246000344935A0FFF78CFB4FF428423A493BA092
:10247000FFF786FB4FF48062404941A0FFF780FBE5
:102480004FF48062464947A0FFF77AFB4DA0FFF763
:1024900077FB10BD2D2D2D2D2D2D2D2D2D2D2045D6
:1024A0006E74657220426F6F744C6F616465722048
:1024B0002D2D2D2D2D2D2D2D2D2D0D0A0000000043
:1024C0003D3D3D3D3D3D3D3D20666C617368207066
:1024D0006172746974696F6E207461626C65203D0D
:1024E0003D3D3D3D3D3D3D0D0A0000007C206E61BF
:1024F0006D65202020207C206F6666736574202027
:102500002020207C2073697A652020202020202034
:102510007C0D0A007C20626F6F74202020207C20BC
:10252000307825303858207C2030782530385820B5
:102530007C0D0A00004000087C20666C616720204A
:1025400020207C20307825303858207C2030782599
:10255000303858207C0D0A00005000087C20617043
:102560007020202020207C20307825303858207C96
:1025700020307825303858207C0D0A0000F80008FB
:102580007C20636F6E66696720207C203078253060
:102590003858207C20307825303858207C0D0A00AF
:1025A00000FC00087C2072657365727665207C20D3
:1025B000307825303858207C203078253038582025
:1025C0007C0D0A003D3D3D3D3D3D3D3D3D3D3D3D9C
:1025D0003D3D3D3D3D3D3D3D3D3D3D3D3D3D3D3D2B
:1025E0003D3D3D3D3D3D3D3D3D3D3D0D0A00000035
:1025F00010B50246D2F8B804B0F5966F01DB0020A2
:1026000010BDD2F8B0041154D2F8B004401C4FF4FD
:10261000966390FBF3F403FB1400C2F8B004D2F805
:10262000B804401CC2F8B8040120E9E710B502461E
:10263000D2F8B80408B9002010BDD2F8B404105C78
:102640000870D2F8B404401C4FF4966390FBF3F486
:1026500003FB1400C2F8B404D2F8B804401EC2F858
:10266000B8040120E8E70021C0F8B014C0F8B414A1
:10267000C0F8B81470470146D1F8B80408B1012079
:1026800070470020FCE700002DE9F04F8FB00446B2
:102690004FF0000CE0460020002200258146CDF8D6
:1026A00038900021CDF83490CDF83090CDF82C90B2
:1026B0000023CDF82890CDF82490CDF82090002666
:1026C00000270FF24C2999E8004CD9F80C90CDE97D
:1026D00005BECDF810A0CDF81C900FF2382ADAE92B
:1026E000009ACDE9029A0FF22C2ADAE9009ACDE994
:1026F000009ADFF82C92D9F80490C9F3810CBCF150
:10270000000F06D0BCF1010F05D0BCF1020F3FD184
:1027100003E0844A3EE0834A3CE0DFF80492D9F8C3
:102720000490C9F38343DFF8F891D9F80490C9F312
:10273000C069CDF82890DDF82890B9F1000F01D0DC
:10274000113300E09B1CDFF8D891D9F80490C9F34D
:102750000049CDF82490DDF82490B9F1000F12D093
:10276000DFF8BC91D9F82C9009F00F0909F10109A3
:10277000CDF82090DFF8ACA1DDF82090BAFBF9F994
:1027800009FB03F203E0DFF8A09103FB09F201E08B
:10279000644A00BF00BFDFF88891D9F80490C9F3FC
:1027A00003160DF1100919F8067022FA07F5DFF883
:1027B0007091D9F80490C9F302260DF1080919F8AF
:1027C000067025FA07F9CDF83890DFF85491D9F85A
:1027D0000490C9F3C2261DF8067025FA07F1072CEC
:1027E00072D2DFE804F00406080A0C475B001046CA
:1027F00089E0284687E00E9885E0084683E0DFF808
:102800002091D9F8309009F48079B9F5807F04D00F
:10281000DFF81891CDF834902AE0DFF80491D9F868
:102820000490C9F38138B8F1000F09D0B8F1010F55
:102830000BD0B8F1020F0DD0B8F1030F16D110E094
:102840004FEA5109CDF8349011E04FEA9109CDF8E3
:1028500034900CE04FF00609B1FBF9F9CDF8349053
:1028600005E04FEAD109CDF8349000E000BF00BF89
:102870000D9848E0DFF8A890D9F8309009F04009A9
:10288000B9F1400F04D048F21209CDF8309003E0BE
:102890004FF40049CDF830900C9834E0DFF8809088
:1028A000D9F8309009F00309B9F1000F01D10B916B
:1028B00026E0DFF86C90D9F8309009F00309B9F1FF
:1028C000010F02D10B921BE01CE0DFF85490D9F805
:1028D000309009F00309B9F1020F04D14FF4004917
:1028E000CDF82C900CE0DFF83890D9F8309009F052
:1028F0000309B9F1030F03D1DFF82890CDF82C902C
:102900000B9800E000BF00BF0FB0BDE8F08F0000E3
:10291000000000000000000001020304060708098F
:102920000010024000127A0000093D00809FD5008F
:10293000064A02EB9011096800F01F0301229A4039
:102940001143024B03EB90121160704700100240DC
:10295000064A02EB9011096800F01F0301229A4019
:102960009143024B03EB901211607047001002403C
:10297000064A02EB9011096800F01F0301229A40F9
:102980001143024B03EB901211607047001002409C
:1029900010B5094C09492068884202D04FF0FF3039
:1029A00010BD2046FFF7B8F8E168884202D04FF02A
:1029B000FF30F5E76068F3E7004000085AA5A55A24
:1029C00001490870704700008800002008B5FFF733
:1029D00099F80090042269460148FFF7A3FC08BD5E
:1029E000FCF7000808B500200021274A126842F4CD
:1029F0008032254B1A6000BF401C234A126802F443
:102A0000003111B9B0F5006FF6D11F4A126802F417
:102A1000003202B908BD1C4A52681B4B5A601A4664
:102A200052685A601A4652685A601A465268174BE2
:102A30001A40154B5A601A46526842F488125A607E
:102A40001A46126842F080721A6000BF0E4A12687D
:102A500002F00072002AF9D00B4A52680092009AE4
:102A600022F003020092009A42F002020092064B0A
:102A7000009A5A6000BF044A526802F00C02082A09
:102A8000F9D100BFC6E7000000100240FFFFC27787
:102A900010B5FFF7A7FF10BD012080F3138800BF1A
:102AA00000BFBFF34F8F0748006800F4E06006499D
:102AB0000843001D03490860BFF34F8F00BF00BFEC
:102AC000FEE700000CED00E00000FA0541627047EF
:102AD00010B504463349601A8C4217D00CDCB4F1AF
:102AE000804F1CD03048204410B3B0F5406F28D040
:102AF000B0F5E05F52D12DE0B0F5A05F33D0B0F576
:102B0000C05F39D0B0F5E05F48D13EE040F20B3015
:102B1000FFF72EFF40F20B30FFF71AFF3FE04FF4B4
:102B20008060FFF725FF4FF48060FFF711FF36E06C
:102B300040F20140FFF71CFF40F20140FFF708FFA1
:102B40002DE040F20440FFF713FF40F20440FFF78E
:102B5000FFFE24E04FF48160FFF70AFF4FF481602D
:102B6000FFF7F6FE1BE04FF44470FFF701FF4FF450
:102B70004470FFF7EDFE12E040F21130FFF7F8FE6F
:102B800040F21130FFF7E4FE09E040F21230FFF7A7
:102B9000EFFE40F21230FFF7DBFE00E000BF00BFA7
:102BA00010BD0000002C014000FCFFBF016821F0B7
:102BB000010101607047016841F001010160704747
:102BC000CA430261704702461069084008B10120FB
:102BD00070470020FCE700000A888262234A904286
:102BE00005D0B0F1804F02D0214A90420BD102684B
:102BF00022F07002026002684B881A430260026889
:102C00008B881A4302608A68C262184A904211D0C7
:102C1000B0F1804F0ED0164A90420BD0154A904228
:102C200008D0154A904205D0144A904202D0144A66
:102C3000904207D1026822F4407202600268CB8899
:102C40001A430260094A904208D00B4A904205D0CC
:102C50000A4A904202D00A4A904201D10A7B02639A
:102C6000426942F00102426170470000002C0140BD
:102C700000040040002000400040014000440140AA
:102C800000480140C2688A43C2607047C2680A4374
:102C9000C2607047016821F00201016070470000C6
:102CA00010B5044640F21150FFF742FE40F20E60AC
:102CB000FFF73EFE4FF4C06201214FF09040FFF756
:102CC000D7F84FF4C063002202214FF09040FFF785
:102CD000FEF84FF40073032200214FF09040FFF7FD
:102CE0001DF9184800F08AF82146164800F03EF811
:102CF0000021144800F043F90021124800F02BF99C
:102D00000021104800F013F900210E4800F0CDF822
:102D100000210C4800F0BDF804210A4800F013F926
:102D20000821084800F023F90521064800F0D6F8EC
:102D3000002201211B20FFF715FB024800F083F859
:102D400010BD00000038014010B5044600BF40F23D
:102D50000771054800F08EF80028F8D02146024897
:102D600000F047F810BD0000003801402DE9F047A1
:102D700004460D460027B846B946002619482044A7
:102D800038B1B0F5744F09D10620FFF77DFC074636
:102D900005E00220FFF778FC074600E000BF00BF17
:102DA000206800F4004070B1780000EB5500B0FBE3
:102DB000F5F64FF6F07006EA0008C6F3420948EA55
:102DC0000900E0600CE007EB5500B0FBF5F64FF6AC
:102DD000F07006EA000806F00F0948EA0900E06012
:102DE000BDE8F08700BCFFBF0146486AC0F3080099
:102DF0007047C1F3080282627047000010B50446B4
:102E00000D48204458B1B0F5744F11D140F20E3046
:102E1000FFF7AEFD40F20E30FFF79AFD09E040F2F9
:102E20001140FFF7A5FD40F21140FFF791FD00E0D2
:102E300000BF00BF10BD000000BCFFBF016821F053
:102E4000010101607047016841F0010101607047B4
:102E500010B540F20572914204D1826942F0080235
:102E6000826106E0026A01F01F040123A3401A43B5
:102E7000026210BD10B5024602EB9110006801F02D
:102E80001F040123A340184008B1012010BD0020F9
:102E9000FCE7026822F001020260826822F40072FC
:102EA000826082680A4382607047026822F00102F1
:102EB0000260826822F48072826082680A438260C3
:102EC000704710B500EB9112126801F01F04012346
:102ED000A3409A4300EB91131A6010BD10B500EBAC
:102EE0009112126801F01F040123A3401A4300EB62
:102EF00091131A6010BD70B5024600230024C1F37F
:102F00008910105801F01F060125B54000EA05039D
:102F100002EB91500068C1F304460125B54000EA78
:102F2000050414B10BB1012070BD0020FCE702685C
:102F300022F001020260026822F4C06202600268AC
:102F40000A4302607047026822F0040202600268CD
:102F50000A4302607047026822F001020260426880
:102F600022F44052426042680A434260704702685D
:102F700022F00802026002680A4302607047026899
:102F800022F001020260026822F4805202600268AC
:102F90000A4302607047000010B507480468601CCF
:102FA00008B9012010BDFEF7ADFDA04201D10120FE
:102FB000F8E70020F6E70000FCF70008F0B504464B
:102FC0000D4604B10DB90020F0BD281D215CE81CA0
:102FD000205C41EA00272946E01CFEF7F0FD06468A
:102FE000B74201D10120EFE70020EDE72DE9FF41D5
:102FF00006461D4800900196002002906846FEF7A4
:103000008BFD0390FEF7FCFE1848FEF7A9FE28B1E1
:10301000FEF79CFE002004B0BDE8F0816F4600245E
:103020000CE057F82410114A02EB8400FEF7FAFE78
:1030300018B1FEF78BFE0020EDE7641C042CF0DBDA
:10304000FEF784FE094D28680099884207D1686818
:103050000199884203D1E8680399884201D0002091
:10306000D9E70120D7E700005AA5A55A004000087B
:1030700010B50620FFF768FE10BD10B54320FFF71E
:1030800063FE10BD10B5012005490870002048708E
:1030900004484860FEF7A8FC0348FFF7E4FA10BDB7
:1030A0008800002000500008E804002010B515201A
:1030B000FFF74AFE10BD00002DE9F04104462578D7
:1030C0004648407830B1012821D0022865D0032835
:1030D0007DD16CE0012D19D16678A77886EA0700CA
:1030E000FF2800D073E005203C4908703C48486048
:1030F00048682A21FFF7F2F8FFF7BAFFFFF7BDFF94
:1031000036484078401C3549487000BF5FE0012DCB
:1031100001D0022D33D194F80180B8F1000F02D113
:10312000FFF7A6FF53E0012D01D1802001E04FF40D
:103130008060064631462046FFF740FF0746DFB174
:103140002648406830442749884207D9002023494F
:10315000487004200870FFF7A9FF38E01F49324685
:103160004868E11CFFF7DEF81C48406830441B4902
:103170004860FFF77DFF01E0FFF798FF0CE0042DAA
:1031800007D1FFF793FF15484078401C134948705A
:1031900002E000201149487019E0042D06D1FFF724
:1031A00067FF0E484078401C0C4948700FE0012D25
:1031B0000CD1FFF75DFF002008494870FFF706FCBF
:1031C0000948FFF713FF04200449087000BF00BF3F
:1031D0000020A4F84C04BDE8F08100008800002025
:1031E0000050000800F800080455AA5510B5002941
:1031F0000AD00878002807D005487844FDF70EFF6C
:10320000002801D0002010BD0248784410BD000005
:10321000460100003E01000010B500290AD00878E0
:10322000002807D005487844FDF7F8FE002801D0B3
:10323000002010BD0248784410BD00003601000097
:103240002E010000FDF777BC000000000000000028
:1032500030313233343536373839414243444546CC
:1032600040305800303132333435363738396162C6
:1032700063646566403078000400000800000000C8
:1032800000000002000100001000000002400000E9
:10329000000000A00000000005400000000000C881
:1032A000000000000C4000000000409C00000000F6
:1032B000194000000020BCBE0000000034400000A7
:1032C000BFC91B8E00000004B5400000504BCFD09A
:1032D0006607E2CF010000006C4100003E8251AA67
:1032E000DFEEA73401000000D9420000DCB5A0E207
:1032F0003A301F97FFFFFFFFB4450000FD25A0C82F
:10330000E9A3C14FFFFFFFFFFF3F00000000008067
:1033100000000000FF3F00000000008000000000EF
:103320006C34000800000020080000004C01000878
:103330007434000808000020001200006801000832
:103340001C00000043000000F8FFFFFF0C0000001D
:103350000E0000000F0000002E0000001001000011
:1033600043000000F8FFFFFF004040404040404065
:103370004040414141414140404040404040404048
:1033800040404040404040404005020202020202EC
:10339000020202020202020202202020202020203B
:1033A000202020020202020202029090909090904F
:1033B000101010101010101010101010101010100D
:1033C0001010101002020202020288888888888881
:1033D000080808080808080808080808080808086D
:1033E0000808080802020202400000000000000075
:1033F00000000000000000000000000000000000CD
:1034000000000000000000000000000000000000BC
:1034100000000000000000000000000000000000AC
:10342000000000000000000000000000000000009C
:10343000000000000000000000000000000000008C
:10344000000000000000000000000000000000007C
:10345000000000000000000000000000000000006C
:10346000000000000000000000000000006CDC0212
:043470000000000058
:0400000508000111DD
:00000001FF
