:020000040800F2
:10000000000A0020AD010008610B0008850300080C
:10001000E1060008670200081D0E0008000000004D
:10002000000000000000000000000000A50C000817
:10003000F5020008000000008D0B0008A90C000864
:10004000C7010008C7010008C7010008C701000870
:10005000C7010008C7010008C7010008C701000860
:10006000C7010008C7010008C7010008C701000850
:10007000C7010008C7010008C7010008C701000840
:10008000D10D0008C701000800000000C7010008EA
:10009000C7010008C7010008C7010008C701000820
:1000A000C7010008C7010008C7010008C701000810
:1000B000C701000800000000C701000800000000A0
:1000C000C701000800000000C7010008C7010008C0
:1000D000C7010008C7010008C701000800000000B0
:1000E0000000000000000000C70100080000000040
:1000F0000000000000000000000000000000000000
:10010000C70100080000000000000000C70100084F
:1001100000F002F800F03AF80AA090E8000C8244DF
:100120008344AAF10107DA4501D100F02FF8AFF2BC
:10013000090EBAE80F0013F0010F18BFFB1A43F0C5
:10014000010318471C1D00003C1D0000103A24BF8D
:1001500078C878C1FAD8520724BF30C830C144BF2C
:1001600004680C607047000000230024002500266E
:10017000103A28BF78C1FBD8520728BF30C148BF0A
:100180000B6070471FB51FBD10B510BD00F031F8F2
:100190001146FFF7F7FF01F0C6F900F04FF803B47E
:1001A000FFF7F2FF03BC00F057F800000948804752
:1001B00009480047FEE7FEE7FEE7FEE7FEE7FEE749
:1001C000FEE7FEE7FEE7FEE704480549054A064B61
:1001D00070470000B10C0008110100080002002067
:1001E000000A00200006002000060020704770472B
:1001F0007047754600F02CF8AE4605006946534638
:1002000020F00700854618B020B5FFF7DDFFBDE8F8
:1002100020404FF000064FF000074FF000084FF06D
:10022000000B21F00701AC46ACE8C009ACE8C009FE
:10023000ACE8C009ACE8C0098D46704710B504466B
:10024000AFF300802046BDE81040FFF7A8BF0000D4
:10025000004870479C01002001491820ABBEFEE712
:1002600026000200704700BFFEE7000070B502469E
:100270000B464FF6FF700021002400BF13E0545CD2
:1002800084EA000505F00F05084E56F8255085EA6A
:10029000101080EA241505F00F0556F8255085EA60
:1002A00010104D1CE9B29942E9DB70BD201E000818
:1002B0001FB5002011E000210C4A42F8201001EB8C
:1002C00040024DF82210012202EB40024DF82210AC
:1002D000074A42F82010411CC8B20228EBDB042276
:1002E0000221684600F0F4F81FBD00002C00002039
:1002F0004800002000BFFEE700E0401E0028FCD1BF
:10030000704700001FB502220621684600F0C0F8C1
:10031000002010E0002101EB40015DF821400121A7
:1003200001EB40015DF8211001EB0444034941F861
:100330002040411CC8B20228ECDB1FBD5400002045
:100340001FB5002013E00E4951F82010090C0022BF
:1003500002EB40024DF82210094931F8201089B211
:10036000012202EB40024DF82210411CC8B20228C3
:10037000E9DB02220621684600F0AAF81FBD000052
:100380005400002000BFFEE770B5002400251AE0ED
:1003900080214FF0904000F044FF0A20FFF7ACFFAF
:1003A00080214FF0904000F03AFF0A20FFF7A4FFB1
:1003B000640040214FF0904000F035FF012800D14B
:1003C000641C681CC5B2182DE2DB80214FF0904000
:1003D00000F027FF0A20FFF78FFF80214FF09040A9
:1003E00000F01DFF0A20FFF787FF80214FF09040AB
:1003F00000F017FF0A20FFF77FFF80214FF09040A9
:1004000000F00DFF0A20FFF777FF80214FF09040AA
:1004100000F007FF0A20FFF76FFF80214FF09040A8
:1004200000F0FDFE0A20FFF767FF84F40004204679
:1004300070BD10B540F2115001F04CFA802300223B
:1004400001214FF0904000F0F6FE802303220021AE
:100450004FF0904000F016FF80214FF0904000F0E8
:10046000DEFE4023012200214FF0904000F0E3FE29
:1004700040214FF0904000F0D4FE0A2000F02AFE08
:10048000FFF782FF0A2000F025FEFFF77DFF10BD79
:10049000F0B589B006460F4614466400A2B2F8B221
:1004A00001A900F043FD00200EE001A90D5C01AAA6
:1004B000411C515C01EB0525014600EBD172521045
:1004C00046F82250811CC8B2A042EED309B0F0BD5C
:1004D00070B588B005460E46144600200DE035F88C
:1004E0002010C1F307210DF8101015F8202041004D
:1004F000491C0DF80120411CC8B2A042EFD3640092
:10050000A2B2F0B2694600F0A7FD08B070BD0000CD
:1005100038B500F075F83449087034480578084655
:10052000007800285EDD0020314908702E480078F0
:10053000801EC1B22F48FFF799FE0446E0B28DF845
:100540000100200A8DF8000027480078401E294944
:10055000085C9DF80010884244D123480078801E32
:100560002449085C9DF8011088423BD1214840781D
:10057000032804D0052805D0102809D105E000F093
:1005800049F912E000F092FA0FE000F0ABF80CE04D
:10059000FF2019494870022088700020C87006208A
:1005A000087105201549087000BF00BF124805708A
:1005B000124801781048FFF759FE04460F490878A1
:1005C000411C0E4B19700C490C54C4F307221946F8
:1005D0000878411C197008490A54184601780648E1
:1005E00000F004FC38BD000037000020540000205B
:1005F00039000020060100204601002038000020BC
:1006000070B53248067840F20571314801F0ADFB13
:10061000A0B140F205712E4801F095FB2C4801F085
:1006200063FBC4B22B480078402806D229490878D9
:10063000411C284A117028490C5400BF40F2047133
:10064000234801F092FB00283DD0002500242048DB
:1006500001F04AFB40F204711D4801F074FB20E0F8
:100660001D48405D08B9012000E000201A49495D9D
:10067000B14201D1012100E00021084378B10024FA
:1006800006E028191449085C14490855601CC4B2D6
:100690006019104909788842F3DB204670BD681C58
:1006A000C5B20C480078854203DA0A480078402831
:1006B000D6DD002404E0002007490855601CC4B2C0
:1006C000402CF8D300BF0020E8E7000054000020D1
:1006D0000038014039000020700000200601002091
:1006E00000BFFEE770B54548C0784449897800EB03
:1006F00001254249887900EBD0714C101020404907
:1007000048703E48807888703C48C078C8703B4844
:1007100000790871394840794871062039490870D4
:10072000902D3DD0B02D04D0C02D1CD0F02D54D133
:1007300061E0012C16D1002010E0082101EB4001FE
:100740002E4A515C072202EB40022C4B9A5C01EBD3
:1007500002212D4A42F82010411CC8B20128ECDBCE
:10076000FFF7EEFD47E0052C19D8002010E0082126
:1007700001EB4001214A515C072202EB40021F4B72
:100780009A5C01EB0221214A42F82010411CC8B2B8
:100790000228ECDB022200211C48FFF799FE2AE028
:1007A000052C19D8002010E0082101EB4001134A64
:1007B000515C072202EB4002104B9A5C01EB0221D4
:1007C000134A42F82010411CC8B20128ECDB012278
:1007D00004210F48FFF77CFE0DE0FF200849487018
:1007E0000648807888700548C078C8700020087175
:1007F0000520487100BF00BF70BD00000601002049
:100800004601002038000020540000201400002081
:100810005C00002070B503209D4948709D48C07859
:100820009C49897800EB01269A48407999490979D1
:1008300000EB0124902E39D004DC002E73D0072E5B
:1008400033D104E0B02E60D0C02EF9D18FE0012C5E
:100850001FD16006000E8E4988706000C01C8E4952
:1008600008700325002011E08C4931F82010C1F3F5
:10087000072105EB4002864B9954884911F8202046
:1008800005EB4001491C5A54411CC8B20128EBDB5E
:100890000BE0FF207E494870022088700020C8705D
:1008A0000420087105207C490870EEE0052C1FD853
:1008B0006006000E764988706000C01C764908709A
:1008C000002012E0764931F82010C1F307210322FD
:1008D00002EB40026E4B9954714911F8201004222A
:1008E00002EB40029954411CC8B20128EADB0BE03C
:1008F000FF2067494870022088700020C8700420DB
:100900000871052064490870BFE0012C22D16006FF
:10091000000E5F4988706000C01C5F490870FFF7D7
:10092000F1FC002013E051E05E4931F82010C1F3E2
:100930000721032202EB4002554B9954594911F803
:100940002010042202EB40029954411CC8B2012835
:10095000EADB0BE0FF204E4948700220887000203F
:10096000C8700420087105204B4908708DE0052CE3
:100970001FD86006000E464988706000C01C4649BA
:100980000870002012E0484931F82010C1F3072117
:10099000032202EB40023E4B9954434911F82010C8
:1009A000042202EB40029954411CC8B20528EADB3C
:1009B0000BE0FF2036494870022088700020C87084
:1009C000042008710520344908705EE0032C4FD8DC
:1009D0006006000E2E4988706000C01C2E49087009
:1009E0000325002011E02D4931F82010C1F3072123
:1009F00005EB4002264B9954284911F8202005EBBD
:100A00004001491C5A54411CC8B20128EBDBA81C08
:100A1000C5B2002011E0224931F82010C1F30721AE
:100A200005EB40021A4B99541D4911F8202005EBA3
:100A30004001491C5A54411CC8B20128EBDBA81CD8
:100A4000C5B2002011E0184931F82010C1F3072188
:100A500005EB40020E4B9954134911F8202005EB89
:100A60004001491C5A54411CC8B20128EBDB0BE081
:100A7000FF2007494870022088700020C8700420B9
:100A8000087105200449087000BF00BF70BD000058
:100A90004601002006010020380000201C00002034
:100AA0005C000020540000201400002010B5052038
:100AB000274948702748807888702648C078C870D1
:100AC000244800790871234840794871062022495A
:100AD000087020488078B0B91E48C078F22812D13A
:100AE0001C48407918B900201C4908602FE0FF20FD
:100AF00017494870022088700020C87005200871CE
:100B00001549087023E013488078A8B91148C078C7
:100B1000FA2811D10F48407910B9FFF7C9FB16E048
:100B2000FF200B494870022088700020C870052003
:100B30000871094908700AE0FF2005494870022041
:100B400088700020C870052008710349087010BD26
:100B5000460100200601002038000020500000203F
:100B600000BFFEE710B5002807DA0A07140E054A91
:100B700000F00F031B1FD45403E00A07130E024AB0
:100B8000135410BD18ED00E000E400E000BFFEE7E4
:100B900010B5FFF7B7FB022200210448FFF778FCED
:100BA000012204210248FFF773FC10BD140000204D
:100BB0005C00002010B540214FF0904000F033FB66
:100BC00000285FD130480078002853D0FFF7DCFBC5
:100BD000840AB4F5005F19DB00202C4908702C480A
:100BE0000078401CC0B22A49087001280BDDA4F52A
:100BF00000504FF47A71484326490968B0FBF1F47C
:100C00002548046011E0244804680EE000241F48D1
:100C10000078401CC0B21D490870012803DD00BFE8
:100C20001D48046001E01C48046842F210706043F3
:100C30001A490968B0FBF1F01949086008460068D4
:100C4000B0F5AB6F03D940F2F440086003E01448FC
:100C50000068134908600C480078401CC0B20A497B
:100C6000087003280EDD0020087009490870074944
:100C7000087007E004480078401C03490870FFF73B
:100C800083FB044610BD00000A000020090000207C
:100C9000080000205C0000200C0000201400002050
:100CA0001C00002000BFFEE710B500F01DFA10BDCB
:100CB0001CB54348006840F001004149086000BF8E
:100CC0003F48006800F002000028F9D03C48406826
:100CD00000F00C00082838D100BF0020019002E08D
:100CE0000198401C019001985028F9D3344840687D
:100CF0000090009820F0F0000090009840F08000F4
:100D000000902F49009848600020019002E001986F
:100D1000401C019001985028F9D329484068009060
:100D2000009820F0F0000090009840F090000090B3
:100D30002349009848600020019002E00198401C7F
:100D4000019001985028F9D300BF1D48406820F059
:100D500003001B494860642000F062F818480068EE
:100D60001849084016490860084640681649084076
:100D700013494860084640681449084010494860D3
:100D80000846406820F4400048600846C06A20F0E9
:100D90000F00C8620846006B40F2431188430849BF
:100DA00008630846406B20F001004863002088601B
:100DB00000F016FE00214FF0006000F02BFC1CBD7F
:100DC00000100240FFFFF2FE0C00FF08FFFFC0F71B
:100DD00010B50121044800F032FF18B1012102488A
:100DE00000F02AFF10BD00000004004070B5054669
:100DF0000E4600240DE0295D074800F07AFF00BF91
:100E000040F20771044800F0B0FF0028F8D0601CE1
:100E1000C4B2B442EFD370BD0038014000BFFEE75A
:100E200008B50021009102E00099491C009100EBF7
:100E30008001009AB2EB410FF6D308BD2DE9F047CF
:100E400004460F46154617B90120BDE8F0870DB9D5
:100E50000120FAE72046E11704EB5171C1F3C708FE
:100E60006119481EC11700EB5171C1F3C709C8458C
:100E700001D00220E9E700BF40F201612A4800F0FA
:100E800021FB0028F8D1284800F043FB00BF4FF4B5
:100E9000A061254800F016FB0028F8D06FF0010291
:100EA000A021214800F01DFB00BF40F201511E4867
:100EB00000F008FB0028F8D040F201511A4800F079
:100EC000EDFA00BF40F20751174800F0FBFA002886
:100ED000F8D02146144800F0D9FA00BF40F207517B
:100EE000114800F0EFFA0028F8D000260DE0B95DB7
:100EF0000D4800F0CBFA00BF40F207510A4800F05D
:100F0000E1FA0028F8D0701CC6B2AE42EFDB06480A
:100F100000F004FB00BF0448006800F400700028E3
:100F2000F9D100BF91E70000005800402DE9F041E1
:100F300007460E46154616B90120BDE8F0810DB9E9
:100F40000120FAE700BF40F20161424800F0BAFA1E
:100F50000028F8D13F4800F0DCFA00BF4FF4A06150
:100F60003C4800F0AFFA0028F8D06FF00102A02151
:100F7000384800F0B6FA00BF40F20151354800F0A1
:100F8000A1FA0028F8D040F20151324800F086FA68
:100F900000BF40F207512F4800F094FA0028F8D023
:100FA00039462C4800F072FA00BF40F20751294838
:100FB00000F088FA0028F8D0264800F0AAFA00BF0E
:100FC0004FF4A061234800F07DFA0028F8D00122F8
:100FD000A021204800F085FA00BF40F201511D48D1
:100FE00000F070FA0028F8D040F20151194800F0E2
:100FF00055FA00241AE0681EA04204D100211548C9
:1010000000F0C6F904E04FF48061124800F0C0F926
:1010100000BF40F206510F4800F054FA0028F8D003
:101020000C4800F02FFA3055601C84B2AC42E2DB71
:10103000084800F073FA00BF0648006800F400702A
:101040000028F9D14FF48061024800F0A1F9002096
:1010500073E70000005800402DE9F05F81460E461E
:1010600017464FF0000AB8464C4616B90120BDE8B5
:10107000F09F0FB90120FAE727E02046E11704EBC3
:101080005171C910A4EBC101C1F1080101F0FF0BBE
:10109000D84501DA404600E05846C5B206EB0A01E1
:1010A0002A462046FFF7CAFE08B10220DFE70AEB16
:1010B00005001FFA80FAA8EB05001FFA80F86019F6
:1010C000C4B2052000F01CF800BFB8F1000FD4DC5A
:1010D0000020CCE70349086000BF024909680029E5
:1010E000FBD17047000000200448006820B103488D
:1010F0000068401E014908607047000000000020A1
:10110000002108E0002201E000BF521C42F21073EF
:101110009A42F9D3491C8142F4D3704710B540F28A
:10112000115000F0D7FB40F20E6000F0D3FB4FF4FB
:10113000C06201214FF0904000F042F84FF400737C
:10114000012202214FF0904000F075F84FF4007337
:10115000032200214FF0904000F094F84FF4806398
:10116000012202214FF0904000F065F8134800F092
:10117000C5FD4FF41651114800F078FD00210F48CD
:1011800000F042FE00210D4800F02AFE00210B482D
:1011900000F012FE0021094800F002FE002107487D
:1011A00000F0F2FD0421054800F012FE082103487A
:1011B00000F022FE014800F0C1FD10BD00380140E2
:1011C000F0B503461C6A5D6A00200DE001268640EA
:1011D00016403EB187000F26BE40B443860001FA98
:1011E00006F63443461CB0B20828EFD3082011E0BD
:1011F0000126864016405EB1A0F10806B7000F2612
:10120000BE40B543A0F10806B60001FA06F6354324
:10121000461CB0B21028EBD31C625D62F0BD816247
:1012200070478161704702461069084008B101208B
:1012300070470020FCE7F0B504460D4616462168CD
:10124000E268002019E0012787401F409FB14FEA64
:10125000400C032707FA0CF7B943470005FA07F7D4
:1012600039434FEA400C032707FA0CF7BA4347000B
:1012700006FA07F73A43471CB8B21028E3D32160B7
:10128000E260F0BDF0B50C461546012C03D146686E
:101290001E43466002E046689E4346608268002125
:1012A0000DE001268E401E403EB14F000326BE4099
:1012B000B2434E0005FA06F632434E1CB1B2102975
:1012C000EFD38260F0BD000010B5002209490A4842
:1012D00000F066F800231A461946074800F00BF99B
:1012E000054800F0D6F84FF48061034800F050F84C
:1012F00010BD0000A08601000058004010B540F26B
:10130000115000F0E7FA40F2167000F0E3FA012203
:1013100004214FF09040FFF753FF022204214FF0C9
:101320009040FFF74DFF0423012211464FF09040FB
:10133000FFF781FF0423032200214FF09040FFF7C5
:10134000A1FF04214FF09040FFF769FF01231A46E7
:1013500002214FF09040FFF76EFF01230322194650
:101360004FF09040FFF78EFF0223012219464FF005
:101370009040FFF760FF0223032201214FF09040CD
:10138000FFF780FF04214FF09040FFF748FF10BDAA
:101390000A460021016821F4806111430160704711
:1013A0002DE9F05F04460E469346022000F03EF918
:1013B00007463148B7FBF0F9B9F1480F01D34FF0B8
:1013C0004809D4F804A02AF07F0A4AEA090AC4F8B6
:1013D00004A02A4886421ED82748B7FBF0F000F147
:1013E0000108B8F1480F02D34820206207E0B8F1A5
:1013F000020F02D80220206201E0C4F820807000B1
:10140000B7FBF0F5042D00D20425E069C5F30B010C
:101410000843E0612EE01A4886422BD84FF49670BC
:1014200009FB00F04FF47A71B0FBF1F0401C206230
:10143000BBF1000F08D106EB4600B7FBF0F5E06901
:1014400020F48040E06109E006EBC60000EB0610E6
:10145000B7FBF0F5E06940F48040E061C5F30B00B4
:1014600008B945F00105E06940F40040E061E06939
:101470002843E061BDE8F09F40420F00A0860100D4
:10148000801A060001460869C0B27047CAB20261FC
:101490007047016841F001010160704710B540F2EA
:1014A0000152914202D1426982690AE000EB911235
:1014B000126801F01F040123A3409A4300EB91132B
:1014C0001A6010BD10B5024602EB9110006801F0E1
:1014D0001F040123A340184008B1012010BD0020C3
:1014E000FCE712F1020F02D121F0010101E041F00D
:1014F00001010161704730B50C460021016821F0FF
:10150000020121430160C3F3090342EA0305856038
:1015100030BD016841F4807101607047016841F499
:1015200000710160704700F05FFAFFF7F7FDFEF70A
:1015300080FF00F081FAFFF7E1FEFFF7C5FEFFF73D
:1015400027FB06E0FEF7E4FF0120FFF7C3FDFFF7EE
:1015500031FBF7E72DE9F04103460D46164600241E
:101560000027A0462448006800F4E060B0F5A06FB2
:1015700015D006DCB0F5407F18D0B0F5806F19D1DA
:1015800010E0B0F5C06F06D0B0F5E06F12D10027C3
:101590004FF0040815E001274FF0030811E002277F
:1015A000B8460EE003274FF001080AE004274FF089
:1015B000000806E04FF4A06000F022F80227B846C9
:1015C00000BF00BFC7F1040005FA00F4C8F1040130
:1015D0000F20C8403040044324010848C45403F09D
:1015E0001F01012088405911890001F1E021C1F853
:1015F0000001BDE8F08100000CED00E000E400E037
:1016000002490143024A1160704700000000FA05D8
:101610000CED00E0034A0A400243034B1A60BFF39B
:101620004F8F704780FFFF1F08ED00E02DE9F04F5E
:101630008FB004464FF0000CE04600200022002549
:101640008146CDF838900021CDF83490CDF8309017
:10165000CDF82C900023CDF82890CDF82490CDF82B
:101660002090002600270FF24C2999E8004CD9F869
:101670000C90CDE905BECDF810A0CDF81C900FF26E
:10168000382ADAE9009ACDE9029A0FF22C2ADAE92F
:10169000009ACDE9009ADFF82C92D9F80490C9F3AA
:1016A000810CBCF1000F06D0BCF1010F05D0BCF1DC
:1016B000020F3FD103E0844A3EE0834A3CE0DFF87A
:1016C0000492D9F80490C9F38343DFF8F891D9F86C
:1016D0000490C9F3C069CDF82890DDF82890B9F1DD
:1016E000000F01D0113300E09B1CDFF8D891D9F82E
:1016F0000490C9F30049CDF82490DDF82490B9F1A5
:10170000000F12D0DFF8BC91D9F82C9009F00F0926
:1017100009F10109CDF82090DFF8ACA1DDF82090A7
:10172000BAFBF9F909FB03F203E0DFF8A09103FB30
:1017300009F201E0644A00BF00BFDFF88891D9F8E0
:101740000490C9F303160DF1100919F8067022FA76
:1017500007F5DFF87091D9F80490C9F302260DF16E
:10176000080919F8067025FA07F9CDF83890DFF85E
:101770005491D9F80490C9F3C2261DF8067025FAD1
:1017800007F1072C72D2DFE804F00406080A0C47C0
:101790005B00104689E0284687E00E9885E0084601
:1017A00083E0DFF82091D9F8309009F48079B9F519
:1017B000807F04D0DFF81891CDF834902AE0DFF86C
:1017C0000491D9F80490C9F38138B8F1000F09D019
:1017D000B8F1010F0BD0B8F1020F0DD0B8F1030F23
:1017E00016D110E04FEA5109CDF8349011E04FEADC
:1017F0009109CDF834900CE04FF00609B1FBF9F9EE
:10180000CDF8349005E04FEAD109CDF8349000E0EE
:1018100000BF00BF0D9848E0DFF8A890D9F83090DD
:1018200009F04009B9F1400F04D048F21209CDF88F
:10183000309003E04FF40049CDF830900C9834E03C
:10184000DFF88090D9F8309009F00309B9F1000F62
:1018500001D10B9126E0DFF86C90D9F8309009F0B7
:101860000309B9F1010F02D10B921BE01CE0DFF874
:101870005490D9F8309009F00309B9F1020F04D15E
:101880004FF40049CDF82C900CE0DFF83890D9F8EF
:10189000309009F00309B9F1030F03D1DFF8289064
:1018A000CDF82C900B9800E000BF00BF0FB0BDE852
:1018B000F08F00000000000000000000010203049F
:1018C000060708090010024000127A0000093D00D6
:1018D000809FD500064A02EB9011096800F01F03B3
:1018E00001229A401143024B03EB901211607047A2
:1018F00000100240064A02EB9011096800F01F0335
:1019000001229A409143024B03EB90121160704701
:1019100000100240064A02EB9011096800F01F0314
:1019200001229A401143024B03EB90121160704761
:101930000010024008B500200021274A126842F436
:101940008032254B1A6000BF401C234A126802F403
:10195000003111B9B0F5006FF6D11F4A126802F4D8
:10196000003202B908BD1C4A52681B4B5A601A4625
:1019700052685A601A4652685A601A465268174BA3
:101980001A40154B5A601A46526842F488125A603F
:101990001A46126842F080721A6000BF0E4A12683E
:1019A00002F00072002AF9D00B4A52680092009AA5
:1019B00022F003020092009A42F002020092064BCB
:1019C000009A5A6000BF044A526802F00C02082ACA
:1019D000F9D100BFC6E7000000100240FFFFC27748
:1019E00010B5FFF7A7FF10BD10B5124800684FF4FF
:1019F0007A71B0FBF1F4601EB0F1807F01D3012059
:101A00000FE0601E4FF0E02148610F214FF0FF30E2
:101A1000FFF7A8F800204FF0E02188610720086157
:101A2000002008B100BFFEE70021481EFFF79AF82A
:101A300010BD0000040000201FB540F20170FFF748
:101A400049FF154800F02AF8684600F004F9002024
:101A5000ADF80600ADF8040040F2E730029041F620
:101A60001F40ADF8000000208DF80C0069460A48C0
:101A700000F088F80121084800F0DEF8012106484E
:101A800000F0D6F8012211461020FFF763FD02484E
:101A900000F072F81FBD00000004004010B50446BD
:101AA0003349601A8C4217D00CDCB4F1804F1CD043
:101AB0003048204410B3B0F5406F28D0B0F5E05F57
:101AC00052D12DE0B0F5A05F33D0B0F5C05F39D072
:101AD000B0F5E05F48D13EE040F20B30FFF71AFF6F
:101AE00040F20B30FFF706FF3FE04FF48060FFF756
:101AF00011FF4FF48060FFF7FDFE36E040F2014039
:101B0000FFF708FF40F20140FFF7F4FE2DE040F23E
:101B10000440FFF7FFFE40F20440FFF7EBFE24E035
:101B20004FF48160FFF7F6FE4FF48160FFF7E2FEAD
:101B30001BE04FF44470FFF7EDFE4FF44470FFF7E5
:101B4000D9FE12E040F21130FFF7E4FE40F211300E
:101B5000FFF7D0FE09E040F21230FFF7DBFE40F263
:101B60001230FFF7C7FE00E000BF00BF10BD00004D
:101B7000002C014000FCFFBF016841F00101016041
:101B8000704700000A888262234A904205D0B0F173
:101B9000804F02D0214A90420BD1026822F070029D
:101BA000026002684B881A43026002688B881A43FD
:101BB00002608A68C262184A904211D0B0F1804F28
:101BC0000ED0164A90420BD0154A904208D0154AC2
:101BD000904205D0144A904202D0144A904207D154
:101BE000026822F4407202600268CB881A430260E5
:101BF000094A904208D00B4A904205D00A4A9042C6
:101C000002D00A4A904201D10A7B0263426942F043
:101C10000102426170470000002C014000040040B6
:101C200000200040004001400044014000480140C5
:101C3000C2680A43C2607047CA43026170470246E5
:101C4000D06800EA01031069084010B10BB101200F
:101C500070470020FCE700210180418081804FF621
:101C6000FF7181600021C180017370472DE9F04749
:101C700004460D460027B846B946002619482044B8
:101C800038B1B0F5744F09D10620FFF7CFFC0746F5
:101C900005E00220FFF7CAFC074600E000BF00BFD6
:101CA000206800F4004070B1780000EB5500B0FBF4
:101CB000F5F64FF6F07006EA0008C6F3420948EA66
:101CC0000900E0600CE007EB5500B0FBF5F64FF6BD
:101CD000F07006EA000806F00F0948EA0900E06023
:101CE000BDE8F08700BCFFBF0146486AC0F30800AA
:101CF0007047C1F3080282627047000010B50446C5
:101D00000D48204458B1B0F5744F11D140F20E3057
:101D1000FFF700FE40F20E30FFF7ECFD09E040F265
:101D20001140FFF7F7FD40F21140FFF7E3FD00E03F
:101D300000BF00BF10BD000000BCFFBF016841F044
:101D400001010160704710B540F20572914204D163
:101D5000826942F00802826106E0026A01F01F0413
:101D60000123A3401A43026210BD10B5024602EBE4
:101D70009110006801F01F040123A340184008B12E
:101D8000012010BD0020FCE7026822F00102026081
:101D9000826822F40072826082680A43826070471F
:101DA000026822F001020260826822F4807282607E
:101DB00082680A4382607047026822F00102026072
:101DC000026822F4C062026002680A43026070473F
:101DD000026822F00402026002680A43026070474F
:101DE000026822F001020260426822F4405242601E
:101DF00042680A4342607047026822F008020260AB
:101E000002680A4302607047026822F00102026021
:101E1000026822F48052026002680A43026070473E
:101E20000000000001CC000001D8000000140000F8
:101E300001F00000003C00000028000001E4000068
:101E400001A00000006C00000078000001B4000058
:101E500000500000019C00000188000000440000C8
:101E6000801E0008000000205C0000004C010008FB
:101E7000DC1E00085C000020A409000068010008C6
:101E800000000000006CDC02000000000000000008
:101E90000000000000000000000000000000000042
:101EA0000000000000000000000000000000000032
:101EB0000000000000000000000000000000000022
:101EC0000000000000000000000000000000000012
:0C1ED00000000000000000000000000006
:0400000508000111DD
:00000001FF
