:020000040800F2
:1000000090150020AD0100080B040008030400084F
:1000100007040008FB030008A90600080000000010
:1000200000000000000000000000000013040008B1
:10003000FF030008000000000F0400081704000878
:10004000C7010008C7010008C7010008C701000870
:10005000C7010008C7010008C7010008C701000860
:10006000C7010008C7010008C7010008C701000850
:10007000C7010008C7010008C7010008C701000840
:1000800039050008C701000800000000C70100088A
:10009000C7010008C7010008C7010008C701000820
:1000A000C7010008C7010008C70100083D06000895
:1000B000C701000800000000C701000800000000A0
:1000C000C701000800000000C7010008C7010008C0
:1000D000C7010008C7010008C701000800000000B0
:1000E0000000000000000000C70100080000000040
:1000F0000000000000000000000000000000000000
:10010000C70100080000000000000000C70100084F
:1001100000F002F800F03AF80AA090E8000C8244DF
:100120008344AAF10107DA4501D100F02FF8AFF2BC
:10013000090EBAE80F0013F0010F18BFFB1A43F0C5
:1001400001031847FC2200001C230000103A24BFC2
:1001500078C878C1FAD8520724BF30C830C144BF2C
:1001600004680C607047000000230024002500266E
:10017000103A28BF78C1FBD8520728BF30C148BF0A
:100180000B6070471FB51FBD10B510BD00F0FBF828
:100190001146FFF7F7FF00F0EFFF00F019F903B485
:1001A000FFF7F2FF03BC00F021F900000948804787
:1001B00009480047FEE7FEE7FEE7FEE7FEE7FEE749
:1001C000FEE7FEE7FEE7FEE704480549054A064B61
:1001D000704700001904000811010008900D00206C
:1001E00090150020901100209011002040EA01039A
:1001F00010B59B070FD1042A0DD310C808C9121FD0
:100200009C42F8D020BA19BA884201D9012010BD09
:100210004FF0FF3010BD1AB1D30703D0521C07E0D6
:10022000002010BD10F8013B11F8014B1B1B07D13A
:1002300010F8013B11F8014B1B1B01D1921EF1D1AB
:10024000184610BD032A40F2308010F0030C00F075
:10025000158011F8013BBCF1020F624498BF11F800
:1002600001CB00F8013B38BF11F8013BA2F10402B9
:1002700098BF00F801CB38BF00F8013B11F0030331
:1002800000F02580083AC0F0088051F8043B083A95
:1002900051F804CBA0E80810F5E7121D5CBF51F837
:1002A000043B40F8043BAFF30080D20724BF11F8B1
:1002B000013B11F801CB48BF11F8012B24BF00F816
:1002C000013B00F801CB48BF00F8012B704710B587
:1002D000203AC0F00B80B1E81850203AA0E818503E
:1002E000B1E81850A0E81850BFF4F5AF5FEA027CFF
:1002F00024BFB1E81850A0E8185044BF18C918C06E
:10030000BDE810405FEA827C24BF51F8043B40F80E
:10031000043B08BF7047D20728BF31F8023B48BFF3
:1003200011F8012B28BF20F8023B48BF00F8012B31
:1003300070474FF0000200B51346944696462039A8
:1003400022BFA0E80C50A0E80C50B1F12001BFF48E
:10035000F7AF090728BFA0E80C5048BF0CC05DF8F4
:1003600004EB890028BF40F8042B08BF704748BF42
:1003700020F8022B11F0804F18BF00F8012B7047B6
:10038000704770477047754600F02CF8AE46050080
:100390006946534620F00700854618B020B5FFF7A0
:1003A00013FFBDE820404FF000064FF000074FF06C
:1003B00000084FF0000B21F00701AC46ACE8C00983
:1003C000ACE8C009ACE8C009ACE8C0098D4670478C
:1003D00010B50446AFF300802046BDE81040FFF79B
:1003E000DEBE000000487047300D00200149182093
:1003F000ABBEFEE726000200704700BFFEE700BF6D
:10040000FEE700BFFEE700BFFEE700BFFEE700BF5C
:10041000FEE700BFFEE770471CB54348006840F0A8
:1004200001004149086000BF3F48006800F0020039
:100430000028F9D03C48406800F00C00082838D16A
:1004400000BF0020019002E00198401C019001983B
:100450005028F9D3344840680090009820F0F0000C
:100460000090009840F0800000902F49009848606C
:100470000020019002E00198401C01900198502852
:10048000F9D3294840680090009820F0F0000090CF
:10049000009840F0900000902349009848600020A8
:1004A000019002E00198401C019001985028F9D376
:1004B00000BF1D48406820F003001B4948606420CD
:1004C00000F0F4F818480068184908401649086018
:1004D0000846406816490840134948600846406885
:1004E00014490840104948600846406820F440001C
:1004F00048600846C06A20F00F00C8620846006BDA
:1005000040F243118843084908630846406B20F0D5
:10051000010048630020886001F064FB00214FF077
:10052000006001F05FF81CBD00100240FFFFF2FE0A
:100530000C00FF08FFFFC0F708B501213A4801F0A1
:10054000ECFB00B908BD0121374801F0E3FB364858
:1005500001F0D6FB3BE03548B0F84C0448B99DF8B3
:10056000000000F0B9FB324908800846008800B955
:100570002DE02E48B0F84C0440F24C4188420AD39A
:1005800001F0ECFD00202949A1F84C04284908801D
:10059000284908701BE09DF800102448B0F84C244E
:1005A000B0F84C04401C214BA3F84C04184681546D
:1005B000B0F84C041E490988884207D1184601F05A
:1005C000D3FD00201A4908801A49087000BF694607
:1005D000194801F0ADF80028BDD11448B0F84C041A
:1005E00000B31248B0F84C0411490988884219DA5E
:1005F00010480078401CC0B20E4908700A280AD37F
:1006000001F0ACFD00200949A1F84C04084908801C
:100610000849087006E00021034801F001FB024888
:1006200001F073FB00BF8DE70004004024040020AC
:100630001C0000201E0000207408002010B5154981
:10064000154801F002FDC0B1134801F077FCC4B2B7
:100650002146124801F04EF8002011490870114857
:1006600001F04EFB01210F4801F054FB00210D4821
:1006700001F0D6FA0B4801F048FB40F2037106483E
:1006800001F0A2FC20B140F20371034801F08AFCA2
:1006900010BD000005000507003801407408002067
:1006A0001E0000200004004000BFFEE708B5002146
:1006B000009102E00099491C009100EB8001009A32
:1006C000B2EB410FF6D308BD10B504464CB1E0685B
:1006D00038B10548D4E9031200F0E4F808B101206C
:1006E00010BD0020FCE700000050000810B50446D3
:1006F00044B1606930B1D4E9050100F047F808B1B0
:10070000012010BD0020FCE710B58AB00446204649
:1007100000F089FC98B16946E01C00F06FFF70B1F1
:1007200001A800F0EFF850B115490398884206D1AE
:10073000069848B1DDE9060100F028F820B901F07B
:100740000DFD00200AB010BD15210E4800F044FE3A
:1007500018B901F003FD0020F4E70A480A4948608F
:10076000009888600020C860012008744870032049
:10077000087001F0D5FC01F0D8FC0120E2E7000090
:100780000424571300500008040000202DE9F04114
:1007900004460D46082C03D345F2FC30844202D9AE
:1007A0000020BDE8F0810E480668001D076830464D
:1007B00001F0B4F930B10B4822180146384601F077
:1007C0008DF908B90020ECE7681C28B121460448DF
:1007D00000F048F8A84201D10120E2E70020E0E75C
:1007E00000A400080050000870B506460C461A48E0
:1007F000864202D0194886420CD11748844202D062
:100800001648844206D1A64204D01521204600F0A5
:10081000E3FD08B9002070BD002517E070194FF402
:1008200080620F4900F000FE60194FF480620C49AD
:1008300000F006FE30B160194FF480620849FFF7FE
:10084000D5FC08B10020E6E705F58065B5F5A84FB1
:10085000E4D30120DFE700000050000800A40008F6
:100860002400002070B503460C461E464FF0FF31B1
:10087000002211E0B05C414000250AE001F00100D7
:1008800018B1074880EA510000E048080146681C9A
:10089000C5B2082DF2D3521CA242EBD3C84370BD9F
:1008A0002083B8ED2DE9F04704460D46164614485E
:1008B000844205D1082D03D345F2FC30854202D98C
:1008C0000020BDE8F0876719D4F80080D4F80490C0
:1008D000404601F023F928B13A462146484601F046
:1008E000FDF808B90020ECE7701C28B12946204625
:1008F000FFF7B8FFB04201D10120E2E70020E0E7B6
:1009000000500008F0B593B0064616B9002013B0A9
:10091000F0BD0AA9154800F0C1FD044601A914481C
:1009200000F0BCFD054624B91DB9304600F0F4FBCB
:10093000EDE77CB175B10B99029801F0E1F808B1CF
:1009400001A800E00AA80746242239463046FFF7EE
:10095000BEFC08E00CB10AA800E001A80146242270
:100960003046FFF7B4FC0120D1E70000004000084A
:10097000004400082DE9F0439BB0044674B1A06820
:1009800000F0BAFD50B145F2FC31E068884205D86C
:100990006069884202D8E069032803D900201BB0AF
:1009A000BDE8F08312A9314800F078FD804609A91E
:1009B0002F4800F073FD8146B8F1000F05D1B9F161
:1009C000000F02D1294D01261CE0B8F1000F0FD015
:1009D000B9F1000F0CD013990A9801F091F818B1F1
:1009E000224D0A98461C0DE0214D1398461C09E043
:1009F000B8F1000F03D01E4D1398461C02E01B4DAA
:100A00000A98461C1B48206066602021204600F0A2
:100A1000AFF8206200F058FA284600F005FA18B145
:100A200000F0F8F90020BAE700270BE054F827108F
:100A300005EB870000F05AFA18B100F0EBF900203E
:100A4000ADE77F1C092FF1D300F0E4F96946284691
:100A500000F024FD38B1242221466846FFF7C6FB8A
:100A600008B901209BE7002099E70000004000083A
:100A7000004400084154454D10B504465CB160691E
:100A800048B1D4E90501FFF781FE20B109490A48C0
:100A9000FFF7AAFE08B9002010BD6069E060A069F8
:100AA00020610648A0600020E0612046FFF762FF59
:100AB000F2E700000050000800A4000801245713CA
:100AC00010B572B60121124801F086F9104801F004
:100AD00017F905210F4801F09EFA0E4801F058FA67
:100AE00000204FF0E021086148618861002409E09E
:100AF0004FF0FF31084840F82410084840F824100F
:100B0000601CC4B2082CF3D300200549086010BD56
:100B1000000400400038014080E100E080E200E095
:100B200008ED00E030B503460C4600210BB900206B
:100B300030BD002218E0985C81EA002100250FE01A
:100B400001F4004028B141F2210080EA410080B266
:100B500003E04FF6FF7000EA41000146681CC5B291
:100B6000082DEDD3501C82B2A242E4DB0846DFE739
:100B700030B503460C464FF0FF31002211E0985C7F
:100B8000414000250AE001F0010018B1074880EA61
:100B9000510000E048080146681CC5B2082DF2D398
:100BA000521CA242EBD3C84330BD00002083B8EDF5
:100BB0004FF0E020006920F004004FF0E0210861D0
:100BC000094800680949B0FBF1F009490870084676
:100BD000007800EB4001C1EBC0104FF6FF7101EA55
:100BE000C0000449088070470000002000127A000D
:100BF000200000202200002030B504460C48008868
:100C00006FF07F41B1FBF0F507E04FF47A7105FB1F
:100C100001F000F00FF8601B84B2AC42F5D82CB1A3
:100C20004FF47A7104FB01F000F004F830BD0000CD
:100C3000220000200146114A12784A434FF0E02377
:100C40005A6100229A611A46126942F001021A6141
:100C500000BF4FF0E022106900F001021AB100F469
:100C60008032002AF5D04FF0E022126922F0010212
:100C70004FF0E0231A6100229A61704720000020A3
:100C800010B54FF0FF3245F2FC310248FFF70AFE83
:100C900010BD00000050000810B504460CB900203B
:100CA00010BD2046FFF710FD28B12046FFF71EFDBE
:100CB00008B90020F4E70748A0602046FFF75AFE75
:100CC00008B90020ECE701F06DFB032000F020FFE5
:100CD0000120E5E70424571301461848407818B16D
:100CE00016484078032805D1012901D18520704795
:100CF0000020FCE71148407801280ED1012901D1DC
:100D00008520F4E7022902D140F20540EFE70429EB
:100D100001D10120EBE70020E9E7084840780228EC
:100D200009D1042901D10120E1E7012901D1852060
:100D3000DDE70020DBE70020D9E700000400002009
:100D400010B504460CB9002010BD2046FFF7CEFCBC
:100D500038B12046FFF7B8FC18B92046FFF78CFEE3
:100D6000F2E72046FFF7B0FC38B10548A06000204C
:100D7000E0612046FFF7FEFDE6E70020E4E7000023
:100D80000124571310B5024609B9002010BD0E48C2
:100D9000824205D30D48824202D20B4B04460AE040
:100DA0000A48824205D30A48824202D2074B0446CF
:100DB00001E00020EAE79A4204D3A01A884201D356
:100DC0000120E3E70020E1E70050000800A400084C
:100DD00000F8000870B504460D464FF4702000F08E
:100DE00049F806468EB90A48006940F001000849F2
:100DF000086125804FF4702000F03CF80646044856
:100E0000006920F0010002490861304670BD000011
:100E1000002002400348006940F080000149086159
:100E2000704700000020024070B504464FF4702067
:100E300000F020F80546C5B90D48006940F00200F1
:100E40000B49086108464461006940F040000861B0
:100E500000BF00BF4FF4702000F00CF805460448B6
:100E6000006920F0020002490861284670BD0000B8
:100E70000020024070B50546012400BF00F00CF8C8
:100E800004466D1E012C01D1002DF7D1012C00D19B
:100E90000424204670BD000000200A49C96801F002
:100EA000010109B101200CE00649C96801F01001F7
:100EB00009B1032005E00349C96801F0040101B14B
:100EC00002207047002002400548006900F08000C1
:100ED00020B1044802494860034848607047000058
:100EE0000020024023016745AB89EFCD70B5044671
:100EF0000D464FF47020FFF7BDFF06468EB90A4835
:100F0000006940F001000849086125604FF4702035
:100F1000FFF7B0FF06460448006920F001000249CF
:100F20000861304670BD0000002002400148007892
:100F30007047000004000020F0B503461C6A5D6A9B
:100F400000200DE00126864016403EB187000F26A6
:100F5000BE40B443860001FA06F63443461CB0B2E4
:100F60000828EFD3082011E00126864016405EB124
:100F7000A0F10806B7000F26BE40B543A0F1080651
:100F8000B60001FA06F63543461CB0B21028EBD382
:100F90001C625D62F0BDF0B504460D461646216840
:100FA000E268002019E0012787401F409FB14FEA07
:100FB000400C032707FA0CF7B943470005FA07F777
:100FC00039434FEA400C032707FA0CF7BA434700AE
:100FD00006FA07F73A43471CB8B21028E3D321605A
:100FE000E260F0BDF0B50C461546012C03D1466811
:100FF0001E43466002E046689E43466082680021C8
:101000000DE001268E401E403EB14F000326BE403B
:10101000B2434E0005FA06F632434E1CB1B2102917
:10102000EFD38260F0BD10B50446A4B1B4F84C040F
:10103000852810D1207801280DD1607858B96078C2
:10104000A1784840FF2806D18021204601F04DF8C4
:1010500008B1012010BD0020FCE70246032105E095
:10106000505C08B100207047481C81B28329F7D337
:101070000120F8E7F0B589B004461548844211D143
:101080006846FFF73FFC68B112490298884203D0D6
:10109000091D0298884205D12046DDE90312FFF7B9
:1010A00001FC10B9002009B0F0BD2668656805F0A4
:1010B000010008B90020F6E7FFF702FD06480460CA
:1010C0002F4600BF86F3088800BFB8470120EAE733
:1010D000005000080124571308ED00E010B5044645
:1010E0000CB9002010BD0A4B0FCB84E80F00094952
:1010F0002068884201D00020F4E70C212046FFF749
:1011000037FDE168884201D10120EBE70020E9E7E3
:10111000004000085AA5A55A1FB504461CB16846F0
:10112000FFF7DCFF10B9002004B010BD24212046D9
:10113000FFF7FFF80C48206045F2FC30E0604FF00C
:10114000FF30206109490198884205D00848D4E958
:101150000312FFF7A7FB10B90648A06002E005489C
:10116000401EA0600120DFE74154454D0255AA55BD
:1011700000500008022457138AB001240026FFF70C
:1011800017FD4FF4A06000F023FA00F0D3FF01A890
:10119000FFF7B8FB0546CDB9242101A8FFF7C9F830
:1011A000FFF76EFD38B145F2FC300490A01E0590AB
:1011B0008648039002E08548401C039001A8FFF791
:1011C000D9FB01A8FFF79EFB054608E0029830B95D
:1011D00001A8FFF7CFFB01A8FFF794FB054655B91F
:1011E000242101A8FFF7A5F87848C01C039001A8A6
:1011F000FFF752FD84E075494942039808440528E9
:101200006ED2DFE800F00331323E450001A8FFF75F
:101210005BFA18B1012000F07BFC24E0FFF730FD01
:1012200070B145F2FC3004904FF0FF300590002083
:10123000089001A8FFF79EFB012000F069FC12E076
:1012400001A8FFF77DFD18B1012000F061FC0AE064
:1012500001A800F01BFA18B101A8FFF71DFD02E07C
:1012600001A8FFF719FD4AE000BF01A800F00EFA3F
:1012700018B101A8FFF710FD02E001A8FFF70CFD6F
:101280003DE001A800F0FEFB01A8FFF705FD36E0F8
:1012900001A8FFF719FA10B1089803280ED301A886
:1012A000FFF74EFD18B1012000F032FC17E047486F
:1012B000C01C039001A8FFF7EFFC10E00898401C49
:1012C000089001A8FFF756FB18B1012000F020FCA0
:1012D00005E03E48C01C039001A8FFF7DDFC0EE0CE
:1012E0003A48401C039001A800F0D0F918B101A8B9
:1012F000FFF7D2FC02E001A8FFF7CEFC00BF00BF61
:1013000063E0FFF713FE012806D0022811D003285E
:1013100031D0042857D14FE04FF47A70FFF76CFCBE
:101320000CB1601E84B214B9022000F0F1FB00265B
:101330004AE02748FFF79EFEE0B901A8FFF7E2FA6E
:1013400040B101A8FFF7FCFC20B10124012000F00E
:10135000DFFB0FE001A8FFF7D5FA28B11B48C01C3E
:10136000039001A8FFF706FB01F01CF8032000F032
:10137000CFFB002628E01748407808B900F0D5FEDA
:101380004FF4FA70FFF738FC701C86B2C82E12D3E7
:1013900001A8FFF7B7FA40B101A8FFF7D1FC20B1CF
:1013A0000124012000F0B4FB05E000F0FBFF032066
:1013B00000F0AEFB002607E04FF47A70FFF71CFC4C
:1013C00000F014FC00E000BF00BF9AE701245713AF
:1013D000005000080400002070B505460E46104875
:1013E000854202D00F48854202D10EB1152E01D997
:1013F000002070BDFFF768FD00240AE005EB8420A3
:10140000FFF712FD18B1FFF705FD0020F1E7601CA2
:10141000C4B2B442F2DBFFF7FDFC0120E9E70000B3
:101420000050000800A4000870B505460C4616469A
:101430002CB126B1324629462046FEF703FF70BD87
:101440002DE9F04107460E46154646B13DB105F07F
:10145000010020B929463846FFF794FC10B9002056
:10146000BDE8F081FFF730FD002411E0315D601C24
:10147000305C41EA002838194146FFF7ABFC10B94F
:10148000385B404503D0FFF7C5FC0020E8E7A41C0B
:10149000AC42EBD3FFF7BEFC0120E1E770B5054697
:1014A0000C460CB9002070BD242229462046FEF7C8
:1014B000C9FE1049206888420ED1A06800F01CF8CF
:1014C00050B145F2FC31E068884205D86069884235
:1014D00002D8E069032801D90020E4E72021204652
:1014E000FFF746FB216A884201D10120DBE700209B
:1014F000D9E700004154454D0146094881420BD0CF
:10150000401C814208D0401C814205D0401C8142D1
:1015100002D0401C814201D1012070470020FCE72D
:10152000012457132DE9F04103460D4616460024C9
:101530000027A0462448006800F4E060B0F5A06FE2
:1015400015D006DCB0F5407F18D0B0F5806F19D10A
:1015500010E0B0F5C06F06D0B0F5E06F12D10027F3
:101560004FF0040815E001274FF0030811E00227AF
:10157000B8460EE003274FF001080AE004274FF0B9
:10158000000806E04FF4A06000F022F80227B846F9
:1015900000BF00BFC7F1040005FA00F4C8F1040160
:1015A0000F20C8403040044324010848C45403F0CD
:1015B0001F01012088405911890001F1E021C1F883
:1015C0000001BDE8F08100000CED00E000E400E067
:1015D00002490143024A1160704700000000FA0509
:1015E0000CED00E0034A0A400243034B1A60BFF3CC
:1015F0004F8F704780FFFF1F08ED00E070B5024677
:101600000C4600210023002502B10CB9002070BD5A
:1016100001E0481C81B2802902D2505C0028F8D138
:10162000802901D30020F2E7481C81B201E0481C68
:1016300081B2802905D2505C2028F8D0505C09285E
:10164000F5D00DE001251048834201D90020DEE7E6
:10165000505C303803EB830600EB4603481C81B234
:10166000802905D2505C302802DB505C3928E9DD46
:1016700025B11BB145F2FC30834201D90020C6E7F9
:1016800023600120C3E700009999991910B5044619
:101690000CB9002010BD2046FFF716F898B112488B
:1016A000A0602046FFF766F920B110491048FFF707
:1016B0009BF808B90020EDE7E06860612069A0614F
:1016C0000020E06109E02046FFF710F828B900206B
:1016D000E06020616061A061E0610348401CA0609F
:1016E0002046FFF747F9D5E70324571300A4000865
:1016F0000050000810B50246D2F8B804B0F5966F55
:1017000001DB002010BDD2F8B0041154D2F8B004AF
:10171000401C4FF4966390FBF3F403FB1400C2F8F3
:10172000B004D2F8B804401CC2F8B8040120E9E7BC
:1017300010B50246D2F8B80408B9002010BDD2F89E
:10174000B404105C0870D2F8B404401C4FF49663E3
:1017500090FBF3F403FB1400C2F8B404D2F8B8040D
:10176000401EC2F8B8040120E8E70021C0F8B01418
:10177000C0F8B414C0F8B814704700002DE9F04F59
:101780008FB004464FF0000CE046002000220025F8
:101790008146CDF838900021CDF83490CDF83090C6
:1017A000CDF82C900023CDF82890CDF82490CDF8DA
:1017B0002090002600270FF24C2999E8004CD9F818
:1017C0000C90CDE905BECDF810A0CDF81C900FF21D
:1017D000382ADAE9009ACDE9029A0FF22C2ADAE9DE
:1017E000009ACDE9009ADFF82C92D9F80490C9F359
:1017F000810CBCF1000F06D0BCF1010F05D0BCF18B
:10180000020F3FD103E0844A3EE0834A3CE0DFF828
:101810000492D9F80490C9F38343DFF8F891D9F81A
:101820000490C9F3C069CDF82890DDF82890B9F18B
:10183000000F01D0113300E09B1CDFF8D891D9F8DC
:101840000490C9F30049CDF82490DDF82490B9F153
:10185000000F12D0DFF8BC91D9F82C9009F00F09D5
:1018600009F10109CDF82090DFF8ACA1DDF8209056
:10187000BAFBF9F909FB03F203E0DFF8A09103FBDF
:1018800009F201E0644A00BF00BFDFF88891D9F88F
:101890000490C9F303160DF1100919F8067022FA25
:1018A00007F5DFF87091D9F80490C9F302260DF11D
:1018B000080919F8067025FA07F9CDF83890DFF80D
:1018C0005491D9F80490C9F3C2261DF8067025FA80
:1018D00007F1072C72D2DFE804F00406080A0C476F
:1018E0005B00104689E0284687E00E9885E00846B0
:1018F00083E0DFF82091D9F8309009F48079B9F5C8
:10190000807F04D0DFF81891CDF834902AE0DFF81A
:101910000491D9F80490C9F38138B8F1000F09D0C7
:10192000B8F1010F0BD0B8F1020F0DD0B8F1030FD1
:1019300016D110E04FEA5109CDF8349011E04FEA8A
:101940009109CDF834900CE04FF00609B1FBF9F99C
:10195000CDF8349005E04FEAD109CDF8349000E09D
:1019600000BF00BF0D9848E0DFF8A890D9F830908C
:1019700009F04009B9F1400F04D048F21209CDF83E
:10198000309003E04FF40049CDF830900C9834E0EB
:10199000DFF88090D9F8309009F00309B9F1000F11
:1019A00001D10B9126E0DFF86C90D9F8309009F066
:1019B0000309B9F1010F02D10B921BE01CE0DFF823
:1019C0005490D9F8309009F00309B9F1020F04D10D
:1019D0004FF40049CDF82C900CE0DFF83890D9F89E
:1019E000309009F00309B9F1030F03D1DFF8289013
:1019F000CDF82C900B9800E000BF00BF0FB0BDE801
:101A0000F08F00000000000000000000010203044D
:101A1000060708090010024000127A0000093D0084
:101A2000809FD500064A02EB9011096800F01F0361
:101A300001229A401143024B03EB90121160704750
:101A400000100240064A02EB9011096800F01F03E3
:101A500001229A409143024B03EB901211607047B0
:101A600000100240064A02EB9011096800F01F03C3
:101A700001229A401143024B03EB90121160704710
:101A80000010024010B504460CB9002010BD2046DD
:101A9000FEF71AFE90B92046FEF728FE70B10D49F8
:101AA0000D48FEF7A1FE08B90020EFE76069E0608D
:101AB000A06920612046FEF75DFFE7E72046FEF7BC
:101AC00003FE18B92046FEF711FE08B10120DDE73C
:101AD0000020DBE70050000800A4000810B5034612
:101AE0000C4603F0010008B9002010BD23F00101ED
:101AF000A14203D3914201D20120F6E70020F4E78E
:101B00000246501A002801DD012070470020FCE742
:101B1000014908707047000004000020014601F0F0
:101B2000030038B9B1F1005F04D3B1F1202F01D225
:101B3000012070470020FCE708B500200021274A5B
:101B4000126842F48032254B1A6000BF401C234AC1
:101B5000126802F4003111B9B0F5006FF6D11F4AD6
:101B6000126802F4003202B908BD1C4A52681B4BCD
:101B70005A601A4652685A601A4652685A601A46A3
:101B80005268174B1A40154B5A601A46526842F475
:101B900088125A601A46126842F080721A6000BFBA
:101BA0000E4A126802F00072002AF9D00B4A5268FD
:101BB0000092009A22F003020092009A42F0020280
:101BC0000092064B009A5A6000BF044A526802F025
:101BD0000C02082AF9D100BFC6E70000001002403D
:101BE000FFFFC27710B5FFF7A7FF10BD012080F3FC
:101BF000138800BF00BFBFF34F8F0748006800F491
:101C0000E06006490843001D03490860BFF34F8F99
:101C100000BF00BFFEE700000CED00E00000FA0589
:101C20004162704710B504463349601A8C4217D0A0
:101C30000CDCB4F1804F1CD03048204410B3B0F518
:101C4000406F28D0B0F5E05F52D12DE0B0F5A05F35
:101C500033D0B0F5C05F39D0B0F5E05F48D13EE099
:101C600040F20B30FFF7FEFE40F20B30FFF7EAFECA
:101C70003FE04FF48060FFF7F5FE4FF48060FFF720
:101C8000E1FE36E040F20140FFF7ECFE40F2014099
:101C9000FFF7D8FE2DE040F20440FFF7E3FE40F2EC
:101CA0000440FFF7CFFE24E04FF48160FFF7DAFE37
:101CB0004FF48160FFF7C6FE1BE04FF44470FFF75E
:101CC000D1FE4FF44470FFF7BDFE12E040F2113038
:101CD000FFF7C8FE40F21130FFF7B4FE09E040F212
:101CE0001230FFF7BFFE40F21230FFF7ABFE00E00C
:101CF00000BF00BF10BD0000002C014000FCFFBF72
:101D0000016821F0010101607047016841F00101A3
:101D100001607047CA43026170470246106908407B
:101D200008B1012070470020FCE700000A888262A9
:101D3000234A904205D0B0F1804F02D0214A904210
:101D40000BD1026822F07002026002684B881A43CD
:101D5000026002688B881A4302608A68C262184A6D
:101D6000904211D0B0F1804F0ED0164A90420BD065
:101D7000154A904208D0154A904205D0144A904224
:101D800002D0144A904207D1026822F440720260E5
:101D90000268CB881A430260094A904208D00B4A75
:101DA000904205D00A4A904202D00A4A904201D19C
:101DB0000A7B0263426942F00102426170470000FF
:101DC000002C014000040040002000400040014081
:101DD0000044014000480140C2688A43C260704725
:101DE000C2680A43C2607047016821F002010160C5
:101DF0007047000010B5044640F21150FFF712FE84
:101E000040F20E60FFF70EFE4FF4C06201214FF06A
:101E10009040FFF791F84FF4C063002202214FF089
:101E20009040FFF7B8F84FF40073032200214FF001
:101E30009040FFF7D7F8184800F08AF82146164876
:101E400000F03EF80021144800F043F90021124848
:101E500000F02BF90021104800F013F900210E4882
:101E600000F0CDF800210C4800F0BDF804210A482C
:101E700000F013F90821084800F023F9052106486D
:101E800000F0D6F8002201211B20FFF74BFB02488F
:101E900000F083F810BD00000038014010B5044682
:101EA00000BF40F20771054800F08EF80028F8D016
:101EB0002146024800F047F810BD000000380140FC
:101EC0002DE9F04704460D460027B846B9460026DE
:101ED0001948204438B1B0F5744F09D10620FFF7F6
:101EE0004DFC074605E00220FFF748FC074600E0EE
:101EF00000BF00BF206800F4004070B1780000EB24
:101F00005500B0FBF5F64FF6F07006EA0008C6F390
:101F1000420948EA0900E0600CE007EB5500B0FB1D
:101F2000F5F64FF6F07006EA000806F00F0948EAE9
:101F30000900E060BDE8F08700BCFFBF0146486AC9
:101F4000C0F308007047C1F30802826270470000C6
:101F500010B504460D48204458B1B0F5744F11D166
:101F600040F20E30FFF77EFD40F20E30FFF76AFDC3
:101F700009E040F21140FFF775FD40F21140FFF714
:101F800061FD00E000BF00BF10BD000000BCFFBF4E
:101F9000016821F0010101607047016841F0010111
:101FA0000160704710B540F20572914204D1826918
:101FB00042F00802826106E0026A01F01F04012378
:101FC000A3401A43026210BD10B5024602EB911005
:101FD000006801F01F040123A340184008B101204C
:101FE00010BD0020FCE7026822F001020260826856
:101FF00022F40072826082680A438260704702683D
:1020000022F001020260826822F48072826082689B
:102010000A438260704710B500EB9112126801F01C
:102020001F040123A3409A4300EB91131A6010BDD3
:1020300010B500EB9112126801F01F040123A340B8
:102040001A4300EB91131A6010BD70B502460023CD
:102050000024C1F38910105801F01F060125B54076
:1020600000EA050302EB91500068C1F30446012524
:10207000B54000EA050414B10BB1012070BD002089
:10208000FCE7026822F001020260026822F4C062EA
:10209000026002680A4302607047026822F004028C
:1020A000026002680A4302607047026822F001027F
:1020B0000260426822F44052426042680A43426031
:1020C0007047026822F00802026002680A43026058
:1020D0007047026822F001020260026822F4805216
:1020E000026002680A430260704770B504460D46FC
:1020F00024B1802D04D0B5F5806F01D0002070BDD3
:10210000281D215CE81C205C41EA00262946E01CD1
:10211000FEF708FDB04201D10120F0E70020EEE714
:1021200010B50620FFF7BAFE10BD10B54320FFF72B
:10213000B5FE10BD10B54FF41650FFF75BFE00F072
:1021400051F90448FFF711FB00F02CF90120024976
:10215000087010BD740800200400002010B5152080
:10216000FFF79CFE10BD00002DE9F04F89B004463A
:1021700014B1B4F84C0410B909B0BDE8F08F85482B
:10218000407803280AD02046FEF74DFF30B12046A4
:10219000FEF7BAFA0020A4F84C04EDE72578B4F86D
:1021A0004C04012801D9607800E000200746B4F80B
:1021B0004C04022801D9A07800E00020824675482E
:1021C000407830B1012805D0022878D0032877D193
:1021D0008DE0D8E0012D01D0022D65D1012D01D176
:1021E000802001E04FF480600646B4F84C14701D66
:1021F000814208D187EA0A00FF2804D131462046EF
:10220000FFF773FF10B9FFF7A9FFBCE06148007C3E
:10221000012801D1FF2003E05E48007C401EC0B2CF
:1022200083465F4502D1FFF77BFFACE05948007C55
:10223000B8420BD15748C06856498968884205D2D0
:102240005448406830445449884202D9FFF786FF19
:1022500099E0504880684F49C968A0EB0108B04533
:1022600000D9B0464B4932464868E11CFFF7E8F810
:1022700010B9FFF773FF86E046484068304445498F
:1022800048600846C0684044C8600846007CFF2893
:1022900001D1012003E03F48007C401CC0B23D4911
:1022A0000874FFF73DFF14E0042D10D13948C068D1
:1022B00038498968884204D0FFF750FF63E009E09D
:1022C0005EE0FFF74BFF02203249487001E0FFF764
:1022D00045FF58E0042D07D1FFF722FFFFF725FF48
:1022E00003202C49487001E0FFF738FF4BE0012D37
:1022F00043D1B4F84C0485283FD1AFBB87EA0A002C
:10230000FF283AD180212046FFF7EFFE60B3204638
:10231000FEF7A3FE40B31F4881682048FEF7A2FAEB
:1023200081461C484A4681681C48FEF7BBFA38B112
:102330006846FEF7E7FA18B119490298884202D0B8
:10234000FFF70CFF1FE0134880680390CDF8109052
:10235000002007901248401C02906846FEF70AFBD6
:1023600018B9FFF7FBFE0EE007E0FFF7D9FE0020EB
:10237000084948700420087001E0FFF7EFFE02E012
:1023800000F010F800BF00BF0020A4F84C0400BF0C
:10239000F2E600000400002000A40008005000083D
:1023A0000424571300200A4948708870094848607F
:1023B00000208860C8600120087400204874064925
:1023C000A1F84C04054908800549087070470000D1
:1023D0000400002000500008240400201C000020FD
:1023E0001E0000201FB540F20170FFF71BFB1348D1
:1023F000FFF718FC2F20ADF800000020ADF8020018
:10240000ADF8040040F2E73002900020ADF806007D
:102410008DF80C0069460948FFF788FC0748FFF76C
:10242000E3FC01210548FFF7DBFC0122002110201D
:10243000FFF778F80148FFF768FC1FBD0004004073
:102440006024000800000020240000004C01000867
:1024500084240008240000206C1500006801000896
:10246000006CDC02010000000050000800000000C9
:10247000000000000100000000000000000000005B
:042480000000000058
:0400000508000111DD
:00000001FF
