:020000040800F2
:10500000280B0020B5510008116100084B5700081B
:105010009D5B0008375700089D66000800000000EF
:1050200000000000000000000000000039620008DD
:105030003B57000800000000156100083D620008B1
:10504000CF510008CF510008CF510008CF510008C0
:10505000CF510008CF510008CF510008CF510008B0
:10506000CF510008CF510008CF510008CF510008A0
:10507000CF510008CF510008CF510008CF51000890
:10508000C1630008CF51000800000000CF510008A4
:10509000CF510008CF510008CF510008CF51000870
:1050A000CF510008CF510008CF5100082D640008EF
:1050B000CF51000800000000CF51000800000000A0
:1050C000CF51000800000000CF510008CF51000868
:1050D000CF510008CF510008CF5100080000000058
:1050E0000000000000000000CF5100080000000098
:1050F00000000000000000000000000000000000B0
:10510000CF5100080000000000000000CF5100084F
:1051100000F002F800F03FF80AA090E8000C82448A
:105120008344AAF10107DA4501D100F034F8AFF267
:10513000090EBAE80F0013F0010F18BFFB1A43F075
:1051400001031847402E0000602E0000103A24BFD3
:1051500078C878C1FAD8520724BF30C830C144BFDC
:1051600004680C607047000000230024002500261E
:10517000103A28BF78C1FBD8520728BF30C148BFBA
:105180000B607047642900F08380002070471FB5D2
:105190001FBD10B510BD00F0FAF91146FFF7F7FF7B
:1051A00001F0BAFC00F018FA03B4FFF7F2FF03BCF9
:1051B00000F020FA0948804709480047FEE7FEE76B
:1051C000FEE7FEE7FEE7FEE7FEE7FEE7FEE7FEE7B7
:1051D00004480549054A064B704700004162000833
:1051E0001151000828030020280B00202807002068
:1051F000280700200FB41CB50C0007AA009001D0AE
:105200002044401E074B7B4469460190069800F0FD
:105210009EF9002C03D06946002000F0ABF91CBCBD
:105220005DF814FB750300002DE9F0410E460446BD
:10523000002020622046E168884730B3252805D049
:10524000D4E901219047206A401CF2E7E16820463A
:1052500000278847050018D0A5F14100192802D879
:1052600020354FF400673246294620462760FFF775
:1052700089FF40B1012804D0F61D26F00706083644
:10528000D8E7361DD6E72846DAE7206ABDE8F08180
:105290002DE9F0410646002410687529314616A50F
:1052A00010D0AFF30080002802DA404213A507E0D7
:1052B00031688A0701D512A502E0490704D511A576
:1052C000012401E0AFF3008000210A2206F1240747
:1052D00009E0B0FBF2FCB0FBF2F302FB1C00303043
:1052E00078541846491C0028F3D123462A463046F4
:1052F000BDE8F04100F0CDB8000000002D00000036
:105300002B0000002000000040EA010310B59B07BD
:105310000FD1042A0DD310C808C9121F9C42F8D01F
:1053200020BA19BA884201D9012010BD4FF0FF30D0
:1053300010BD1AB1D30703D0521C07E0002010BDE6
:1053400010F8013B11F8014B1B1B07D110F8013B72
:1053500011F8014B1B1B01D1921EF1D1184610BD53
:1053600010B5431C02E010F8011B71B18107FAD19E
:105370004FF0013202C88C1A8C4314EAC211F9D0E2
:10538000C01A0A0603D0C01E10BDC01A10BD0A0400
:1053900001D0801E10BD0902FCD0401E10BD032AA2
:1053A00040F2308010F0030C00F0158011F8013B42
:1053B000BCF1020F624498BF11F801CB00F8013B29
:1053C00038BF11F8013BA2F1040298BF00F801CBED
:1053D00038BF00F8013B11F0030300F02580083AC4
:1053E000C0F0088051F8043B083A51F804CBA0E81B
:1053F0000810F5E7121D5CBF51F8043B40F8043B70
:10540000AFF30080D20724BF11F8013B11F801CBA4
:1054100048BF11F8012B24BF00F8013B00F801CB75
:1054200048BF00F8012B704710B5203AC0F00B8040
:10543000B1E81850203AA0E81850B1E81850A0E898
:105440001850BFF4F5AF5FEA027C24BFB1E81850F2
:10545000A0E8185044BF18C918C0BDE810405FEA62
:10546000827C24BF51F8043B40F8043B08BF7047DE
:10547000D20728BF31F8023B48BF11F8012B28BFE3
:1054800020F8023B48BF00F8012B70477047704777
:1054900070472DE9F0470D4699469246044600F1C3
:1054A00024080168880604D5E06921F01001216014
:1054B00000E00120A84201DD471B00E00027A169B0
:1054C0007A1902EB0900081AA0612078C00602D4FC
:1054D0002046AFF30080002608E0D4E901211AF845
:1054E00006009047206A401C761C20624E45F4DB83
:1054F0002078C0060AD52046AFF3008006E0D4E944
:10550000012130209047206A401C2062381EA7F1FC
:105510000107F4DC07E0D4E9012118F80500904701
:10552000206A401C2062281EA5F10105F3DC2046FC
:10553000AFF300802078000602D50220BDE8F08796
:105540000120FBE701694A1C02610878704700B539
:105550008FB0CDE901310021059105497944CDE9AC
:10556000031011466846FFF75FFE0FB000BD000054
:10557000E5FFFFFF0A6802F8010B0A607047D1E9F6
:1055800000239A4202D2531C0B601070704775467C
:1055900000F02CF8AE4605006946534620F007009F
:1055A000854618B020B5FFF713FEBDE820404FF048
:1055B00000064FF000074FF000084FF0000B21F0FD
:1055C0000701AC46ACE8C009ACE8C009ACE8C009CA
:1055D000ACE8C0098D46704710B50446AFF30080B3
:1055E0002046BDE81040FFF7DFBD000000487047CF
:1055F000C802002001491820ABBEFEE726000200C9
:10560000704710B5FF2000F02DF80446552C01D14D
:10561000002010BD5521FF2000F065F8FF2000F0AC
:1056200021F80446552C01D10020F2E70120F0E7D3
:1056300010B500F08CF910BD2DE9F04107460C467D
:105640000026002509E036023919491B491E88B297
:1056500000F008F80644681CC5B2A542F3DB3046EA
:10566000BDE8F08170B50446002600F01AFA254620
:10567000E11704EB11610912A02202EB4101C8B24B
:1056800000F0DCF900F049FAE11704EB11610912AE
:10569000A4EB0121C8B200F0D1F900F03EFA00F00D
:1056A00000FAA12000F0CAF900F037FA002000F05B
:1056B00098F9064600F013FA304670BD2DE9F04126
:1056C00005460E461746002409E0E20026FA02F2DB
:1056D000D1B22A1990B200F006F8601CC4B2BC42E4
:1056E000F3DBBDE8F08170B504460E4600F0D9F951
:1056F0002546E11704EB11610912A02202EB4101DA
:10570000C8B200F09BF900F008FAE11704EB116150
:105710000912A4EB0121C8B200F090F900F0FDF9E4
:10572000304600F08BF900F0F8F900F0D8F90A20C3
:1057300001F032F870BD00BFFEE700BFFEE701E0F8
:1057400000BF401E0028FBD1704700BFFEE770B5C8
:10575000002400251AE008214FF0904001F071F973
:105760000A20FFF7ECFF08214FF0904001F067F9A5
:105770000A20FFF7E4FF640004214FF0904001F09D
:1057800062F9012800D1641C681CC5B2182DE2DB47
:1057900008214FF0904001F054F90A20FFF7CFFFA5
:1057A00008214FF0904001F04AF90A20FFF7C7FFA7
:1057B00008214FF0904001F044F90A20FFF7BFFFA5
:1057C00008214FF0904001F03AF90A20FFF7B7FFA7
:1057D00008214FF0904001F034F90A20FFF7AFFFA5
:1057E00008214FF0904001F02AF90A20FFF7A7FFA7
:1057F00084F40004204670BD10B502214020FFF75C
:105800001BFF044644F62060844202D340008442D9
:1058100004D947F638401C49086001E01A48046082
:1058200002213020FFF708FF044641F2883084420D
:1058300003D343F69820844204D942F210701349EE
:10584000086001E0114804600F48006844F62061D8
:10585000884204D30C4800684900884203D947F6BF
:105860003840094908600948006841F28831884297
:1058700005D30648006843F69821884203D942F2CE
:1058800010700249086010BD340000201000002094
:1058900010B50648022201683020FFF70FFF0448C8
:1058A000022201684020FFF709FF10BD1000002010
:1058B0003400002010B540F2115001F071FB0823B4
:1058C000002201214FF0904001F0C5F80823032287
:1058D00000214FF0904001F0E5F808214FF0904092
:1058E00001F0ADF80423012200214FF0904001F0B7
:1058F000B2F804214FF0904001F0A3F80A2000F024
:1059000021FFFFF724FF0A2000F01CFFFFF71FFF15
:1059100010BD10B501214FF0904001F090F801F05A
:10592000B3FB02214FF0904001F089F8022000F013
:1059300051FF01214FF0904001F083F8022000F068
:1059400049FF01214FF0904001F079F810BD10B5EA
:1059500040F2115001F024FB0323012211464FF0C5
:10596000904001F078F803231A4600214FF0904050
:1059700001F098F803214FF0904001F062F81023F5
:10598000002201214FF0904001F065F8102303221E
:1059900000214FF0904001F085F810214FF0904029
:1059A00001F04DF810BD10B501214FF0904001F00D
:1059B00046F801F069FB02214FF0904001F041F8F8
:1059C000022000F007FF01214FF0904001F039F86C
:1059D000022000F0FFFE01214FF0904001F02FF86F
:1059E00010BD70B50546002401F045FB00261BE004
:1059F00001214FF0904001F022F8022000F0EAFE71
:105A000001214FF0904001F01CF86006040E0221C5
:105A10004FF0904001F017F808B1601CC4B20120AB
:105A200000F0D8FE701CC6B2082EE1DB15B9FFF7F6
:105A3000BAFF01E0FFF76DFF204670BD70B5044668
:105A400001F022FB01214FF0904000F0F8FF00250B
:105A500024E004F0800028B102214FF0904000F0D3
:105A6000F0FF04E002214FF0904000F0E8FF6006F4
:105A7000040E022000F0AEFE01214FF0904000F035
:105A8000E0FF022000F0A6FE01214FF0904000F060
:105A9000D6FF022000F09EFE681CC5B2082DD8DBA0
:105AA00070BD10B501F0F0FA02214FF0904000F007
:105AB000C8FF01214FF0904000F0C3FF042000F028
:105AC00089FE02214FF0904000F0B9FF042000F061
:105AD00081FE01214FF0904000F0B1FF10BD10B5E4
:105AE00001F0D2FA01214FF0904000F0A8FF02210E
:105AF0004FF0904000F0A3FF042000F06BFE012166
:105B00004FF0904000F09DFF02214FF0904000F0D8
:105B100098FF042000F05EFE10BD10B5002401F0D7
:105B2000AAFA02214FF0904000F08BFF012000F014
:105B300051FE01214FF0904000F083FF012000F062
:105B400049FE07E0601CC4B2FA2C03DDFFF7C7FF73
:105B5000012010BD02214FF0904000F074FF00289A
:105B6000F0D101214FF0904000F069FF0020F0E7F4
:105B700010B500F01DFF10BD70B505460C4600F0D5
:105B800027FF284601F0F7FCC6B23146204600F058
:105B9000DBFE00F015FF00F00BFF70BD00BFFEE75D
:105BA00070B502460C46FF25FF2309E012F8010BF1
:105BB00080EA05010648405C80EA03050548435C2D
:105BC000201EA4F10106B4B2F0D143EA052070BD55
:105BD000827D0008827E000870B5224890F8690036
:105BE00000B970BD1F4890F86700082806D2002051
:105BF0001C4981F8690081F86700F2E7194890F8BC
:105C00006700801E81B21748801CFFF7C9FF044659
:105C1000144890F86700401E1249891C0A5C881ECF
:105C200090F86700801E085C02EB002086B2B44248
:105C300010D1881E8078891E097888420AD10948C7
:105C4000C578032D02D100F04DF803E0062D01D1F7
:105C500000F0E4F80020034981F8670081F869004A
:105C600000BFBEE7480000202DE9F04106460F4680
:105C700000241B4802782146641C6A30425446F0D6
:105C800080022146641C42542146641C475421462C
:105C9000FFF786FF05462846E91705EB1161C1F3BA
:105CA00007232246641C0E496A318B54E91705EB21
:105CB00011610912A5EB0121CBB22246641C0849EF
:105CC0006A318B54002406E005496A31085D00F012
:105CD000A7F9601C84B2052CF6DBBDE8F08100005A
:105CE000480000202DE9F0414A484179007901EB54
:105CF00000201FFA80F84748C179807901EB002025
:105D000087B2B8F1800F00D22FB902210320FFF72C
:105D1000ABFFBDE8F081C8F1800080B2B84204DA80
:105D200002210320FFF7A0FFF3E72E2F04D9022161
:105D30000320FFF799FFECE700F090FC00253548C1
:105D4000027829466D1C6A304254032229466D1C94
:105D500042547800C11700EB11610912A0EB012138
:105D6000CBB22A466D1C2B496A318B54002623E0A6
:105D700008EB0601284A32F81100C11700EB116147
:105D8000C1F3072329466A1CD5B2224A6A3253540A
:105D900008EB0601204A32F81100C11700EB11612F
:105DA0000912A0EB0121CBB229466A1CD5B2194ACF
:105DB0006A325354701CC6B2BE42D9DB294615481C
:105DC0006A30FFF7EDFE04462046E11704EB11614F
:105DD000C1F3072329466A1CD5B20E4A6A325354CE
:105DE000E11704EB11610912A4EB0121CBB22946A2
:105DF0006A1CD5B2074A6A325354002606E00549A8
:105E00006A31885D00F00CF9701CC6B2AE42F6DB58
:105E100000BF7EE748000020300100202DE9F04758
:105E2000002670484179007901EB002085B26D4869
:105E3000C179807901EB0024802D02DA6A4921F8CA
:105E40001540684802783046711C8EB265496A3147
:105E50000A5406223046711C8EB262496A310A54D5
:105E60002846E91705EB1161C1F307233146721C7F
:105E700096B25C4A6A325354E91705EB1161091274
:105E8000A5EB0121CBB23146721C96B2554A6A325B
:105E90005354C4F307223046711C8EB251496A3103
:105EA0000A543046711C8EB24E496A310C54314648
:105EB0004C486A30FFF774FE07463846F91707EB7F
:105EC0001161C1F307233146721C96B2454A6A320A
:105ED0005354F91707EB11610912A7EB0121CBB25B
:105EE0003146721C96B23F4A6A3253544FF0000852
:105EF00009E03C496A3111F8080000F091F808F116
:105F000001001FFA80F8B045F3DB642000F044FC88
:105F1000182D2CD14FF4165904B90BE0012C02D1E5
:105F20004FF4964906E0022C02D14FF4E13901E02A
:105F30004FF41659204600F0DAFB642000F02CFCE8
:105F4000484600F08BF8642000F026FC00BFBFF349
:105F50004F8F2648006800F4E06025490843001D83
:105F600022490860BFF34F8F00BF00BFFEE7172D27
:105F70000FD154B3642C33D2642000F00DFCA0B2D6
:105F800001F0A6F8642000F007FC16490C704C7074
:105F900026E0152D0CD141F28830844220D343F6FF
:105FA000982084421CD813480460FFF771FC17E066
:105FB000142D0BD144F62060844211D3400084425A
:105FC0000ED80D480460FFF763FC09E0112D07D1DE
:105FD00041F23420844203D1FFF7CAFD01F0B8F941
:105FE000BDE8F08748000020300100200CED00E003
:105FF0000000FA05100000203400002001200749AD
:10600000087048704FF41650C1F8D000002081F895
:106010006800C1F8E00081F8E40070474800002003
:1060200010B5044621460C4801F0F7F900BF40F2D4
:106030000671094801F02DFA0028F8D000BF40F29F
:106040000771054801F025FA0028F8D040F20671E2
:10605000014801F00CFA10BD0038014010B50446AB
:1060600040F2115000F09CFF40F20E6000F098FFEB
:106070004FF4007201214FF0904000F0B1FC4FF45A
:10608000806201214FF0904000F0AAFC4FF4C06301
:10609000002202214FF0904000F0DDFC4FF4C0637D
:1060A000032200214FF0904000F0FCFC40F20E3043
:1060B00000F096FF40F20E3000F082FF134801F02E
:1060C000B1F92146114801F065F900210F4801F0AE
:1060D00046FA00210D4801F02EFA00210B4801F08C
:1060E000F4F90421094801F0FCF90821074801F0FE
:1060F0002EFA064801F0B6F9012202211B2000F019
:106100008FFD0521014801F0D3F910BD0038014091
:1061100000BFFEE700BFFEE72DE9F04104214FF08C
:10612000904000F090FC08B1BDE8F081394800785B
:10613000002866D0FFF70BFB850A284601F066FCB5
:1061400004464FF08C41204601F074FD23D8002016
:106150003149087031480078401CC0B22F4908709E
:10616000012815DD2E49086801F050FC06464FF065
:106170008C41204601F090FD07462A4901F08EFC33
:106180000546314601F060FB04462748046012E0F2
:10619000254804680FE000241F480078401CC0B266
:1061A0001D490870012804DD00BF00201E49086059
:1061B00001E01D4804681D49086801F027FC0546F8
:1061C0001849204601F06AFC0646294601F03CFBCE
:1061D000174908600868174901F02CFD02D21548DC
:1061E000134908600B480078401CC0B20949087088
:1061F00003280DDD00200870084908700649087062
:1062000006E004480078401C02490870FFF79FFA36
:1062100000BF89E7060000200500002004000020E0
:106220003400002000401C46080000201000002020
:10623000180000200000FA4400BFFEE7704700008D
:106240001CB54448006840F001004249086000BFA6
:106250004048006800F002000028F9D03D4840683E
:1062600000F00C00082838D100BF0020019002E0A7
:106270000198401C019001985028F9D33548406896
:106280000090009820F0F0000090009840F080000E
:1062900000903049009848600020019002E0019889
:1062A000401C019001985028F9D32A48406800907A
:1062B000009820F0F0000090009840F090000090CE
:1062C0002449009848600020019002E00198401C99
:1062D000019001985028F9D300BF1E48406820F073
:1062E00003001C494860642000F0E8F91948006880
:1062F000194908401749086008464068174908408E
:1063000014494860084640681549084011494860EA
:106310000846406820F4400048600846C06A20F003
:106320000F00C8620846006B40F2431188430949D8
:1063300008630846406B20F0010048630020886035
:1063400000F024FF4FF4A0414FF0006000F0C8FCC3
:106350001CBD000000100240FFFFF2FE0C00FF0811
:10636000FFFFC0F77FB504460D4640F2017000F014
:1063700017FE124800F00EFFADF800500020ADF8F7
:106380000200ADF804000294ADF806008DF80C0090
:1063900069460A4800F072FF0121084800F0C8FF72
:1063A0000121064800F0C0FF044800F061FF03220D
:1063B0000221102000F034FC7FBD000000040040EA
:1063C00010B50121174800F0B6FF48B30121154868
:1063D00000F0AEFF144890F8680088B1124890F8B9
:1063E0006600401C104981F86600084690F8660077
:1063F0000C2805DB002081F86800012081F8690085
:106400000948D0F8E000401C0749C1F8E000084600
:10641000D0F8E000B0F57A7F02DD012081F8E400D9
:1064200010BD0000000400404800002010B540F2FC
:1064300005711E4801F02DF8A8B31C4800F0E8FFD4
:10644000C4B21B4890F86900012800D110BD18485B
:1064500090F8670028B916484078A04201D004B1EE
:10646000F4E7134890F86700642806DB0020104921
:1064700081F8670081F86800E8E70D4890F8671038
:1064800090F86700401C0A4A82F86700901C445448
:106490000020114681F86600084690F86700012840
:1064A00001D181F8680000BFD0E70000003801404A
:1064B0004800002070B54EF69E202C49C883034644
:1064C0002BA232212D48FEF795FE2C4800F0E8F86B
:1064D0004FF4FA7000F060F908E029A000F0E0F84D
:1064E0004FF47A7000F058F9FFF742FBFFF789F894
:1064F0000028F2D100F0F0F80446022C00D9002464
:10650000012C02D14FF4964006E0022C02D14FF448
:10651000E13001E04FF416501E49C1F8D000134994
:106520000C8600F0C9FD05461A48057045700F48F5
:10653000C5851848037818A232211E48FEF75AFE76
:106540001C4800F0ADF84FF4FA7000F025F923462E
:1065500019A232212448FEF74DFE234800F0A0F88E
:106560004FF4FA7000F018F970BD000030010020FF
:106570006170703A2025640D0A000000300200208E
:10658000454550524F4D206E6F7420666F756E6496
:106590000D0A0000480000204D6F6462757320737F
:1065A0006C61766520616464726573733A2025645A
:1065B0000D0A0000620200204261756420696E6469
:1065C00065783A2025642028303D393630302C203B
:1065D000313D31393230302C20323D31313532309D
:1065E00030290D0A00000000940200207CB51649F5
:1065F00008684FF07C5101F0B9F8054601F0E6F962
:106600001249088012496A46086801A900F008F991
:10661000BDF804000D49C880BDF8000008810A4893
:1066200004686A4601A9204600F0FAF8BDF80400A3
:1066300006494880BDF800008880064800884885E3
:106640000548008808857CBD180000203001002026
:106650000800002010000020340000200D480078C1
:106660000D49C8850B48D0F8D000B0F5964F02D13F
:10667000012008860CE00748D0F8D000B0F5E13FD3
:1066800003D102200449088602E00020024908865E
:1066900070470000480000203001002000BFFEE7E6
:1066A00070B504462046FEF75BFE85B2024A2946D5
:1066B000204600F01EFF70BD0038014008B50021E3
:1066C000009102E00099491C009100EB8001009AC2
:1066D000B2EB410FF6D308BD10B52020FEF7C2FF84
:1066E0000446022C01D9002010BD2046FCE710B55D
:1066F0000446022C00D90024E1B22020FEF7F3FF6B
:1067000010BD000030B503460C464FF0FF310022AB
:1067100011E0985C414000250AE001F0010018B149
:10672000074880EA510000E048080146681CC5B2ED
:10673000082DF2D3521CA242EBD3C84330BD000057
:106740002083B8ED10B50446A0B200F025F810BDC6
:106750004FF0E020006920F004004FF0E0210861D4
:10676000094800680949B0FBF1F00949087008467A
:10677000007800EB4001C1EBC0104FF6FF7101EA59
:10678000C0000449088070470000002000127A0011
:10679000300000203200002030B504460C4800884C
:1067A0006FF07F41B1FBF0F507E04FF47A7105FB24
:1067B00001F000F00FF8601B84B2AC42F5D82CB1A8
:1067C0004FF47A7104FB01F000F004F830BD0000D2
:1067D000320000200146114A12784A434FF0E0236C
:1067E0005A6100229A611A46126942F001021A6146
:1067F00000BF4FF0E022106900F001021AB100F46E
:106800008032002AF5D04FF0E022126922F0010216
:106810004FF0E0231A6100229A6170473000002097
:1068200008B50090009B1B0C0B80009B138008BDDB
:106830000348006940F0800001490861704700008A
:106840000020024070B504464FF4702000F020F89C
:106850000546C5B90D48006940F002000B490861C2
:1068600008464461006940F04000086100BF00BF75
:106870004FF4702000F00CF805460448006920F041
:10688000020002490861284670BD00000020024055
:1068900070B50546012400BF00F00CF804466D1EDB
:1068A000012C01D1002DF7D1012C00D10424204668
:1068B00070BD000000200A49C96801F0010109B15A
:1068C00001200CE00649C96801F0100109B103205C
:1068D00005E00349C96801F0040101B102207047D5
:1068E000002002400548006900F0800020B1044803
:1068F0000249486003484860704700000020024099
:1069000023016745AB89EFCD70B504460D464FF4C2
:106910007020FFF7BDFF06468EB90A48006940F0B7
:1069200001000849086125604FF47020FFF7B0FFAF
:1069300006460448006920F001000249086130461B
:1069400070BD00000020024030B502460B46164CD8
:10695000002145F25550154D286000BF1348C0680E
:1069600000F00101601E041E01D00029F6D109B11A
:10697000002030BD0D4843600B4C00BF0B48C06881
:1069800000F00201601E041E01D00029F6D109B1F9
:106990000020EEE7C2F30B00044DA8604AF6AA20DF
:1069A00028600120E5E70000FFFF0F0000300040F5
:1069B0004AF6AA20014908607047000000300040F4
:1069C0004CF6CC40014908607047000000300040A0
:1069D00045F2555001490860704700000030004002
:1069E000F0B503461C6A5D6A00200DE00126864072
:1069F00016403EB187000F26BE40B443860001FA20
:106A000006F63443461CB0B20828EFD3082011E044
:106A10000126864016405EB1A0F10806B7000F2699
:106A2000BE40B543A0F10806B60001FA06F63543AC
:106A3000461CB0B21028EBD31C625D62F0BD8162CF
:106A400070478161704702461069084008B1012013
:106A500070470020FCE7F0B504460D461646216855
:106A6000E268002019E0012787401F409FB14FEAEC
:106A7000400C032707FA0CF7B943470005FA07F75C
:106A800039434FEA400C032707FA0CF7BA43470093
:106A900006FA07F73A43471CB8B21028E3D321603F
:106AA000E260F0BDF0B50C461546012C03D14668F6
:106AB0001E43466002E046689E43466082680021AD
:106AC0000DE001268E401E403EB14F000326BE4021
:106AD000B2434E0005FA06F632434E1CB1B21029FD
:106AE000EFD38260F0BD000000B589B0684600F0C9
:106AF00087FA18B107490298884201D009B000BD51
:106B00000448001F029000200790684600F08CFDAA
:106B100000BFF3E7052457131C481D490860FFF721
:106B200017FE4FF4A06000F0D1F862B640F62811CD
:106B30000620FFF721F84FF4FA70FFF72DFE4FF40F
:106B40001650FFF78BFA2F2140F2E730FFF70AFCCF
:106B5000FFF754FAFEF76CFDFFF7ACFCFEF74CFEB6
:106B6000FEF7A8FE0B49D1F8D000FFF777FA6420B2
:106B7000FFF712FEFFF7B8FF07E0FEF7F9FFFFF798
:106B8000CBFAFFF733FDFFF727F8F6E700500008D0
:106B900008ED00E04800002070B505460C460CB931
:106BA000002070BD242229462046FEF7F8FB10493C
:106BB000206888420ED1A06800F01CF850B145F260
:106BC000FC31E068884205D86069884202D8E069F3
:106BD000032801D90020E4E720212046FFF792FD99
:106BE000216A884201D10120DBE70020D9E70000BB
:106BF0004154454D0146094881420BD0401C814219
:106C000008D0401C814205D0401C814202D0401C6B
:106C1000814201D1012070470020FCE70124571375
:106C20002DE9F04103460D46164600240027A046F4
:106C30002448006800F4E060B0F5A06F15D006DCD1
:106C4000B0F5407F18D0B0F5806F19D110E0B0F5E5
:106C5000C06F06D0B0F5E06F12D100274FF00408E6
:106C600015E001274FF0030811E00227B8460EE0B7
:106C700003274FF001080AE004274FF0000806E060
:106C80004FF4A06000F022F80227B84600BF00BF12
:106C9000C7F1040005FA00F4C8F104010F20C84050
:106CA0003040044324010848C45403F01F0101206C
:106CB00088405911890001F1E021C1F80001BDE8C7
:106CC000F08100000CED00E000E400E00249014327
:106CD000024A1160704700000000FA050CED00E068
:106CE000034A0A400243034B1A60BFF34F8F7047B9
:106CF00080FFFF1F08ED00E02DE9F04F8FB0044644
:106D00004FF0000CE0460020002200258146CDF81F
:106D100038900021CDF83490CDF83090CDF82C90FB
:106D20000023CDF82890CDF82490CDF820900026AF
:106D300000270FF24C2999E8004CD9F80C90CDE9C6
:106D400005BECDF810A0CDF81C900FF2382ADAE974
:106D5000009ACDE9029A0FF22C2ADAE9009ACDE9DD
:106D6000009ADFF82C92D9F80490C9F3810CBCF199
:106D7000000F06D0BCF1010F05D0BCF1020F3FD1CE
:106D800003E0844A3EE0834A3CE0DFF80492D9F80D
:106D90000490C9F38343DFF8F891D9F80490C9F35C
:106DA000C069CDF82890DDF82890B9F1000F01D026
:106DB000113300E09B1CDFF8D891D9F80490C9F397
:106DC0000049CDF82490DDF82490B9F1000F12D0DD
:106DD000DFF8BC91D9F82C9009F00F0909F10109ED
:106DE000CDF82090DFF8ACA1DDF82090BAFBF9F9DE
:106DF00009FB03F203E0DFF8A09103FB09F201E0D5
:106E0000644A00BF00BFDFF88891D9F80490C9F345
:106E100003160DF1100919F8067022FA07F5DFF8CC
:106E20007091D9F80490C9F302260DF1080919F8F8
:106E3000067025FA07F9CDF83890DFF85491D9F8A3
:106E40000490C9F3C2261DF8067025FA07F1072C35
:106E500072D2DFE804F00406080A0C475B00104613
:106E600089E0284687E00E9885E0084683E0DFF851
:106E70002091D9F8309009F48079B9F5807F04D059
:106E8000DFF81891CDF834902AE0DFF80491D9F8B2
:106E90000490C9F38138B8F1000F09D0B8F1010F9F
:106EA0000BD0B8F1020F0DD0B8F1030F16D110E0DE
:106EB0004FEA5109CDF8349011E04FEA9109CDF82D
:106EC00034900CE04FF00609B1FBF9F9CDF834909D
:106ED00005E04FEAD109CDF8349000E000BF00BFD3
:106EE0000D9848E0DFF8A890D9F8309009F04009F3
:106EF000B9F1400F04D048F21209CDF8309003E008
:106F00004FF40049CDF830900C9834E0DFF88090D1
:106F1000D9F8309009F00309B9F1000F01D10B91B4
:106F200026E0DFF86C90D9F8309009F00309B9F148
:106F3000010F02D10B921BE01CE0DFF85490D9F84E
:106F4000309009F00309B9F1020F04D14FF4004960
:106F5000CDF82C900CE0DFF83890D9F8309009F09B
:106F60000309B9F1030F03D1DFF82890CDF82C9075
:106F70000B9800E000BF00BF0FB0BDE8F08F00002D
:106F800000000000000000000102030406070809D9
:106F90000010024000127A0000093D00809FD500D9
:106FA000064A02EB9011096800F01F0301229A4083
:106FB0001143024B03EB9012116070470010024026
:106FC000064A02EB9011096800F01F0301229A4063
:106FD0009143024B03EB9012116070470010024086
:106FE000064A02EB9011096800F01F0301229A4043
:106FF0001143024B03EB90121160704700100240E6
:10700000F0B593B0064616B9002013B0F0BD0AA93A
:107010001448FFF7C1FD044601A91348FFF7BCFD62
:10702000054614B90DB90020EFE77CB175B10B9995
:10703000029800F039F808B101A800E00AA8074654
:10704000242239463046FEF7EFF908E00CB10AA8D1
:1070500000E001A8014624223046FEF7E5F90120B0
:10706000D3E70000004000080044000800F00101E0
:1070700001B962B6704710B50223012200214FF01A
:107080009040FFF7E8FC10BD10B50223002201215B
:107090004FF09040FFF7DFFC0223032200214FF066
:1070A0009040FFF7FFFC10BD0246501A002801DD9A
:1070B000012070470020FCE710B51020FEF7D2FA3F
:1070C00004460CB1642C01DB012010BD2046FCE716
:1070D00010B50446E1B21020FEF705FB10BD00001C
:1070E00008B500200021274A126842F48032254B5F
:1070F0001A6000BF401C234A126802F4003111B923
:10710000B0F5006FF6D11F4A126802F4003202B9DE
:1071100008BD1C4A52681B4B5A601A4652685A6096
:107120001A4652685A601A465268174B1A40154B55
:107130005A601A46526842F488125A601A46126817
:1071400042F080721A6000BF0E4A126802F00072AC
:10715000002AF9D00B4A52680092009A22F00302EA
:107160000092009A42F002020092064B009A5A6086
:1071700000BF044A526802F00C02082AF9D100BF8D
:10718000C6E7000000100240FFFFC27710B5FFF70E
:10719000A7FF10BD10B504463349601A8C4217D0C2
:1071A0000CDCB4F1804F1CD03048204410B3B0F553
:1071B000406F28D0B0F5E05F52D12DE0B0F5A05F70
:1071C00033D0B0F5C05F39D0B0F5E05F48D13EE0D4
:1071D00040F20B30FFF704FF40F20B30FFF7F0FEF8
:1071E0003FE04FF48060FFF7FBFE4FF48060FFF755
:1071F000E7FE36E040F20140FFF7F2FE40F20140C8
:10720000FFF7DEFE2DE040F20440FFF7E9FE40F21A
:107210000440FFF7D5FE24E04FF48160FFF7E0FE65
:107220004FF48160FFF7CCFE1BE04FF44470FFF792
:10723000D7FE4FF44470FFF7C3FE12E040F2113066
:10724000FFF7CEFE40F21130FFF7BAFE09E040F240
:107250001230FFF7C5FE40F21230FFF7B1FE00E03A
:1072600000BF00BF10BD0000002C014000FCFFBFAC
:10727000016841F001010160704700000A888262E4
:10728000234A904205D0B0F1804F02D0214A90426B
:107290000BD1026822F07002026002684B881A4328
:1072A000026002688B881A4302608A68C262184AC8
:1072B000904211D0B0F1804F0ED0164A90420BD0C0
:1072C000154A904208D0154A904205D0144A90427F
:1072D00002D0144A904207D1026822F44072026040
:1072E0000268CB881A430260094A904208D00B4AD0
:1072F000904205D00A4A904202D00A4A904201D1F7
:107300000A7B0263426942F0010242617047000059
:10731000002C0140000400400020004000400140DB
:107320000044014000480140C2680A43C2607047FF
:10733000CA43026170470246D06800EA010310693F
:10734000084010B10BB1012070470020FCE700009D
:1073500010B5FEF70DFC00F0F5F900B910BDFEF711
:1073600007FC0A20FFF718FA72B600BFBFF34F8F71
:107370000648006800F4E06005490843001D034921
:107380000860BFF34F8F00BF00BFFEE70CED00E0C9
:107390000000FA052DE9F04704460D460027B846DF
:1073A000B94600261948204438B1B0F5744F09D1C8
:1073B0000620FFF7A1FC074605E00220FFF79CFC32
:1073C000074600E000BF00BF206800F4004070B135
:1073D000780000EB5500B0FBF5F64FF6F07006EACA
:1073E0000008C6F3420948EA0900E0600CE007EB38
:1073F0005500B0FBF5F64FF6F07006EA000806F00F
:107400000F0948EA0900E060BDE8F08700BCFFBF53
:107410000146486AC0F308007047C1F3080282625F
:107420007047000010B504460D48204458B1B0F52F
:10743000744F11D140F20E30FFF7D2FD40F20E3002
:10744000FFF7BEFD09E040F21140FFF7C9FD40F231
:107450001140FFF7B5FD00E000BF00BF10BD000008
:1074600000BCFFBF016841F001010160704710B529
:1074700040F20572914204D1826942F008028261B1
:1074800006E0026A01F01F040123A3401A430262CE
:1074900010BD10B5024602EB9110006801F01F0408
:1074A0000123A340184008B1012010BD0020FCE7D3
:1074B00010B500EB9112126801F01F040123A340E4
:1074C0001A4300EB91131A6010BD026822F001020A
:1074D0000260026822F4C062026002680A4302602D
:1074E0007047026822F00402026002680A430260E8
:1074F00070472DE9F04105460E46174600240DE081
:1075000000BF40F207713846FFF7C3FF0028F8D0EC
:10751000295D3846FFF781FF601C84B2B442EFDB7F
:1075200000BF40F206713846FFF7B3FF0028F8D0DD
:107530000020BDE8F081026822F00102026042688A
:1075400022F44052426042680A4342607047026837
:1075500022F00802026002680A4302607047026873
:1075600022F001020260026822F480520260026886
:107570000A4302607047014601F00700062810D256
:10758000DFE800F0030507090B0D0020704701201C
:10759000FCE70220FAE70320F8E70420F6E70520DD
:1075A000F4E70620F2E700007FB51C4800901C4875
:1075B0000190002002900C216846FFF7A3F8039089
:1075C000FEF7D6FA00BFEFF31080054672B6FFF75C
:1075D00089F91448FFF736F900B117E000240BE0F1
:1075E0005DF824100F4A02EB8400FFF78DF900B11B
:1075F0000CE0FEF7BDFA641C042CF1D3FFF718F978
:107600002846FFF733FD012004B070BDFFF710F9E5
:107610002846FFF72BFD0020F6E700005AA5A55AE3
:107620000255AA55004000082DE9F0479CB00446D9
:1076300074B1A068FFF7DEFA50B145F2FC31E068A2
:10764000884205D86069884202D8E069032803D9D6
:1076500000201CB0BDE8F08713A93748FFF79CFA5B
:1076600080460AA93548FFF797FA8146B8F1000F1E
:1076700005D1B9F1000F02D12F4D01261CE0B8F160
:10768000000F0FD0B9F1000F0CD014990B98FFF731
:107690000BFD18B1284D0B98461C0DE0274D149892
:1076A000461C09E0B8F1000F03D0244D1498461C85
:1076B00002E0214D0B98461C214820606660202185
:1076C0002046FFF71FF82062FEF752FA00BFEFF3E3
:1076D0001080824672B6FFF705F92846FFF7B2F828
:1076E00000B122E000270AE054F8271005EB8700DC
:1076F000FFF70AF900B118E0FEF73AFA7F1C092FEC
:10770000F2D3FFF795F85046FFF7B0FC01A92846E1
:10771000FFF742FA38B12422214601A8FDF7F4FD13
:1077200008B9012095E7002093E7FFF781F850465C
:10773000FFF79CFC00208CE7004000080044000894
:107740004154454D00B589B06846FFF759FC18B95A
:10775000FFF72AFF09B000BD034802900020079000
:107760006846FFF761FFF5E70224571390EA010F1F
:1077700048BF81F0004100F19682421A3CBF801A56
:1077800089184FEAD0524FF07F4C1CEA410FA2EB10
:10779000D15318BF9CEA026F00F03B804FF0004CC1
:1077A0004CEA00204CEA012121FA03FC10EB0C0CFE
:1077B0001ED202F1FF325FEA1C2040EBC25038BFFC
:1077C00070471CF07F0F4FEA400C18BFBCF17F4F91
:1077D00038BF7047C3F12003994008BF20F0010073
:1077E000BCF17F4F38BF7047A0F1C04000F01DBA18
:1077F0004FEA3C00000A40EBC25028BF1CF0FF0FCC
:107800004FEA400CE6D018BFBCF17F4F38BF70473D
:10781000EAE79CEA026F05D010EA5C0F08BF00F0AF
:107820000040704710B500F0BAF900BF64FBBE3EDF
:10783000401058BFC0F14040491058BFC1F140410D
:107840008142EFF3008070474FF47F0C1CEAD012A6
:107850001EBF1CEAD11392EA0C0F93EA0C0F00F042
:10786000858090EA010F48BF42F4807240F4000C1A
:1078700041F400002CF07F4120F07F4000B58142B0
:10788000A2EB03020FF2081CACEB504EC0F100005B
:107890009EF800E04FEA4E0E00FB0EFC38BF490098
:1078A0004FEA2C1C02F5FA020CFB0EF34FEACE1E37
:1078B0004FEA112C4FEAC1210EEB635E42EB2242EC
:1078C0000EFB0CFC4FEA1C5300FB03114FEA112C7A
:1078D0004FEA01310EFB0CFC4FEADC4C00FB0C11B3
:1078E000C14228BF09184CEB03335DF804EB10EBE1
:1078F000410143EBC250B2F57C0F38BF704729D528
:1079000012F0F00F1CBF00F1C04000F000407047C3
:10791000008182838485868788898B8C8D8E8F9168
:107920009293959697999A9C9D9FA0A2A3A5A7A88C
:10793000AAACAEB0B2B3B5B7B9BCBEC0C2C5C7C9B8
:10794000CCCED1D4D7D9DCDFE2E6E9ECF0F3F7FA1C
:10795000FE0000004FEA400C0CF1807CBCF17E4F31
:1079600028BF7047B0F1C04000F05FB990EA010F46
:107970000CEAD11348BF42F48072624538BF6345B8
:1079800007D213F47F0F16D080EA010000F0004008
:10799000704710B500F003F9097EFC3E00F005B811
:1079A00080EA010000F00040704780EA010000F02A
:1079B000004000F03AB912F47F0F04BF024870474C
:1079C00080EA010000F031B90000C07FC10DD1F1A3
:1079D0009E0206DB4FEA002343F0004323FA02F045
:1079E0007047004207D54FEA4001B1F1FE4F02D285
:1079F0004FF00000704710B500F0D1F84992248094
:107A0000002070476FEA200070470000B0FA80F352
:107A100010FA03F2C3F19D030AD0D90501EB12203D
:107A2000530638BF704700F1010008BF20F0010085
:107A30007047000050EA010C00F113801CF5000FA4
:107A400058BFBCF5000F01D48842704707D710F526
:107A5000000F58BF11F5000F15D4884270478942B6
:107A600070471CF5000F04D5BCF5000FF7D5814217
:107A700070474FF0807C1CEB400F38BF1CEB410F70
:107A800001D28142704710B500F089F89224490074
:107A90004FF000504FF08051FFF7CABE4FF47F0CFB
:107AA0001CEAD0121EBF1CEAD11392EA0C0F93EA13
:107AB0000C0F00F0478090EA010F48BF42F480723B
:107AC0004FF0004C4CEA00204CEA012102EB03028B
:107AD000A0FB0113A2F50002002918BF43F0010327
:107AE0005B0028BF4FEA330342EB22425FEA132CCC
:107AF0004CEBC2502EBFBCEB436FB2F57C0F70470E
:107B00004FEA036CBCF1004F08BF20F00100B2F552
:107B10007C0F38BF70470BD582F0FF0212F5803F13
:107B2000C8BF704700F1C040D8BF00F000407047A8
:107B300000F5000C5FEA4C0C48BF7047B0F1C04044
:107B400000F073B890EA010F0CEAD11348BF42F479
:107B50008072624538BF634504D280EA010000F0BC
:107B60000040704710B500F01AF800BF8900013ED0
:107B700000F007B800F009B85FEA410C5FEA1C6C3E
:107B800008D080EA010000F050B85FEA400C5FEADC
:107B90001C6CF6D14FF00040A0F5800070470EF14C
:107BA000020E2EF0030E5EF8044B244204D44FEA7A
:107BB0004102B2F17F4F11D84FEA4003B3F17F4F3A
:107BC0000CD80ED14FEAD07CB2F17F4F0CEB4C0CAD
:107BD0000CF1020C08BF4CEBD17C04E04FF0080C18
:107BE00001E04FEAD17C0CEB4C0324FA03F404F0DF
:107BF0000704B4F1040C06D20EEB840CBDE810406F
:107C00004CF0010C6047DFE80CF0070802024FF06F
:107C10000040A0F5800010BD0846420018BFD2F118
:107C2000807288BF00F0004010BDFF2141EAD050B3
:107C3000C005704751EA000C00F113801CF5000FDD
:107C400058BFBCF5000F01D48142704707D711F52A
:107C5000000F58BF10F5000F15D4814270478942BC
:107C600070471CF5000F04D5BCF5000FF7D588420E
:107C700070474FF0807C1CEB410F38BF1CEB400F6E
:107C800001D28842704780EA010081EA000180EA5F
:107C90000100FFF7F8BE000090EA010F48BF81F035
:107CA00000413FF56AAD421A04D882F00042A0EBD1
:107CB000020011444FEAD0524FF07F4C1CEA410FB2
:107CC000A2EBD15318BF9CEA026F4AD04FF0004C90
:107CD0004CEA00204CEA012121FA03FCB0EB0C0C29
:107CE0000FD412F0FE0F36D05FEA4C001DD5001203
:107CF00040EBC25038BF70471CF03F0F18BF7047B1
:107D00000BE0A2F101025FEA1C2040EBC25038BF39
:107D100070471CF07F0F18BF7047C3F120039940D4
:107D200014BF401E20F00100704780084FEA122364
:107D300008BF7047B0FA80FCA2EB0C02CCF1280C13
:107D400060FA0CF093EA122F04BF00EBC2507047A8
:107D50004FEAC3707047130A5FEADC1008BF704730
:107D6000F6E79CEA026F04D010EA5C0F08BF00201F
:107D7000704710B5FFF713FF40DFF63E81F000407B
:107D8000704700C1814001C0804101C0804100C1F5
:107D9000814001C0804100C1814000C1814001C0DB
:107DA000804101C0804100C1814000C1814001C0CB
:107DB000804100C1814001C0804101C0804100C1BB
:107DC000814001C0804100C1814000C1814001C0AB
:107DD000804100C1814001C0804101C0804100C19B
:107DE000814000C1814001C0804101C0804100C18B
:107DF000814001C0804100C1814000C1814001C07B
:107E0000804101C0804100C1814000C1814001C06A
:107E1000804100C1814001C0804101C0804100C15A
:107E2000814000C1814001C0804101C0804100C14A
:107E3000814001C0804100C1814000C1814001C03A
:107E4000804100C1814001C0804101C0804100C12A
:107E5000814001C0804100C1814000C1814001C01A
:107E6000804101C0804100C1814000C1814001C00A
:107E7000804100C1814001C0804101C0804100C1FA
:107E8000814000C0C101C30302C2C60607C705C5C1
:107E9000C404CC0C0DCD0FCFCE0E0ACACB0BC90932
:107EA00008C8D81819D91BDBDA1A1EDEDF1FDD1D42
:107EB0001CDC14D4D515D71716D6D21213D311D172
:107EC000D010F03031F133F3F23236F6F737F535C2
:107ED00034F43CFCFD3DFF3F3EFEFA3A3BFB39F9F2
:107EE000F83828E8E929EB2B2AEAEE2E2FEF2DEDC2
:107EF000EC2CE42425E527E7E62622E2E323E12132
:107F000020E0A06061A163A3A26266A6A767A56541
:107F100064A46CACAD6DAF6F6EAEAA6A6BAB69A9B1
:107F2000A86878B8B979BB7B7ABABE7E7FBF7DBDC1
:107F3000BC7CB47475B577B7B67672B2B373B171F1
:107F400070B05090915193535292965657975595C1
:107F500094549C5C5D9D5F9F9E5E5A9A9B5B995971
:107F60005898884849894B8B8A4A4E8E8F4F8D4D41
:107F70004C8C4484854587474686824243834181B1
:107F800080400000A47F00080000002034000000B2
:107F90004C510008D87F000834000020F40A00008B
:107FA00068510008006CDC020000000000000000C6
:107FB00000000000000000000000000000000000C1
:107FC00000000000000000000000000000000000B1
:087FD0000000000000000000A9
:04000005080051118D
:00000001FF
