:020000040800F2
:10500000900A0020AD510008B9610008335500082E
:105010005B5900081F550008AD650008000000003E
:10502000000000000000000000000000D162000845
:105030002355000800000000E5610008D562000863
:10504000C7510008C7510008C7510008C7510008E0
:10505000C7510008C7510008C7510008C7510008D0
:10506000C7510008C7510008C7510008C7510008C0
:10507000C7510008C7510008C7510008C7510008B0
:1050800059640008C751000800000000C75100081B
:10509000C7510008C7510008C7510008C751000890
:1050A000C7510008C7510008C7510008C56400086F
:1050B000C751000800000000C751000800000000B0
:1050C000C751000800000000C7510008C751000880
:1050D000C7510008C7510008C75100080000000070
:1050E0000000000000000000C751000800000000A0
:1050F00000000000000000000000000000000000B0
:10510000C75100080000000000000000C75100085F
:1051100000F002F800F03AF80AA090E8000C82448F
:105120008344AAF10107DA4501D100F02FF8AFF26C
:10513000090EBAE80F0013F0010F18BFFB1A43F075
:1051400001031847042A0000242A0000103A24BF53
:1051500078C878C1FAD8520724BF30C830C144BFDC
:1051600004680C607047000000230024002500261E
:10517000103A28BF78C1FBD8520728BF30C148BFBA
:105180000B6070471FB51FBD10B510BD00F0F3F8E0
:105190001146FFF7F7FF01F04FFC00F011F903B4DF
:1051A000FFF7F2FF03BC00F019F90000094880473F
:1051B00009480047FEE7FEE7FEE7FEE7FEE7FEE7F9
:1051C000FEE7FEE7FEE7FEE704480549054A064B11
:1051D00070470000D96200081151000890020020B9
:1051E000900A0020900600209006002040EA01036B
:1051F00010B59B070FD1042A0DD310C808C9121F80
:105200009C42F8D020BA19BA884201D9012010BDB9
:105210004FF0FF3010BD1AB1D30703D0521C07E086
:10522000002010BD10F8013B11F8014B1B1B07D1EA
:1052300010F8013B11F8014B1B1B01D1921EF1D15B
:10524000184610BD10B5431C02E010F8011B71B1E7
:105250008107FAD14FF0013202C88C1A8C4314EA4C
:10526000C211F9D0C01A0A0603D0C01E10BDC01A60
:1052700010BD0A0401D0801E10BD0902FCD0401EE2
:1052800010BD032A40F2308010F0030C00F01580AE
:1052900011F8013BBCF1020F624498BF11F801CB39
:1052A00000F8013B38BF11F8013BA2F1040298BF9E
:1052B00000F801CB38BF00F8013B11F0030300F008
:1052C0002580083AC0F0088051F8043B083A51F8AC
:1052D00004CBA0E80810F5E7121D5CBF51F8043BB1
:1052E00040F8043BAFF30080D20724BF11F8013B24
:1052F00011F801CB48BF11F8012B24BF00F8013B86
:1053000000F801CB48BF00F8012B704710B5203AD8
:10531000C0F00B80B1E81850203AA0E81850B1E86E
:105320001850A0E81850BFF4F5AF5FEA027C24BF24
:10533000B1E81850A0E8185044BF18C918C0BDE81B
:1053400010405FEA827C24BF51F8043B40F8043BE4
:1053500008BF7047D20728BF31F8023B48BF11F899
:10536000012B28BF20F8023B48BF00F8012B7047F3
:10537000704770477047754600F02CF8AE46050040
:105380006946534620F00700854618B020B5FFF760
:105390001BFFBDE820404FF000064FF000074FF024
:1053A00000084FF0000B21F00701AC46ACE8C00943
:1053B000ACE8C009ACE8C009ACE8C0098D4670474C
:1053C00010B50446AFF300802046BDE81040FFF75B
:1053D000E6BE000000487047300200200149182056
:1053E000ABBEFEE726000200704710B5FF2000F0BC
:1053F0002DF80446552C01D1002010BD5521FF2069
:1054000000F065F8FF2000F021F80446552C01D18A
:105410000020F2E70120F0E710B500F079F910BDA7
:105420002DE9F04107460C460026002509E036022A
:105430003919491B491E88B200F008F80644681C57
:10544000C5B2A542F3DB3046BDE8F08170B5044635
:10545000002600F0FFF92546E11704EB116109125F
:10546000A02202EB4101C8B200F0BEF900F032FA0E
:10547000E11704EB11610912A4EB0121C8B200F09D
:10548000B3F900F027FA00F0E5F9A12000F0ACF93B
:1054900000F020FA002000F077F9064600F0FAF953
:1054A000304670BD2DE9F04105460E4617460024F2
:1054B00009E0E20026FA02F2D1B22A1990B200F015
:1054C00006F8601CC4B2BC42F3DBBDE8F08170B5E5
:1054D00004460E4600F0BEF92546E11704EB1161C3
:1054E0000912A02202EB4101C8B200F07DF900F0E0
:1054F000F1F9E11704EB11610912A4EB0121C8B223
:1055000000F072F900F0E6F9304600F06DF900F0B5
:10551000E1F900F0BFF90A2001F0CEF870BD00BF3C
:10552000FEE700BFFEE701E000BF401E0028FBD100
:10553000704700BFFEE770B5002400251AE0802107
:105540004FF0904001F00DFA0A20FFF7ECFF8021A8
:105550004FF0904001F003FA0A20FFF7E4FF6400E7
:1055600040214FF0904001F0FEF9012800D1641C69
:10557000681CC5B2182DE2DB80214FF0904001F08D
:10558000F0F90A20FFF7CFFF80214FF0904001F0A3
:10559000E6F90A20FFF7C7FF80214FF0904001F0A5
:1055A000E0F90A20FFF7BFFF80214FF0904001F0A3
:1055B000D6F90A20FFF7B7FF80214FF0904001F0A5
:1055C000D0F90A20FFF7AFFF80214FF0904001F0A3
:1055D000C6F90A20FFF7A7FF84F40004204670BD37
:1055E00010B502214020FFF71BFF04461CB14FF607
:1055F000FF70844204D14FF47A701249086001E0D0
:105600001048046002213020FFF70AFF04461CB155
:105610004FF6FF70844204D142F210700A490860CC
:1056200001E0094804600748006818B94FF47A702F
:10563000044908600448006818B942F21070024931
:10564000086010BD340000201000002010B506488E
:10565000022201683020FFF725FF0448022201687A
:105660004020FFF71FFF10BD100000203400002075
:1056700010B540F2115001F06FFC8023002201218F
:105680004FF0904001F077F98023032200214FF082
:10569000904001F097F980214FF0904001F05FF9C0
:1056A0004023012200214FF0904001F064F9402195
:1056B0004FF0904001F055F90A2000F0D3FFFFF7BA
:1056C0003AFF0A2000F0CEFFFFF735FF10BD0000C3
:1056D00010B54FF480610D4801F041F901F0B4FCC0
:1056E0004FF40061094801F03AF9022001F002F894
:1056F0004FF48061054801F034F9022000F0FAFF10
:105700004FF48061014801F02AF910BD00040048FF
:1057100010B540F2125001F01FFC4FF4406301221B
:105720001146084801F027F94FF440630322002195
:10573000044801F047F94FF44061024801F011F9C3
:1057400010BD00000004004810B54FF480610D4802
:1057500001F005F901F078FC4FF40061094801F00F
:1057600000F9022000F0C6FF4FF48061054801F007
:10577000F8F8022000F0BEFF4FF48061014801F00C
:10578000EEF810BD0004004870B50546002401F095
:105790004FFC00261BE04FF48061124801F0DFF857
:1057A000022000F0A7FF4FF480610E4801F0D9F805
:1057B0006006040E4FF400610A4801F0D4F808B105
:1057C000601CC4B2012000F095FF701CC6B2082E08
:1057D000E1DB15B9FFF7B8FF01E0FFF779FF2046DD
:1057E00070BD00000004004870B5044601F02CFCB8
:1057F0004FF48061164801F0B2F8002524E004F06F
:10580000800028B14FF40061114801F0AAF804E0CB
:105810004FF400610E4801F0A2F86006040E022069
:1058200000F068FF4FF48061094801F09AF8022007
:1058300000F060FF4FF48061054801F090F802200D
:1058400000F058FF681CC5B2082DD8DB70BD000001
:105850000004004810B501F0F7FB4FF400610C485C
:1058600001F07FF84FF48061094801F07AF80420D4
:1058700000F040FF4FF40061054801F070F804208B
:1058800000F038FF4FF48061014801F068F810BD66
:105890000004004810B501F0D7FB4FF480610C48BC
:1058A00001F05DF84FF40061094801F058F8042058
:1058B00000F020FF4FF48061054801F052F84FF4EA
:1058C0000061034801F04DF8042000F013FF10BD03
:1058D0000004004810B5002401F0AAFB4FF4006159
:1058E000124801F03EF8012000F004FF4FF48061FF
:1058F0000E4801F036F8012000F0FCFE07E0601CC5
:10590000C4B2FA2C03DDFFF7C5FF012010BD4FF430
:105910000061064801F027F80028F0D14FF48061BB
:10592000024801F01CF80020F0E7000000040048E5
:1059300010B500F0CDFF10BD70B505460C4600F067
:10594000D7FF284601F0E5FD0646E1B200F08CFFE6
:1059500000F0C6FF00F0BCFF70BD00BFFEE7000016
:1059600070B502460C46FF25FF2309E012F8010B33
:1059700080EA05010648405C80EA03050548435C6F
:10598000201EA4F10106B4B2F0D143EA052070BD97
:1059900048790008487A000870B53D4890F86900D9
:1059A00000B970BD3A4890F86700082806DA002070
:1059B000374981F8690081F86700F2E7344890F8C8
:1059C0006700801E81B23248801CFFF7C9FF054680
:1059D0002F4890F86700401E2D49891C0A5C881EDC
:1059E00090F86710891E801C405C02EB002086B294
:1059F000B54245D12648807825490978884221D189
:105A00002348C478032C0AD0062C08D0102C06D0CA
:105A100000201F4981F8690081F86700C1E7032C65
:105A200004D0062C05D0102C09D105E000F072F945
:105A300006E000F013FA03E000F074F800E000BFA5
:105A400000BF1DE012488078D0B91148C478062CF8
:105A500008D0102C06D000200D4981F8690081F88B
:105A600067009EE7062C02D0102C06D102E000F061
:105A7000CFFA03E000F00CF900E000BF00BF00BF68
:105A80000020034981F8670081F8690000BF88E7BA
:105A9000480000202DE9F04106460F4600241F482B
:105AA00002782146641C6A30425446F08002214646
:105AB000641C42542146641C47542146FFF750FFA2
:105AC00005462846E91705EB1161C1F30723224675
:105AD000641C12496A318B54E91705EB11610912F4
:105AE000A5EB0121CBB22246641C0C496A318B54D0
:105AF00004210B4800F035FF002406E007496A3115
:105B0000085D00F0C7FA601C84B2052CF6DB0421A6
:105B1000034800F024FFBDE8F081000048000020A9
:105B2000000400482DE9F04154484179007901EB27
:105B3000002086B25148C179807901EB002087B2FC
:105B40004E4890F867000A2801D200270DE04B4824
:105B500090F867000A38C0F34F00B84205DA4748AA
:105B600090F867000A38C0F34F07002416E0301998
:105B7000802811DA082000EB44014048801C415C79
:105B8000072000EB44023D48801C805C01EB0020B4
:105B900031193B4A22F81100601C84B2BC42E6DB9A
:105BA000122E11DCF01912280EDD3548808C58B108
:105BB0003348808C4FF6FF71884205D03048808C86
:105BC00030490860FFF742FD132E11DCF01913284D
:105BD0000EDD2B48C08C58B12948C08C4FF6FF71A0
:105BE000884205D02648C08C27490860FFF72EFD63
:105BF00022488078214981F86A000846C17880F8F7
:105C00006B10017980F86C10417980F86D10817902
:105C100080F86E10C17980F86F1006216A30FFF7A6
:105C20009FFE05462846E91705EB11610A0A13494C
:105C300081F87020E91705EB11610912A5EB01212C
:105C4000CAB20E4981F871200421104800F089FE83
:105C50004FF0000809E009496A3111F8080000F026
:105C600019FA08F101001FFA80F8B8F1080FF2DB09
:105C70000421064800F073FEBDE8F08148000020D2
:105C800030010020100000203400002000040048F3
:105C900030B51E4B5C791B7904EB032399B21B4B87
:105CA000DC799B7904EB03239AB2184B93F86730A5
:105CB0000A2B01D200220DE0144B93F867300A3B07
:105CC000C3F34F03934205DA104B93F867300A3B56
:105CD000C3F34F02002016E00B18802B11DA0823C3
:105CE00003EB4004094B9B1C1C5D072303EB4005A1
:105CF000064B9B1C5B5D04EB03230C18044D25F83D
:105D00001430431C98B29042E6DB30BD48000020BE
:105D1000300100202DE9F0414D484179007901EB37
:105D200000201FFA80F84A48C179807901EB0020F1
:105D300087B2B8F1800F00D22FB902210320FFF7FC
:105D4000A9FEBDE8F081C8F1800080B2B84204DA53
:105D500002210320FFF79EFEF3E72E2F04D9022134
:105D60000320FFF797FEECE700243948027821462C
:105D7000641C6A30425403222146641C4254780059
:105D8000C11700EB11610912A0EB0121CBB2224631
:105D9000641C2F496A318B54002623E008EB06016E
:105DA0002C4A32F81100C11700EB1161C1F307232F
:105DB0002146621CD4B2264A6A32535408EB0601CB
:105DC000244A32F81100C11700EB11610912A0EB4F
:105DD0000121CBB22146621CD4B21D4A6A3253540F
:105DE000701CC6B2BE42D9DB214619486A30FFF7A3
:105DF000B7FD05462846E91705EB1161C1F30723F6
:105E00002146621CD4B2124A6A325354E91705EB98
:105E100011610912A5EB0121CBB22146621CD4B25B
:105E20000B4A6A32535404210B4800F09AFD0026B5
:105E300006E007496A31885D00F02CF9701CC6B293
:105E4000A642F6DB0421044800F089FD00BF78E794
:105E50004800002030010020000400482DE9F047F0
:105E6000002666484179007901EB002085B263483D
:105E7000C179807901EB0024802D02DA604921F894
:105E800015405E4802783046711C8EB25B496A311B
:105E90000A5406223046711C8EB258496A310A549F
:105EA0002846E91705EB1161C1F307233146721C3F
:105EB00096B2524A6A325354E91705EB116109123E
:105EC000A5EB0121CBB23146721C96B24B4A6A3225
:105ED0005354C4F307223046711C8EB247496A31CD
:105EE0000A543046711C8EB244496A310C54314612
:105EF00042486A30FFF734FD07463846F91707EB8A
:105F00001161C1F307233146721C96B23B4A6A32D3
:105F10005354F91707EB11610912A7EB0121CBB21A
:105F20003146721C96B2354A6A32535404213548C0
:105F300000F017FD4FF0000809E030496A3111F810
:105F4000080000F0A7F808F101001FFA80F8B0453A
:105F5000F3DB642000F0B0FB082D19D14FF4165983
:105F600004B906E0012C02D14FF4E13901E04FF40D
:105F70001659204600F04EFB642000F09DFB484679
:105F800000F0A6F8642000F097FB00F083FE32E0FA
:105F9000102D0ED124B3642C2DD2642000F08CFB84
:105FA000A0B201F077F8642000F086FB00F072FEEA
:105FB00021E0122D09D19CB14FF6FF7084421AD016
:105FC00011480460FFF742FB15E0132D09D13CB1E5
:105FD0004FF6FF7084420ED00C480460FFF736FB8A
:105FE00009E0112D07D141F23420844203D1FFF79B
:105FF0009FFC01F08EF9BDE8F0870000480000200A
:10600000300100200004004810000020340000206F
:1060100070B515484179007901EB002085B212482E
:10602000C179807901EB0024802D02DA0F4921F833
:106030001540082D16D14FF4165604B906E0012C70
:1060400002D14FF4E13601E04FF41656204600F03D
:10605000E1FA304600F03CF8642000F02DFB00F03F
:1060600019FE00BF70BD0000480000203001002074
:1060700001200749087048704FF41650C1F8D0004D
:10608000002081F86800C1F8E00081F8E400704762
:106090004800002010B5044621460C4801F08BF959
:1060A00000BF40F20671094801F0C1F90028F8D09C
:1060B00000BF40F20771054801F0B9F90028F8D097
:1060C00040F20671014801F0A0F910BD003801400E
:1060D00010B5044640F2115000F03EFF40F212505D
:1060E00000F03AFF40F20E6000F036FF0423012278
:1060F00011462F4800F03FFC0423032200212C48C6
:1061000000F060FC04212A4800F029FC4FF40072E2
:1061100000214FF0904000F0F3FB4FF4806200212B
:106120004FF0904000F0ECFB4FF4C06300220221DE
:106130004FF0904000F01FFC4FF4C0630322002199
:106140004FF0904000F03EFC40F20E3000F024FF93
:1061500040F20E3000F010FF164801F031F92146F0
:10616000144801F0E5F80021124801F0C6F90021B9
:10617000104801F0AEF900210E4801F074F9042135
:106180000C4801F07CF908210A4801F0AEF90948F1
:1061900001F036F9012202211B2000F01BFD052130
:1061A000044801F053F90421014800F0D8FB10BD68
:1061B000000400480038014000BFFEE7BFF34F8FE6
:1061C0000648006800F4E06005490843001D0349E3
:1061D0000860BFF34F8F00BFFEE700000CED00E04A
:1061E0000000FA0500BFFEE710B540214FF09040D7
:1061F00000F0B9FB00B110BD2E48007800284FD048
:10620000FFF799F9840AB4F5005F19DB00202A49E9
:1062100008702A480078401CC0B22849087001283C
:106220000BDDA4F500504FF47A7148432449096806
:1062300090FBF1F42348046012E0224804680FE068
:1062400000241D480078401CC0B21B49087001287A
:1062500004DD00BF00201B49086001E01948046804
:1062600042F2107060431849096890FBF1F0174939
:10627000086008460068B0F5AB6F02D940F2F44000
:1062800008600C480078401CC0B20A490870032816
:106290000DDD00200870094908700749087006E004
:1062A00004480078401C03490870FFF744F900BF18
:1062B000A1E70000060000200500002004000020E7
:1062C00034000020080000201000002018000020EA
:1062D00000BFFEE7704700001CB54448006840F06E
:1062E00001004249086000BF4048006800F0020019
:1062F0000028F9D03D48406800F00C00082838D14B
:1063000000BF0020019002E00198401C019001981C
:106310005028F9D3354840680090009820F0F000EC
:106320000090009840F0800000903049009848604C
:106330000020019002E00198401C01900198502833
:10634000F9D32A4840680090009820F0F0000090AF
:10635000009840F090000090244900984860002088
:10636000019002E00198401C019001985028F9D357
:1063700000BF1E48406820F003001C4948606420AC
:1063800000F02EF9194800681949084017490860BB
:106390000846406817490840144948600846406864
:1063A00015490840114948600846406820F44000FB
:1063B00048600846C06A20F00F00C8620846006BBB
:1063C00040F243118843094908630846406B20F0B6
:1063D000010048630020886000F0BAFE4FF4A0413D
:1063E0004FF0006000F058FC1CBD0000001002409F
:1063F000FFFFF2FE0C00FF08FFFFC0F77FB5044669
:106400000D4640F2017000F0A7FD124800F0A4FE16
:10641000ADF800500020ADF80200ADF80400029481
:10642000ADF806008DF80C0069460A4800F008FF38
:106430000121084800F05EFF0121064800F056FFE8
:10644000044800F0F7FE03220221102000F0C2FBF6
:106450007FBD00000004004010B50121174800F086
:106460004CFF48B30121154800F044FF144890F850
:10647000680088B1124890F86600401C104981F805
:106480006600084690F866000C2805DB002081F8BD
:106490006800012081F869000948D0F8E000401C3C
:1064A0000749C1F8E0000846D0F8E000B0F57A7F6F
:1064B00002DD012081F8E40010BD0000000400406E
:1064C0004800002010B540F205711E4800F0AFFFF3
:1064D000A8B31C4800F06AFFC4B21B4890F86900DA
:1064E000012800D110BD184890F8670028B9164857
:1064F0004078A04201D004B1F4E7134890F8670057
:10650000642806DB0020104981F8670081F86800E4
:10651000E8E70D4890F8671090F86700401C0A4AB9
:1065200082F86700901C44540020114681F86600F0
:10653000084690F86700012801D181F8680000BF83
:10654000D0E7000000380140480000207CB5114829
:1065500000881149088011480088C8800D490868E2
:1065600001F094F905460E4901F0CEF804466A465A
:1065700001A9204600F0E4F8BDF80400064948806F
:10658000BDF8000088800748008888840648008895
:10659000C8847CBD180000203001002008000020C5
:1065A0000000C842100000203400002000BFFEE7B9
:1065B00070B504462046FEF745FE85B20421064824
:1065C00000F0CFF9054A2946204600F060FF04217B
:1065D000014800F0C4F970BD0004004800380140D3
:1065E00008B50021009102E00099491C009100EBE0
:1065F0008001009AB2EB410FF6D308BD10B5202000
:10660000FEF724FF04461CB1012C01D0002010BD70
:106610002046FCE710B50446E1B22020FEF757FF04
:1066200010BD000030B503460C464FF0FF3100228C
:1066300011E0985C414000250AE001F0010018B12A
:10664000074880EA510000E048080146681CC5B2CE
:10665000082DF2D3521CA242EBD3C84330BD000038
:106660002083B8ED10B50446A0B200F025F810BDA7
:106670004FF0E020006920F004004FF0E0210861B5
:10668000094800680949B0FBF1F00949087008465B
:10669000007800EB4001C1EBC0104FF6FF7101EA3A
:1066A000C0000449088070470000002000127A00F2
:1066B000300000203200002030B504460C4800882D
:1066C0006FF07F41B1FBF0F507E04FF47A7105FB05
:1066D00001F000F00FF8601B84B2AC42F5D82CB189
:1066E0004FF47A7104FB01F000F004F830BD0000B3
:1066F000320000200146114A12784A434FF0E0234D
:106700005A6100229A611A46126942F001021A6126
:1067100000BF4FF0E022106900F001021AB100F44E
:106720008032002AF5D04FF0E022126922F00102F7
:106730004FF0E0231A6100229A6170473000002078
:1067400008B50090009B1B0C0B80009B138008BDBC
:106750000348006940F0800001490861704700006B
:106760000020024070B504464FF4702000F020F87D
:106770000546C5B90D48006940F002000B490861A3
:1067800008464461006940F04000086100BF00BF56
:106790004FF4702000F00CF805460448006920F022
:1067A000020002490861284670BD00000020024036
:1067B00070B50546012400BF00F00CF804466D1EBC
:1067C000012C01D1002DF7D1012C00D10424204649
:1067D00070BD000000200A49C96801F0010109B13B
:1067E00001200CE00649C96801F0100109B103203D
:1067F00005E00349C96801F0040101B102207047B6
:10680000002002400548006900F0800020B10448E3
:106810000249486003484860704700000020024079
:1068200023016745AB89EFCD70B504460D464FF4A3
:106830007020FFF7BDFF06468EB90A48006940F098
:1068400001000849086125604FF47020FFF7B0FF90
:1068500006460448006920F00100024908613046FC
:1068600070BD00000020024030B502460B46164CB9
:10687000002145F25550154D286000BF1348C068EF
:1068800000F00101601E041E01D00029F6D109B1FB
:10689000002030BD0D4843600B4C00BF0B48C06862
:1068A00000F00201601E041E01D00029F6D109B1DA
:1068B0000020EEE7C2F30B00044DA8604AF6AA20C0
:1068C00028600120E5E70000FFFF0F0000300040D6
:1068D0004AF6AA20014908607047000000300040D5
:1068E0004CF6CC4001490860704700000030004081
:1068F00045F25550014908607047000000300040E3
:10690000F0B503461C6A5D6A00200DE00126864052
:1069100016403EB187000F26BE40B443860001FA00
:1069200006F63443461CB0B20828EFD3082011E025
:106930000126864016405EB1A0F10806B7000F267A
:10694000BE40B543A0F10806B60001FA06F635438D
:10695000461CB0B21028EBD31C625D62F0BD8162B0
:1069600070478161704702461069084008B10120F4
:1069700070470020FCE7F0B504460D461646216836
:10698000E268002019E0012787401F409FB14FEACD
:10699000400C032707FA0CF7B943470005FA07F73D
:1069A00039434FEA400C032707FA0CF7BA43470074
:1069B00006FA07F73A43471CB8B21028E3D3216020
:1069C000E260F0BDF0B50C461546012C03D14668D7
:1069D0001E43466002E046689E434660826800218E
:1069E0000DE001268E401E403EB14F000326BE4002
:1069F000B2434E0005FA06F632434E1CB1B21029DE
:106A0000EFD38260F0BD000000B589B0684600F0A9
:106A1000D3FA18B107490298884201D009B000BDE5
:106A20000448001F029000200790684600F0CAFD4D
:106A300000BFF3E705245713334834490860FFF7D4
:106A400017FE4FF4A06000F01BF962B640F6281163
:106A50000620FEF771FF4FF4FA70FFF72DFE4FF49A
:106A60001650FFF735FB2F2140F2E730FFF7C6FC49
:106A7000FFF7FEFAFEF7D0FC25A0FFF799FD642092
:106A8000FFF71AFE08E02AA0FFF792FD4FF47A7094
:106A9000FFF712FEFEF74CFFFEF7A7FC0028F2D12D
:106AA000FFF7ACFD044614B1012C00D00024012CEA
:106AB00002D14FF4E13001E04FF416502149C1F802
:106AC000D00021490C8200F0D9FA05461D48057016
:106AD00045701D480584FEF783FDFEF7C9FD194981
:106AE000D1F8D000FFF7F4FA6420FFF7E5FDFFF7D7
:106AF0008BFF00BFFEF71CFFFFF776FBFFF726FDBD
:106B0000FEF74AFFF6E700000050000808ED00E03D
:106B1000726164696174696F6E204D6F6462757330
:106B200020536C6176652056362E300D0A00000029
:106B3000454550524F4D206E6F7420666F756E64E0
:106B40000D0A0000480000203001002070B5054605
:106B50000C460CB9002070BD242229462046FEF7C1
:106B600090FB1049206888420ED1A06800F01CF804
:106B700050B145F2FC31E068884205D8606988422E
:106B800002D8E069032801D90020E4E7202120464B
:106B9000FFF748FD216A884201D10120DBE7002090
:106BA000D9E700004154454D0146094881420BD0C8
:106BB000401C814208D0401C814205D0401C8142CB
:106BC00002D0401C814201D1012070470020FCE727
:106BD000012457132DE9F04103460D4616460024C3
:106BE0000027A0462448006800F4E060B0F5A06FDC
:106BF00015D006DCB0F5407F18D0B0F5806F19D104
:106C000010E0B0F5C06F06D0B0F5E06F12D10027EC
:106C10004FF0040815E001274FF0030811E00227A8
:106C2000B8460EE003274FF001080AE004274FF0B2
:106C3000000806E04FF4A06000F022F80227B846F2
:106C400000BF00BFC7F1040005FA00F4C8F1040159
:106C50000F20C8403040044324010848C45403F0C6
:106C60001F01012088405911890001F1E021C1F87C
:106C70000001BDE8F08100000CED00E000E400E060
:106C800002490143024A1160704700000000FA0502
:106C90000CED00E0FFF792FA034A0A400243034B6F
:106CA0001A60BFF34F8F704780FFFF1F08ED00E0B1
:106CB0002DE9F04F8FB004464FF0000CE046002065
:106CC000002200258146CDF838900021CDF834907F
:106CD000CDF83090CDF82C900023CDF82890CDF849
:106CE0002490CDF82090002600270FF24C2999E837
:106CF000004CD9F80C90CDE905BECDF810A0CDF828
:106D00001C900FF2382ADAE9009ACDE9029A0FF2C4
:106D10002C2ADAE9009ACDE9009ADFF82C92D9F80A
:106D20000490C9F3810CBCF1000F06D0BCF1010F37
:106D300005D0BCF1020F3FD103E0844A3EE0834A14
:106D40003CE0DFF80492D9F80490C9F38343DFF8FC
:106D5000F891D9F80490C9F3C069CDF82890DDF80E
:106D60002890B9F1000F01D0113300E09B1CDFF82F
:106D7000D891D9F80490C9F30049CDF82490DDF8F2
:106D80002490B9F1000F12D0DFF8BC91D9F82C9003
:106D900009F00F0909F10109CDF82090DFF8ACA145
:106DA000DDF82090BAFBF9F909FB03F203E0DFF804
:106DB000A09103FB09F201E0644A00BF00BFDFF8C5
:106DC0008891D9F80490C9F303160DF1100919F848
:106DD000067022FA07F5DFF87091D9F80490C9F32C
:106DE00002260DF1080919F8067025FA07F9CDF801
:106DF0003890DFF85491D9F80490C9F3C2261DF8F1
:106E0000067025FA07F1072C72D2DFE804F00406B9
:106E1000080A0C475B00104689E0284687E00E9878
:106E200085E0084683E0DFF82091D9F8309009F436
:106E30008079B9F5807F04D0DFF81891CDF83490CF
:106E40002AE0DFF80491D9F80490C9F38138B8F149
:106E5000000F09D0B8F1010F0BD0B8F1020F0DD01F
:106E6000B8F1030F16D110E04FEA5109CDF8349074
:106E700011E04FEA9109CDF834900CE04FF006098B
:106E8000B1FBF9F9CDF8349005E04FEAD109CDF81E
:106E9000349000E000BF00BF0D9848E0DFF8A890F4
:106EA000D9F8309009F04009B9F1400F04D048F208
:106EB0001209CDF8309003E04FF40049CDF830903E
:106EC0000C9834E0DFF88090D9F8309009F003098D
:106ED000B9F1000F01D10B9126E0DFF86C90D9F8E1
:106EE000309009F00309B9F1010F02D10B921BE0B8
:106EF0001CE0DFF85490D9F8309009F00309B9F19B
:106F0000020F04D14FF40049CDF82C900CE0DFF8CB
:106F10003890D9F8309009F00309B9F1030F03D183
:106F2000DFF82890CDF82C900B9800E000BF00BF50
:106F30000FB0BDE8F08F000000000000000000006E
:106F400001020304060708090010024000127A003B
:106F500000093D00809FD500064A02EB90110968A8
:106F600000F01F0301229A401143024B03EB9012E1
:106F70001160704700100240064A02EB9011096848
:106F800000F01F0301229A409143024B03EB901241
:106F90001160704700100240064A02EB9011096828
:106FA00000F01F0301229A401143024B03EB9012A1
:106FB0001160704700100240F0B593B0064616B954
:106FC000002013B0F0BD0AA91448FFF7BFFD044626
:106FD00001A91348FFF7BAFD054614B90DB9002001
:106FE000EFE77CB175B10B99029800F03FF808B15A
:106FF00001A800E00AA80746242239463046FEF7D9
:1070000085F908E00CB10AA800E001A80146242295
:107010003046FEF77BF90120D3E70000004000086E
:107020000044000800F0010101B962B67047000099
:1070300010B54FF40063012200210248FFF79BFCCA
:1070400010BD00000004004810B54FF4006300229A
:1070500001210548FFF78FFC4FF400630322002154
:107060000148FFF7AFFC10BD000400480246501A6B
:10707000002801DD012070470020FCE710B510203A
:10708000FEF7E4F904460CB1642C01DB012010BDCD
:107090002046FCE710B50446E1B21020FEF717FACF
:1070A00010BD000008B500200021274A126842F4F4
:1070B0008032254B1A6000BF401C234A126802F43C
:1070C000003111B9B0F5006FF6D11F4A126802F411
:1070D000003202B908BD1C4A52681B4B5A601A465E
:1070E00052685A601A4652685A601A465268174BDC
:1070F0001A40154B5A601A46526842F488125A6078
:107100001A46126842F080721A6000BF0E4A126876
:1071100002F00072002AF9D00B4A52680092009ADD
:1071200022F003020092009A42F002020092064B03
:10713000009A5A6000BF044A526802F00C02082A02
:10714000F9D100BFC6E7000000100240FFFFC27780
:1071500010B5FFF7A7FF10BD10B504463349601AFC
:107160008C4217D00CDCB4F1804F1CD03048204446
:1071700010B3B0F5406F28D0B0F5E05F52D12DE0EC
:10718000B0F5A05F33D0B0F5C05F39D0B0F5E05FA7
:1071900048D13EE040F20B30FFF7FEFE40F20B30EC
:1071A000FFF7EAFE3FE04FF48060FFF7F5FE4FF493
:1071B0008060FFF7E1FE36E040F20140FFF7ECFEB1
:1071C00040F20140FFF7D8FE2DE040F20440FFF707
:1071D000E3FE40F20440FFF7CFFE24E04FF481606D
:1071E000FFF7DAFE4FF48160FFF7C6FE1BE04FF4B5
:1071F0004470FFF7D1FE4FF44470FFF7BDFE12E07C
:1072000040F21130FFF7C8FE40F21130FFF7B4FE34
:1072100009E040F21230FFF7BFFE40F21230FFF7F4
:10722000ABFE00E000BF00BF10BD0000002C01401D
:1072300000FCFFBF016841F00101016070470000E0
:107240000A888262234A904205D0B0F1804F02D072
:10725000214A90420BD1026822F07002026002685B
:107260004B881A43026002688B881A4302608A685E
:10727000C262184A904211D0B0F1804F0ED0164A27
:1072800090420BD0154A904208D0154A904205D042
:10729000144A904202D0144A904207D1026822F464
:1072A000407202600268CB881A430260094A904229
:1072B00008D00B4A904205D00A4A904202D00A4AAE
:1072C000904201D10A7B0263426942F001024261AD
:1072D00070470000002C01400004004000200040E6
:1072E000004001400044014000480140C2680A4398
:1072F000C2607047CA43026170470246D06800EA24
:1073000001031069084010B10BB101207047002043
:10731000FCE710B5FEF70CFB00F0E2F900B910BD78
:10732000FEF706FB0A20FFF7C7F972B6FEF746FF25
:107330002DE9F04704460D460027B846B946002619
:107340001948204438B1B0F5744F09D10620FFF731
:10735000AFFC074605E00220FFF7AAFC074600E065
:1073600000BF00BF206800F4004070B1780000EB5F
:107370005500B0FBF5F64FF6F07006EA0008C6F3CC
:10738000420948EA0900E0600CE007EB5500B0FB59
:10739000F5F64FF6F07006EA000806F00F0948EA25
:1073A0000900E060BDE8F08700BCFFBF0146486A05
:1073B000C0F308007047C1F3080282627047000002
:1073C00010B504460D48204458B1B0F5744F11D1A2
:1073D00040F20E30FFF7E0FD40F20E30FFF7CCFD3B
:1073E00009E040F21140FFF7D7FD40F21140FFF7EE
:1073F000C3FD00E000BF00BF10BD000000BCFFBF28
:10740000016841F001010160704710B540F205725A
:10741000914204D1826942F00802826106E0026A68
:1074200001F01F040123A3401A43026210BD10B5EE
:10743000024602EB9110006801F01F040123A340F3
:10744000184008B1012010BD0020FCE710B500EB8A
:107450009112126801F01F040123A3401A4300EBAC
:1074600091131A6010BD026822F0010202600268E6
:1074700022F4C062026002680A4302607047026838
:1074800022F00402026002680A43026070472DE99C
:10749000F04105460E46174600240DE000BF40F2BD
:1074A00007713846FFF7C3FF0028F8D0295D38463A
:1074B000FFF781FF601C84B2B442EFDB00BF40F2F3
:1074C00006713846FFF7B3FF0028F8D00020BDE86A
:1074D000F081026822F001020260426822F4405208
:1074E000426042680A4342607047026822F0080224
:1074F000026002680A4302607047026822F00102DB
:107500000260026822F48052026002680A4302604C
:107510007047014601F00700062810D2DFE800F0AE
:10752000030507090B0D002070470120FCE702202E
:10753000FAE70320F8E70420F6E70520F4E7062041
:10754000F2E700007FB51C4800901C480190002025
:1075500002900C216846FFF765F80390FEF7E8F902
:1075600000BFEFF31080054672B6FFF74BF91448E1
:10757000FFF7F8F800B117E000240BE05DF82410E5
:107580000F4A02EB8400FFF74FF900B10CE0FEF761
:10759000CFF9641C042CF1D3FFF7DAF82846FFF783
:1075A00041FD012004B070BDFFF7D2F82846FFF777
:1075B00039FD0020F6E700005AA5A55A0255AA5544
:1075C000004000082DE9F0479CB0044674B1A06863
:1075D000FFF7EAFA50B145F2FC31E068884205D87D
:1075E0006069884202D8E069032803D900201CB0F2
:1075F000BDE8F08713A93748FFF7A8FA80460AA923
:107600003548FFF7A3FA8146B8F1000F05D1B9F16B
:10761000000F02D12F4D01261CE0B8F1000F0FD052
:10762000B9F1000F0CD014990B98FFF71FFD18B19A
:10763000284D0B98461C0DE0274D1498461C09E078
:10764000B8F1000F03D0244D1498461C02E0214DE0
:107650000B98461C21482060666020212046FEF7DA
:10766000E1FF2062FEF764F900BFEFF3108082466D
:1076700072B6FFF7C7F82846FFF774F800B122E0AA
:1076800000270AE054F8271005EB8700FFF7CCF835
:1076900000B118E0FEF74CF97F1C092FF2D3FFF779
:1076A00057F85046FFF7BEFC01A92846FFF74EFAEF
:1076B00038B12422214601A8FDF798FD08B9012020
:1076C00095E7002093E7FFF743F85046FFF7AAFC41
:1076D00000208CE700400008004400084154454D5C
:1076E00000B589B06846FFF767FC18B9FFF72AFFB5
:1076F00009B000BD03480290002007906846FFF7DC
:1077000061FFF5E7022457134FF47F0C1CEAD012F7
:107710001EBF1CEAD11392EA0C0F93EA0C0F00F083
:10772000858090EA010F48BF42F4807240F4000C5B
:1077300041F400002CF07F4120F07F4000B58142F1
:10774000A2EB03020FF2081CACEB504EC0F100009C
:107750009EF800E04FEA4E0E00FB0EFC38BF4900D9
:107760004FEA2C1C02F5FA020CFB0EF34FEACE1E78
:107770004FEA112C4FEAC1210EEB635E42EB22422D
:107780000EFB0CFC4FEA1C5300FB03114FEA112CBB
:107790004FEA01310EFB0CFC4FEADC4C00FB0C11F4
:1077A000C14228BF09184CEB03335DF804EB10EB22
:1077B000410143EBC250B2F57C0F38BF704729D569
:1077C00012F0F00F1CBF00F1C04000F00040704705
:1077D000008182838485868788898B8C8D8E8F91AA
:1077E0009293959697999A9C9D9FA0A2A3A5A7A8CE
:1077F000AAACAEB0B2B3B5B7B9BCBEC0C2C5C7C9FA
:10780000CCCED1D4D7D9DCDFE2E6E9ECF0F3F7FA5D
:10781000FE0000004FEA400C0CF1807CBCF17E4F72
:1078200028BF7047B0F1C04000F089B890EA010F5E
:107830000CEAD11348BF42F48072624538BF6345F9
:1078400007D213F47F0F16D080EA010000F0004049
:10785000704710B500F02DF8097EFC3E00F005B829
:1078600080EA010000F00040704780EA010000F06B
:10787000004000F064B812F47F0F04BF0248704764
:1078800080EA010000F05BB80000C07FB0FA80F32E
:1078900010FA03F2C3F19D030AD0D90501EB1220BF
:1078A000530638BF704700F1010008BF20F0010007
:1078B00070470EF1020E2EF0030E5EF8044B2442C8
:1078C00004D44FEA4102B2F17F4F11D84FEA40038E
:1078D000B3F17F4F0CD80ED14FEAD07CB2F17F4F7D
:1078E0000CEB4C0C0CF1020C08BF4CEBD17C04E00F
:1078F0004FF0080C01E04FEAD17C0CEB4C0324FA6A
:1079000003F404F00704B4F1040C06D20EEB840C6B
:10791000BDE810404CF0010C6047DFE80CF00708B0
:1079200002024FF00040A0F5800010BD0846420062
:1079300018BFD2F1807288BF00F0004010BDFF2157
:1079400041EAD050C005704700C1814001C080416C
:1079500001C0804100C1814001C0804100C181401F
:1079600000C1814001C0804101C0804100C181400F
:1079700000C1814001C0804100C1814001C08041FF
:1079800001C0804100C1814001C0804100C18140EF
:1079900000C1814001C0804100C1814001C08041DF
:1079A00001C0804100C1814000C1814001C08041CF
:1079B00001C0804100C1814001C0804100C18140BF
:1079C00000C1814001C0804101C0804100C18140AF
:1079D00000C1814001C0804100C1814001C080419F
:1079E00001C0804100C1814000C1814001C080418F
:1079F00001C0804100C1814001C0804100C181407F
:107A000000C1814001C0804100C1814001C080416E
:107A100001C0804100C1814001C0804100C181405E
:107A200000C1814001C0804101C0804100C181404E
:107A300000C1814001C0804100C1814001C080413E
:107A400001C0804100C1814000C0C101C30302C226
:107A5000C60607C705C5C404CC0C0DCD0FCFCE0E8E
:107A60000ACACB0BC90908C8D81819D91BDBDA1AFE
:107A70001EDEDF1FDD1D1CDC14D4D515D71716D66E
:107A8000D21213D311D1D010F03031F133F3F232DE
:107A900036F6F737F53534F43CFCFD3DFF3F3EFE4E
:107AA000FA3A3BFB39F9F83828E8E929EB2B2AEABE
:107AB000EE2E2FEF2DEDEC2CE42425E527E7E6262E
:107AC00022E2E323E12120E0A06061A163A3A2629E
:107AD00066A6A767A56564A46CACAD6DAF6F6EAE0E
:107AE000AA6A6BAB69A9A86878B8B979BB7B7ABA7E
:107AF000BE7E7FBF7DBDBC7CB47475B577B7B676EE
:107B000072B2B373B17170B050909151935352925D
:107B100096565797559594549C5C5D9D5F9F9E5ECD
:107B20005A9A9B5B99595898884849894B8B8A4A3D
:107B30004E8E8F4F8D4D4C8C4484854587474686AD
:107B40008242438341818040687B0008000000201E
:107B5000340000004C5100089C7B000834000020D9
:107B60005C0A000068510008006CDC0200000000A4
:107B70000000000000000000000000000000000005
:107B800000000000000000000000000000000000F5
:0C7B9000000000000000000000000000E9
:04000005080051118D
:00000001FF
