:020000040800F2
:10500000600700204551000801640008C35B0008E8
:10501000355C00086B540008717100080000000046
:10502000000000000000000000000000BD6A000851
:105030006D540008000000007D6400085D51000808
:105040005F5100085F5100085F5100085F51000880
:105050005F5100085F5100085F5100085F51000870
:105060005F5100085F5100085F5100085F51000860
:105070005F5100085F5100085F5100085F51000850
:105080005F5100085F5100085F5100085F51000840
:105090005F5100085F5100085F5100085F51000830
:1050A0005F5100085F5100085F5100085F51000820
:1050B0005F510008396C0008F56C00085F5100086A
:1050C0005F5100085F5100085F5100085F51000800
:1050D0005F5100086D6E0008D16E00085F51000836
:1050E0005F5100085F5100085F5100085F510008E0
:1050F0005F5100085F5100085F5100085F510008D0
:105100005F5100085F5100085F5100085F510008BF
:105110005F5100085F5100085F5100085F510008AF
:105120005F5100085F5100085F5100085F5100089F
:10513000DFF80CD000F068F900480047417700081C
:10514000600700200648804706480047FEE7FEE764
:10515000FEE7FEE7FEE7FEE7FEE7FEE7FEE7FEE727
:10516000E96B000831510008421C10F8011B0029AE
:10517000FBD1801A7047F0B480EA0102D40F4200DC
:10518000B2EB410F02D20246084611464A0042D015
:10519000C30DDDB2C1F3C752AD1A202D35DAC1F30C
:1051A000160141F4000204B15242C5F1200602FA90
:1051B00006F12A411044B3EBD05F23D0C4B1012DD6
:1051C000A0EBC35009DCF0BC4FF0004202EAC3522E
:1051D000DBB200F5000000F0E9B8400000F180709B
:1051E00000EBC350A0F1807040EAD170490009E0A3
:1051F000490841EAC071A0EBC35000F50000400827
:1052000000EBC350F0BC00F0C8B86142012202EBD1
:105210004101001BF6E7F0BC704781F00041AAE7AE
:1052200080F00040A7E780EA010210B502F00043D9
:10523000400022D04A001FD0010E01EB1261C0F3E2
:105240005600C2F3560240F4000042F40002A0FBF4
:10525000022000047F39140400D0401C50EA1240A0
:1052600001D44000491EC2B20C0604EBD010401C11
:105270004008802A02D003E0002010BD20F0010089
:10528000002900DA0020184310BD30B480EA010282
:1052900002F0004530F0004221F0004013D090B100
:1052A000C30DD40DC2F31601C0F31600E41A41F485
:1052B000000140F400027D34914201D3641C00E0FF
:1052C0004900002C02DA30BC002070474FF4000087
:1052D0000023914201D3891A034340084FEA410158
:1052E000F7D151B1914202D14FF0004105E002D215
:1052F0004FF0010101E06FF0010103EBC4502844BD
:1053000030BC00F04AB896230022114600F04EB897
:1053100020F00040C10DC0F3160040F400007F29CA
:1053200001DA00207047962903DCC1F19601C840DC
:1053300070479639884070472DE9F05F0546002098
:1053400092469B4688460646814640241BE02846F6
:1053500041464746224600F078F853465A46C01A5E
:10536000914110D311461846224600F05FF82D1ADD
:1053700067EB01084F4622460120002100F056F855
:1053800017EB00094E41201EA4F10104DFDC484662
:1053900031462A464346BDE8F09F0029A8BF704722
:1053A000401C490008BF20F00100704710B4B0FA5B
:1053B00080FC00FA0CF050EA010404BF10BC7047F6
:1053C00049B1CCF1200421FA04F411FA0CF118BF10
:1053D000012121430843A3EB0C01CB1D4FEA0061DF
:1053E0004FEA102042BF002010BC704700EBC350B2
:1053F00010440029A4BF10BC7047401C490008BFDE
:1054000020F0010010BC7047064C074D06E0E06834
:1054100040F0010394E8070098471034AC42F6D3FB
:10542000FFF78AFEB07B0008D07B0008202A04DB4F
:10543000203A00FA02F1002070479140C2F12003A7
:1054400020FA03F3194390407047202A04DB203AE6
:1054500021FA02F00021704721FA02F3D040C2F194
:1054600020029140084319467047FEE7704700004C
:1054700070B505464FF43026304600F0ABF80428EE
:1054800011D1094C206940F002002061656120695A
:1054900040F040002061304600F09CF8216941F660
:1054A000FD721140216170BD0020024008490420B6
:1054B000CA68D20701D001207047CA68520701D5D7
:1054C00002207047C968C906FBD503207047000059
:1054D0000020024008490420CA68D20701D00120F8
:1054E0007047CA68520701D502207047C968C906CB
:1054F000FBD50320704700000020024002480169EC
:1055000041F08001016170470020024004490A68AF
:1055100022F010020A600A6802430A607047000025
:1055200000200240F0B506464FF400570D463846BD
:1055300000F050F804280CD1064C206940F001001E
:1055400020613580384600F045F82169BA1E1140C7
:105550002161F0BD002002402DE9F84106460020FF
:105560004FF4005700900D46384600F033F80428F9
:1055700016D10C4C206940F0010020613580B846FE
:10558000384600F027F8BF1E042806D1B61C280CA8
:1055900000963080404600F01DF8216939402161B5
:1055A000BDE8F88100200240034A116801F038018B
:1055B0000143116070470000002002400348024987
:1055C0004160034941607047230167450020024064
:1055D000AB89EFCD00B50346FFF768FF02E0FFF7A8
:1055E00065FF5B1E012803D0002B00D1052000BD04
:1055F000002BF4D1FAE770B505464FF6FF70002393
:105600004AF201040EE0EA5C50400022C60702D0D4
:1056100084EA500000E04008521C92B2082AF5D3F8
:105620005B1C9BB28B42EED370BD000010B586B000
:1056300004AB01AA02A903A800F076F888B110A073
:1056400001F0B2FD00231A464FF41651012000F07C
:1056500039F9040012D014A001F0A6FD204606B0CE
:1056600010BDBDF910000090BDF904309DF80C107C
:1056700015A0029A01F098FD0020F0E721A0EBE7C9
:10568000466C61736820636F6E66696720696E7629
:10569000616C69642C20736176696E67206465664D
:1056A00061756C74730D0A004661696C65642074E1
:1056B0006F20736176652064656661756C74206324
:1056C0006F6E6669670D0A00466C61736820636FD0
:1056D0006E666967206C6F616465643A20536C6123
:1056E00076653D3078253032582C20426175643D16
:1056F00025642C204F66667365743D25642F2564F0
:105700000D0A000044656661756C7420636F6E66F7
:10571000696720736176656420737563636573736D
:1057200066756C6C790D0A002DE9FE43374C0E4608
:105730000746E1899846A1F5B44015465C3801D08A
:1057400033A033E08DF80010080A8DF801002078AE
:105750008DF8020060688DF80300010A8DF80410CE
:10576000010C8DF80510000E8DF8060020898DF8CB
:105770000700000A8DF8080060898DF80900000A0A
:105780008DF80A0000208DF80B000C216846FFF709
:1057900032FFA28901468A4203D024A001F004FD11
:1057A00027E0217809B1F72903D92CA001F0FCFCEE
:1057B0001FE06068B0F5165F08D0B0F5964F05D0D1
:1057C000B0F5E13F02D001462DA0EFE7B4F90800A3
:1057D00040F2CF7200F2E730904207D2B4F90A00EB
:1057E00010F57A7F02DDB0F57A7F05DB2CA001F0A1
:1057F000DBFC0120BDE8FE833970606830602089E1
:1058000028806189A8F800100020F3E700F800085C
:10581000466C617368206D61676963206572726FA1
:10582000723A203078253034580D0A00466C617386
:105830006820435243206572726F723A2063616C34
:10584000633D3078253034582C2073746F72656452
:105850003D3078253034580D0A000000496E7661DD
:105860006C69642073746F72656420736C61766513
:1058700020616464726573733A2025640D0A000028
:10588000496E76616C69642073746F72656420621E
:10589000617564726174653A2025640D0A00000028
:1058A000496E76616C69642073746F7265642063FD
:1058B000616C6962726174696F6E206F6666736590
:1058C000740D0A002DE9F04788B00D46070001D09D
:1058D000F72F02D9014646A009E0B5F5165F09D0B9
:1058E000B5F5964F06D0B5F5E13F03D047A001F0DE
:1058F0005BFC71E002F2E73040F2CF71884205D2E2
:1059000013F57A7F02DDB3F57A7F01DB45A061E014
:10591000ADF81420ADF816305C218DF800105A2136
:1059200045F65C208DF80110ADF81A000020ADF8A6
:105930001800290A8DF80410290C8DF80510290E7D
:105940008DF80610110A8DF808108DF80930190A23
:105950008DF80A108DF802708DF80B008DF80C7020
:1059600004958DF803508DF807200C216846FFF749
:1059700042FEADF81800334CFFF720FE2046FFF73B
:1059800077FD0646FFF7BAFD042E01D0012000E0A6
:10599000002008B12CA01DE0A2460DF10C084FF02C
:1059A0000809FFF70BFE00240AEB440038F8141036
:1059B000FFF7B8FD0646042803D1641CA4B24C4589
:1059C000F2D3FFF79BFD042E01D0012000E0002060
:1059D00030B123A001F0E8FB012008B0BDE8F0875A
:1059E0002A46394624A001F0DFFB0020F5E700003D
:1059F000496E76616C696420736C617665206164C0
:105A000064726573733A2025640D0A00496E7661ED
:105A10006C69642062617564726174653A20256402
:105A20000D0A0000496E76616C69642063616C69DF
:105A300062726174696F6E206F66667365740D0AB9
:105A40000000000000F80008466C61736820657271
:105A5000617365206661696C65640D0A0000000071
:105A6000466C617368207772697465206661696C41
:105A700065640D0A00000000436F6E66696720735D
:105A8000617665643A20536C6176653D30782530E7
:105A900032582C20426175643D25640D0A000000D7
:105AA000F0B5CC78002204F00F03E40601D58C7821
:105AB00023430C784FF00F0C14F0FF0F4FF0010E42
:105AC0001BD005680E880EFA02F42640A64210D1BB
:105AD00096000CFA06F725EA070703FA06F5CE78D2
:105AE0003D43282E02D0482E02D002E0446100E05F
:105AF0000461521C082AE5D305600A88FF2A1CD9D4
:105B00004468002202F108060EFA06F50E882E40BF
:105B1000AE420ED196000CFA06F7BC4303FA06F724
:105B2000CE783C43282E00D14561CE78482E00D156
:105B30000561521C082AE5D34460F0BD02460020EE
:105B400092680A4200D001207047416170470161AC
:105B500070477CB5044600200090019000F0B4FC32
:105B60004FF48035284600F043FD00F089FD019098
:105B7000012800D0FEE71020FFF7C8FC0220FFF745
:105B800013FD002000F02AFD002000F055FD4FF429
:105B9000806000F047FD2146284600F05DFD0120B1
:105BA00000F054FD392000F0F9FC0028FAD0022062
:105BB00000F05CFD00F0E4FF00F008FD0828FBD1D8
:105BC0007CBDFEE702494CF6CC40086070470000FF
:105BD0000030004000F014B870B504460D4645F2A0
:105BE000555000F021F8204600F012F8284600F049
:105BF00015F800F005F8BDE87040FFF7E3BF0000BE
:105C000002494AF6AA2008607047000000300040B0
:105C10000149486070470000003000400149886039
:105C200070470000003000400149086070470000E4
:105C300000300040FEE7000070B5094DFF2213461A
:105C400005F5807605E010F8014B54402A5D5A4076
:105C5000335D491E89B2F6D243EA022070BD0000CE
:105C6000B079000870B5274E96F86900002838D042
:105C700096F86710002508292FD3891E89B2B01C19
:105C8000FFF7DAFF96F86710721C8A5C715C02EB12
:105C9000012189B2884231D1B0783178884216D159
:105CA000F178032903D0062901D0102915D1032941
:105CB00004D0062905D0102920D105E000F0C6F84F
:105CC0001CE000F035F919E000F04AF816E0A8B938
:105CD000F478062C06D0102C04D086F8695086F88B
:105CE000675070BD214608A001F05EFA062C05D071
:105CF000102C03D0F1780FA001F056FA06F8675F78
:105D0000B57070BD400000204D6F646275732062F5
:105D1000726F61646361737420726563656976652F
:105D2000642C2066756E6374696F6E3D25640D0A80
:105D300000000000E9AA9EE68C8EE68CB1E6B693E0
:105D4000E5B686E695AEE98EB8E4BDB8E5A79BE971
:105D500091B3E7958CE7889C2025640D0A0000002C
:105D60002DE9F047364D687995F804C0814600EB7F
:105D70000C20EF79AE7984B207EB06200104090C00
:105D800005D0802C03D2C4F18000884201DA0221C0
:105D90000FE0287A4A06120E904209D1092000EB42
:105DA000410095F8672080B2824201D3642805D96A
:105DB0000321BDE8F047102000F05ABA0020DFF8B8
:105DC00084A00DE02218802A08D205EB400393F846
:105DD0000A805B7A08EB03232AF81230401C80B259
:105DE0008842EFD3A87885F86A00E87885F86B00D8
:105DF00085F86CC085F86D9085F86E60104885F860
:105E00006F7006216A305235FFF716FF010AA97735
:105E1000E8770D4E04213046523DFFF798FE0024EE
:105E2000281990F86A0000F00FFA641CA4B2082C3C
:105E3000F6D33046BDE8F0470421FFF786BE0000E8
:105E4000400000208C010020000C01402DE9F041B1
:105E500001F03CF901F052F9334D6879297900EBF2
:105E6000012086B2E879A97900EB01200104090C30
:105E700005D0802E03D2C6F18000884201DA0221CB
:105E800005E0052000EB4100642805D90321BDE8A9
:105E9000F041032000F0ECB92878234A85F86A0025
:105EA000032082F86B00480082F86C000324002075
:105EB00002F5A67710E0321805EB040C37F8123023
:105EC000641C1A0A8CF86A20E2B2AC18521C84F8DE
:105ED0006A30401CD4B2C0B28842ECD3124821468A
:105EE0006A30FFF7A9FE2A19010A82F86A10641CB9
:105EF000E1B26A18491C0D4F82F86A00CEB2042143
:105F00003846FFF724FE002406E0281990F86A00BE
:105F100000F09AF9641CE4B2B442F6D33846BDE806
:105F2000F0410421FFF711BE40000020000C0140A9
:105F30002DE9F05F574F07F5A6787879397900EBAE
:105F4000012085B2F879B979802D00EB012084B267
:105F500001D228F81540387887F86A004D480621A4
:105F60004C4A80F86B10280A82F86C00104604F046
:105F7000FF0980F86D50200A82F86E0082F86F9059
:105F800002F16A00FFF758FE424A010ADFF808B141
:105F900082F8701011464FF0080A81F87100042150
:105FA0005846FFF7D4FD0026B81990F86A0000F0B3
:105FB0004BF9761CB6B25645F6D3642001F092FB3D
:105FC00004215846FFF7C1FD40F2CE71142D13D0C5
:105FD000152D1BD0162D5BD0172D28D0182D38D09D
:105FE000112D55D1A4F59050343851D1FFF708FE4A
:105FF000BDE8F05F01F0F0BB22B202F2E730884268
:1060000046D8A8F82820B8F92A3009E020B200F2D2
:10601000E7328A423CD8A8F82A00B8F9282003B20F
:106020003878D7F8D010BDE8F05F00F0C7B8002C82
:106030002ED0F72C2CD887F8009087F80190B8F96B
:106040002A30B8F928204846D7F8D01000F0B6F822
:1060500019E04FF416554CB1012C02D0022C03D09C
:1060600004E04FF4964501E04FF4E135C7F8D05015
:10607000B8F92A30B8F928203878294600F09EF877
:10608000284600F097F9BDE8F05F642001F02ABBD4
:10609000BDE8F09F40000020000C01402DE9FF41C9
:1060A00003AB02AA01A96846FFF73EFB2F49002770
:1060B0004FF416546200A1F5A6764FF4E13340B1D7
:1060C000012030707070C6F8D0400F854F858F85E5
:1060D00015E09DF80000307070700198C6F8D0008F
:1060E000BDF808500D85BDF80C504D858F85904248
:1060F00001D1012504E0984201D1022500E00025EC
:106100003DB1012D02D0022D02D002E0144600E084
:106110001C46C6F8D0400D86337873701348CB8583
:1061200013A23221643801F04FF81048643801F0AE
:1061300021F84FF4FA78404601F0D4FA0B482B4688
:1061400012A23221323801F03FF80848323801F00B
:1061500011F8404601F0C6FA204600F0BDF8642070
:1061600001F0C0FA86F86870BDE8FF818C0100205C
:106170004D6F6462757320736C6176652061646431
:10618000726573733A2025640D0A000042617564DC
:1061900020696E6465783A2025642028303D3936C0
:1061A00030302C20313D31393230302C20323D31ED
:1061B0003135323030290D0A00000000F8B51C4698
:1061C00016460F460546FFF77DFB20B1BDE8F840B7
:1061D00009A000F0E9BF0E4833463A460570457005
:1061E000C0F8D07000F5A67029460685448509A040
:1061F000009400F0D9FFF8BD4661696C65642074B5
:106200006F207361766520636F6E6669670D0A00A3
:1062100040000020436F6E66696720736176656495
:106220003A20536C6176653D3078253032582C2009
:10623000426175643D25642C204F66667365743D2C
:1062400025642F25640D0A0010B5084C0146204630
:1062500000F01AFF4021204600F07DFE0028F9D012
:106260002046BDE81040402100F068BE00440040D8
:106270002DE9F041164E40F08000327886F86A2011
:10628000324682F86B00104680F86C1003216A30A9
:10629000FFF7D2FC3246010A82F86D1011460D4F0D
:1062A00081F86E00052504213846FFF750FC0024D4
:1062B000301990F86A00FFF7C7FF641CE4B2AC42E3
:1062C000F6D33846BDE8F0410421FFF73EBC00009C
:1062D00040000020000C01402DE9F04101218046E2
:1062E0004E0486B0304600F0CBF801210C2000F0BF
:1062F000DFF80424ADF8004010208DF803000320DF
:10630000294D8DF8020069462846FFF7C9FBADF814
:1063100000401820254F8DF8030069463846FFF7E6
:10632000BFFB0820ADF800008DF8034069463846F1
:10633000FFF7B6FB0121304600F0AEF800213046F1
:1063400000F0AAF80021ADF80C10ADF808100C20F0
:10635000174CADF80A10ADF81010ADF80E00CDF8DE
:10636000048001A9204600F035FE26208DF8140097
:1063700002208DF8150001218DF816108DF81710E8
:1063800005A800F03FF8012240F22551204600F018
:1063900008FE0121204600F0D4FD04212846FFF725
:1063A000D4FB06B0BDE8F081000C014000080140BC
:1063B000004400407FB5104D04460021284600F0FF
:1063C000C0FD0020ADF80400ADF80600ADF80800EF
:1063D000ADF80C000C20ADF80A0000946946284680
:1063E00000F0F8FD0121284600F0ABFD0421034830
:1063F000FFF7ABFB7FBD000000440040000C0140F4
:106400007047000030B50F23C27801780125F2B142
:10641000144A126801F1E02102F4E062C2F5E06280
:10642000120AC2F10404D3404278A24084781C408E
:106430001443220181F80024007800F01F018D40F0
:106440004009800000F1E020C0F8005130BD01F0AB
:106450001F0085404809800000F1E020C0F880510D
:1064600030BD00000CED00E002490843024908601D
:10647000704700000000FA050CED00E070470000D6
:10648000044A0029D16901D0014300E08143D16170
:106490007047000000100240044A0029116901D031
:1064A000014300E081431161704700000010024089
:1064B000044A0029916901D0014300E081439161C0
:1064C00070470000001002400C48016841F00101D3
:1064D000016041680A4A114041600168094A11405F
:1064E0000160016821F480210160416821F4FE010E
:1064F00041604FF41F0181607047000000100240AE
:106500000000FFF8FFFFF6FE30B5204A5168204B2F
:1065100011F00C0103D0042901D0082901D0036037
:1065200012E05168536801F470114FF0020413F443
:10653000803F04EB914102D053689B0301D5154B7A
:1065400000E0134B5943016051680F2303EA111116
:10655000114B5C5C0168E14041605468072505EA25
:1065600014241C5D21FA04F48460546805EAD424E0
:106570001B5DD940C1605268032303EA9232064B87
:106580001B1F9A5CB1FBF2F1016130BD00100240AB
:1065900000127A0000093D00300000200346002070
:1065A0005909094A01290AD002290AD0516A03F07F
:1065B0001F02012393400B4200D001207047116855
:1065C000F5E7116AF3E70000001002400248406856
:1065D00000F00C007047000000100240034A5168B0
:1065E00021F0F001014351607047000000100240AB
:1065F0000B490A6822F480320A600A6822F4802279
:106600000A60B0F5803F07D0B0F5802F03D108684D
:1066100040F4A02008607047086840F48030F9E733
:1066200000100240034A516821F4E06101435160C7
:106630007047000000100240034A516821F4605185
:1066400041EAC000506070470010024001490866EE
:106650007047000000004242034B5A68084322F48E
:106660007C1210435860704700100240034A516882
:1066700021F0030101435160704700000010024007
:1066800018B500204FF6FF7400903120FFF786FF09
:106690000099491C0091A14201D00028F5D0312079
:1066A000FFF77CFF002800D0012018BD70B505461B
:1066B000FF20002331240FE0EA5C50400022060650
:1066C00002D584EA400000E04000521CD2B2C0B2C1
:1066D000082AF4D35B1CDBB28B42EDD370BD000003
:1066E0002DE9F047144E4FF4006700243760012075
:1066F00001F012F8DFF840A00025B946AAF1100A0F
:10670000371506F104086006040E37604946504606
:10671000FFF714FA08B144F00104052000F0FCFF73
:10672000C8F80070052000F0F7FF6D1CEDB2082DD1
:10673000E9D32046BDE8F087100C014070B50A4946
:106740004FF400620D1D08B10A6000E02A604FF4AA
:1067500080640C60052000F0DFFF2C60BDE8704015
:10676000052000F0D9BF0000100C01402DE9F047D2
:10677000104E4FF480670546376000244FF40069DF
:10678000A6F104082806484602D5C8F8000000E033
:106790003060C8F80070052000F0BEFF37600520AB
:1067A00000F0BAFF6806641C050EE4B2082CE9D3B9
:1067B000BDE8F087140C01402DE9F041134E4FF471
:1067C00000653560052000F0A7FF6C1034600520DF
:1067D00000F0A2FF0D4F2946103F3846FFF7AEF9F3
:1067E00000280AD0361D3560052000F095FF2946A7
:1067F0003846FFF7A3F910B10020BDE8F0813460FE
:10680000052000F089FF0120F7E70000100C01408F
:1068100070B508484FF40066066004150460052052
:1068200000F07AFF034D2D1F2C60052000F074FF4F
:106830002E6070BD140C01402DE9F04115494FF454
:1068400000600024086045100D60124F4FF4FA7686
:10685000103F804603E0641CA4B2B44205D2414616
:106860003846FFF76BF90028F5D141463846FFF767
:1068700065F9084C241D18B125600020BDE8F081A1
:10688000052000F049FF2560052000F045FF0120AC
:10689000F4E70000100C014008B501210820FFF7C3
:1068A00007FE4FF44060ADF8000001208DF80200B3
:1068B00014208DF8030069460948FFF7F1F80848ED
:1068C0004FF4806110300160C1140160322000F08B
:1068D000FDFE00F0D5F80A2000F0F8FE08BD00002B
:1068E000000C01402DE9FC415E4C00256078322807
:1068F00001D32570657020785B4E20B1012823D02C
:10690000022870D12CE0FFF757FFB8B18820FFF7BD
:106910002DFFFFF791FF88B12420FFF727FFFFF736
:106920008BFF58B10020FFF721FFFFF785FF28B14B
:10693000FFF76EFF3088606001200FE0FFF768FF0F
:106940006078401C607059E030886168401A02D558
:106950004EF660210844142801DB022020707FE0FD
:10696000FFF72AFFF0B38920FFF700FFFFF764FF6E
:10697000C0B3FFF7B5FE8DF800000020FFF7DEFE84
:10698000FFF7AEFE8DF801000020FFF7D7FEFFF7FE
:10699000A7FE8DF802000020FFF7D0FEFFF7A0FE53
:1069A0008DF803000020FFF7C9FEFFF799FE8DF870
:1069B00004000020FFF7C2FEFFF792FE8DF80500ED
:1069C0000120FFF7BBFEFFF723FF02216846FFF718
:1069D0006DFE064602210DF10300FFF767FE9DF8EC
:1069E000021001E00DE03AE0B14203D19DF805103C
:1069F000814209D06078401C607025700020BDE89D
:106A0000FC81FFF705FFF5E7BDF80000174E40BA1F
:106A10003080BDF803104FBA7780FEF774FC14493C
:106A2000FEF701FCDFF84C804146FEF72EFC1249D0
:106A3000FEF7A1FB70603846FEF765FC0F4F394644
:106A4000FEF7F1FB4146FEF720FCB06010F1FF4F6E
:106A500001D3B56002E0B84200DDB7606570257013
:106A60000120CCE718000020140000208C02002038
:106A700000002F4300FF7F47000034C20000C842DF
:106A800010B5FFF799FEA8B18820FFF76FFEFFF75A
:106A9000D3FE78B13020FFF769FEFFF7CDFE48B195
:106AA000A220FFF763FEFFF7C7FE18B1FFF7B0FEA5
:106AB000012010BDFFF7ACFE002010BD70470000A4
:106AC0000CB50023264800930193016841F48031FE
:106AD00001604FF6FF71026802F400320192009AE1
:106AE000521C0092019A12B9009A8A42F3D10168AD
:106AF000890333D5012101911A490A6842F0100235
:106B00000A600A6822F003020A600A6842F0020280
:106B10000A604168416041684160416841F48061B8
:106B20004160416821F47C114160416841F4E81101
:106B30004160016841F08071016001688901FCD504
:106B4000416821F003014160416841F00201416068
:106B50004168C1F381010229FAD10CBD01930CBD3A
:106B600000100240002002404FF0E0210428086994
:106B700003D020F004000861704740F00400FAE7F9
:106B8000154A10B55068154B10F00C01144803D08D
:106B9000042901D0082901D0036012E0516853682C
:106BA00001F470114FF0020413F4803F04EB9141A3
:106BB00002D053689B0301D50A4B00E0074B5943B1
:106BC00001605168064AC1F30311121D515C02684D
:106BD000CA40026010BD00000010024000127A009E
:106BE0000000002000093D000F4810B5016841F089
:106BF0000101016041680D4A1140416001680C4A81
:106C000011400160016821F480210160416821F494
:106C1000FE0141604FF41F018160FFF751FF0549FC
:106C20004FF00060086010BD001002400000FFF847
:106C3000FFFFF6FE08ED00E010B5144C01212046E0
:106C400000F0B1F800281FD00121204600F09EF886
:106C50000F49012291F8680060B191F86600401C6C
:106C6000C0B281F866000C2804D3002081F86800C7
:106C700081F86920D1F8E000401CC1F8E000B0F5CF
:106C80007A7F01DD81F8E42010BD0000000400409F
:106C9000400000207FB50D46044601210220FFF789
:106CA000EFFBADF804400020ADF80050104CADF8FB
:106CB0000200ADF806006946204600F089F801227E
:106CC0001146204600F07BF80121204600F061F8D3
:106CD0001D208DF80C0002208DF80D0003208DF88A
:106CE0000E0001208DF80F0003A8FFF78BFB7FBD7E
:106CF0000004004010B50B4C0121204600F053F871
:106D000000280ED00121204600F040F806494EF63A
:106D100060220888401C80B20880904201D3002085
:106D2000088010BD00080040140000207FB50C460C
:106D3000054601210420FFF7A3FBADF80040002029
:106D4000ADF80450104CADF80200ADF806006946ED
:106D5000204600F03DF801221146204600F02FF8B1
:106D60000121204600F015F81E208DF80C000220AD
:106D70008DF80D0003208DF80E0001208DF80F0016
:106D800003A8FFF73FFB7FBD00080040C943018215
:106D900070470029018802D041F0010101E021F093
:106DA00001010180704702460020138A92890B423C
:106DB00002EA010202D0002A00D001207047002A16
:106DC000828901D00A4300E08A4382817047000033
:106DD00030B502881B4C1C4DA0420DD0A8420BD0F0
:106DE000B0F1804F08D0194B984205D0184B98420B
:106DF00002D0184B984203D122F070034A881A43FC
:106E0000154B984206D0154B984203D022F440739C
:106E1000CA881A4302808A8882850A880285A0422D
:106E20000AD0A84208D00E4A904205D00D4A90429E
:106E300002D00D4A904201D1097A01860121818256
:106E400030BD0000002C014000340140000400402F
:106E500000080040000C00400010004000140040FA
:106E600000400140004401400048014070B5154C0D
:106E700040F22551204600F075F800280ED020463B
:106E800000F0FEF8104AC1B21088030406D444048E
:106E90004FF0000306D50A2901D0138070BD40F4DD
:106EA00000400DE00D2909D0C0F30D04074D401C32
:106EB00080B229551080C728EFD870BD40F48040BB
:106EC000108070BD0038014024000020980200208E
:106ED00010B5184C40F22551204600F043F8012827
:106EE00011D1204600F0CCF8134AC0B292F86910D4
:106EF000012908D092F86710002329B1642908D32A
:106F000002F8673F537010BD5478844201D00028C6
:106F1000F9D1094CA41C085592F86700401CC0B276
:106F200082F8670082F866300128ECD182F86800A8
:106F300010BD00000044004040000020C943018013
:106F400070470029818902D041F4005101E021F409
:106F50000051818170470246002012880A4200D009
:106F60000120704770B501F01F0501260024C1F310
:106F7000421306FA05F2012B0FD0022B0FD0838AA1
:106F80004FEA11210088134206FA01F600EA0600D2
:106F900001D000B10124204670BD8389F0E7038A47
:106FA000EEE710B5C1F3421301F01F040121A14027
:106FB000012B07D0022B07D01430002A026805D01D
:106FC0000A4304E00C30F8E71030F6E78A43026029
:106FD00010BD000030B50446008A85B00D464CF661
:106FE000FF710840E98801432182A0894EF6F31120
:106FF0000840A9882A8911436A8902431143A18163
:10700000A08A4FF6FF410840A9890143A182684642
:10701000FFF77AFA1948844201D1039800E00298F8
:10702000A189090400EBC00101EB0010296801D51A
:10703000490000E08900B0FBF1F06422B0FBF2F1FE
:1070400009010B096FF018056B4300EB8300A3895E
:107050001D044FF0320306D503EBC000B0FBF2F085
:1070600000F0070005E003EB0010B0FBF2F000F0C9
:107070000F000843208105B030BD000000380140FA
:107080008088C0F308007047C1F308018180704711
:107090002DE9F04117460D46064600240BE040213D
:1070A0003846FFF758FF0028F9D0315D3846FFF722
:1070B000EBFF641CA4B2AC42F1D340213846FFF789
:1070C0004AFF0028F9D00020BDE8F0811FB501ABD0
:1070D0006A4603A902A8FEF727FB074A002118B158
:1070E0001185518591851FBDBDF800001085BDF843
:1070F00004005085F6E700008C01002070B5194DA2
:10710000194E31466868FEF78EF8FEF701F9174C04
:10711000218D084420803146A868FEF784F8FEF7E8
:10712000F7F8618D084460800021A1802888608183
:107130006888A081E181A4F5A67021820278E285A9
:10714000D0F8D000B0F5165F05D0B0F5964F04D05A
:10715000B0F5E13F03D0218670BD012000E00220A0
:10716000208670BD8C020020000020418C01002090
:10717000FEE7000070B50546FDF7F6FF084E84B245
:1071800004213046FEF7E3FC064A21462846FFF775
:107190007FFF3046BDE870400421FEF7D6BC0000FA
:1071A000000C0140004400400FB4054B10B503A98A
:1071B000044A029800F030F810BC5DF814FB00009F
:1071C00029770008280000200FB41CB502460020D3
:1071D00007AC00290BD0491ECDE90021054B6A46BA
:1071E0002146069800F018F8009A002111701CBC86
:1071F0005DF814FB7B76000802E008C8121F08C186
:10720000002AFAD170477047002001E001C1121F27
:10721000002AFBD1704700002DE9FF4F8DB00F46CB
:107220000546002606E025280BD0DDE90F12904721
:107230006D1C761C28780028F5D111B03046BDE8C9
:10724000F08F0024A246A1460122EC4900E004434D
:1072500015F8013F203B02FA03F00842F7D12878E5
:107260002A2810D06FF02F022878A0F130010929C8
:1072700014D80AEB8A0102EB410144F0020400EB4E
:10728000010A6D1CF0E701CF5FEA000A03D544F460
:107290000054CAF1000A44F002046D1C28782E281C
:1072A00017D115F8010F44F004042A280ED06FF00E
:1072B0002F022878A0F1300109290AD809EB8901A9
:1072C00002EB410100EB01096D1CF2E757F8049B4A
:1072D0006D1C28786C280FD006DC4C2817D0682845
:1072E0000DD06A2814D104E0742810D07A280FD168
:1072F0000DE044F400140AE044F4801401E044F486
:1073000040146978814202D104F580146D1C6D1C13
:107310002A786E2A1FD00CDC632A31D004DC002AC4
:107320008BD0582A11D1A3E0642A68D0692A0CD1E5
:1073300065E0732A2ED004DC6F2A73D0702A04D142
:107340009BE0752A6FD0782A6ED01046DDE90F12C7
:107350009047761C50E1C4F30250022806D003285F
:1073600009D0042801CF09D0066045E101CFF1170B
:10737000C0E9006140E101CF06803DE106703BE1DC
:1073800017F8040B8DF8000000208DF80100EB4683
:10739000012003E057F804BB4FF0FF3061074FF0C6
:1073A000000102D40DE008F10101884649450FDAD9
:1073B0008045F8DB1BF808100029F4D108E008F13B
:1073C000010188468142FADB1BF808100029F6D13A
:1073D000DDE90F23AAEB08008146214600F036F9CB
:1073E000304400EB080604E0DDE90F121BF8010B46
:1073F0009047B8F10108F7D221464846F7E00A2144
:10740000C4F302534FF0000B0891022B04D001CFBC
:10741000C117032B09D00AE0FF1D27F00707F7E883
:10742000020108E032E01FE020E000B2C117042BA7
:1074300001D140B2C117031E71F1000307DA4FF00A
:10744000000CD0EB0C006CEB01012D2302E02305B6
:1074500004D52B238DF82430012303E0E30701D06A
:107460002023F7E7984658E00A2110E010210EE0AB
:1074700010204FF0000B08900CE010214FF0000B93
:1074800044F004044FF00809089103E008214FF08C
:10749000000B0891C4F30253022B04D001CF00214A
:1074A000032B06D006E0FF1D27F00707F7E80201CF
:1074B00003E080B2042B00D1C0B24FF000082307D4
:1074C0002BD5702A07D0DDF820C08CF0100C5CEAB8
:1074D0000B0C05D00EE040238DF82430012308E08A
:1074E00050EA010306D030238DF824308DF8252092
:1074F00002239846DDF820C08CF0080C5CEA0B0CE7
:107500000BD150EA010301D1630706D530238DF872
:1075100024304FF00108A9F10109582A04D038A2FB
:107520000B9208AA0A920BE03AA2F9E75B46089A86
:10753000FDF702FF0B9B9B5C0A9A521E0A92137086
:1075400050EA0102F2D10A98ADEB000000F1200BE5
:10755000600702D524F4803401E04FF00109D945D9
:1075600002DDA9EB0B0000E0002000EB0B01414421
:107570000890AAEB010AE00306D4DDE90F232146B7
:10758000504600F063F806444FF0000908E009A9EE
:1075900011F80900DDE90F12904709F10109761C85
:1075A000C145F4DBE0030CD5DDE90F23214650464D
:1075B00000F04CF8064404E0DDE90F12302090475B
:1075C000761C0899481E08900029F5DC08E00A9806
:1075D0000A990078491C0A91DDE90F129047761C40
:1075E000BBF10001ABF1010BF1DC21465046DDE9B6
:1075F0000F2300F019F806446D1C1BE60928010052
:107600003031323334353637383961626364656618
:1076100000000000303132333435363738394142DA
:1076200043444546000000002DE9F0410446002592
:107630001E461746880404D405E039462020B0478A
:107640006D1C641EF9D52846BDE8F0812DE9F04196
:10765000044600251E469046C80301D5302700E0A9
:107660002027880404D505E041463846B0476D1C04
:10767000641EF9D52846BDE8F0814A68002A06D084
:107680000A68531C0B6010704868401E48607047C1
:1076900010B56FF00400FFF767FA09480949006860
:1076A000B0FBF1F00849C0B200EB40020870C2EB39
:1076B000C0104FF6FF7202EAC000488010BD000003
:1076C00000000020404B4C002000002040F24C42C3
:1076D00004E00021491C89B29142FBD3401E80B2D4
:1076E000F7D270470B49498848434FF0E021486181
:1076F00000238B61086940F0010008610869C20736
:1077000001D0C003FAD5086920F0010008618B613F
:10771000704700002000002000EB80008006000E73
:10772000401EC0B2FCD2704704490A885206FCD5FC
:10773000024AC1B2121D118070470000003801409A
:1077400021492048086062B64FF40020FEF701FA94
:10775000FFF79EFFFFF7A0F84FF4E13000F058F874
:10776000FDF764FF40F628110620FEF735FA4FF4C6
:10777000FA70FFF7B7FF4FF4A060FEF775FE4FF405
:107780001650FEF7A9FD40F2E7341F212046FFF70F
:1077900081FA1F212046FFF7C9FA0CA0FFF7EAFC87
:1077A0006420FFF79FFFFEF779FCFEF713FAFFF75F
:1077B00099F8FEF70FFAFEF755FA3220FFF792FF1D
:1077C000F3E700000050000808ED00E06170702051
:1077D00056362E310D0A000010B5FEF711FA00F0F2
:1077E00067F800280FD0FEF70BFA0A20FFF77AFFA0
:1077F00072B605480168054A01F4E0611143016071
:10780000BFF34F8FFEE710BD0CED00E00400FA055A
:1078100070B5054686B0012144F20400FEF748FE2B
:107820004FF40070ADF8100003248DF812401820BA
:107830001D4E8DF8130004A93046FEF731F93015BE
:10784000ADF8100004208DF8130004A93046FEF7AF
:1078500027F925208DF814008DF815408DF8164075
:1078600001208DF8170005A8FEF7CCFD0020ADF82B
:107870000400ADF80600ADF80800ADF80C000C20CF
:107880000A4CADF80A00009569462046FFF7A2FBB6
:10789000012240F225512046FFF783FB01212046BB
:1078A000FFF74FFB06B070BD0008014000380140F3
:1078B0002DE9FF413A4800903A480190002002909B
:1078C0000C24401E384B6D460022A95C4840002124
:1078D000C60702D083EA500000E04008491C89B284
:1078E0000829F5D3521C92B2A242EED3C0430390B2
:1078F000FEF786F9FDF762FEFDF700FE72B6FDF7B2
:107900005DFE4FF480373D46FDF7E4FD042802D0CC
:107910006D1EF9D200E0BDB3244D2846FDF7A8FD49
:10792000042831D18404FDF7D5FD042802D0641E5B
:10793000F9D200E044B3FEF763F9B8466E4600247E
:107940002F4656F8241007EB8400FDF705FE0428A7
:107950001AD14546FDF7BEFD042802D06D1EF9D2AE
:1079600000E08DB1641C042CEBDB3968009A3846CA
:10797000914207D14168019A914203D1F968039A73
:10798000914208D0FDF774FDFDF7B8FD62B6002006
:1079900004B0BDE8F081FDF7B1FD62B60120F7E764
:1079A0005AA5A55A0255AA552083B8ED00400008F3
:1079B00000C1814001C0804101C0804100C18140BF
:1079C00001C0804100C1814000C1814001C08041AF
:1079D00001C0804100C1814000C1814001C080419F
:1079E00000C1814001C0804101C0804100C181408F
:1079F00001C0804100C1814000C1814001C080417F
:107A000000C1814001C0804101C0804100C181406E
:107A100000C1814001C0804101C0804100C181405E
:107A200001C0804100C1814000C1814001C080414E
:107A300001C0804100C1814000C1814001C080413E
:107A400000C1814001C0804101C0804100C181402E
:107A500000C1814001C0804101C0804100C181401E
:107A600001C0804100C1814000C1814001C080410E
:107A700000C1814001C0804101C0804100C18140FE
:107A800001C0804100C1814000C1814001C08041EE
:107A900001C0804100C1814000C1814001C08041DE
:107AA00000C1814001C0804101C0804100C18140CE
:107AB00000C0C101C30302C2C60607C705C5C4048E
:107AC000CC0C0DCD0FCFCE0E0ACACB0BC90908C8FE
:107AD000D81819D91BDBDA1A1EDEDF1FDD1D1CDCEE
:107AE00014D4D515D71716D6D21213D311D1D0105E
:107AF000F03031F133F3F23236F6F737F53534F44E
:107B00003CFCFD3DFF3F3EFEFA3A3BFB39F9F838BD
:107B100028E8E929EB2B2AEAEE2E2FEF2DEDEC2CAD
:107B2000E42425E527E7E62622E2E323E12120E01D
:107B3000A06061A163A3A26266A6A767A56564A40D
:107B40006CACAD6DAF6F6EAEAA6A6BAB69A9A8687D
:107B500078B8B979BB7B7ABABE7E7FBF7DBDBC7C6D
:107B6000B47475B577B7B67672B2B373B17170B0DD
:107B700050909151935352929656579755959454CD
:107B80009C5C5D9D5F9F9E5E5A9A9B5B995958983D
:107B9000884849894B8B8A4A4E8E8F4F8D4D4C8C2D
:107BA000448485458747468682424383418180409D
:107BB000D07B00080000002040000000F8710008A1
:107BC000107C000840000020200700000872000818
:107BD00000A24A04000000000000000001020304AB
:107BE0000607080900000000000000000000000077
:107BF0000000000000000000000000000204060871
:107C00000000000001020304010203040607080942
:04000005080051316D
:00000001FF
